:020000040800F2
:1000000030110020790200088102000883020008F4
:10001000850200088702000889020008000000002D
:100020000000000000000000000000008B0200083B
:100030008D020008000000008F02000891020008F5
:10004000930200089302000893020008930200083C
:10005000930200089302000893020008930200082C
:10006000930200089302000893020008930200081C
:10007000930200089302000893020008930200080C
:1000800093020008930200089302000893020008FC
:1000900093020008930200089302000893020008EC
:1000A00093020008930200089302000893020008DC
:1000B00093020008930200089302000893020008CC
:1000C00093020008930200089302000893020008BC
:1000D00093020008F5280008930200089302000824
:1000E000930200089302000893020008930200089C
:1000F00000F002F800F0B0F80AA090E8000C82448A
:100100008344AAF10107DA4501D100F0A5F8AFF266
:10011000090EBAE80F0013F0010F18BFFB1A43F0E5
:10012000010318470C3F00002C3F00000A444FF029
:10013000000C10F8013B13F0070408BF10F8014B46
:100140001D1108BF10F8015B641E05D010F8016B8B
:10015000641E01F8016BF9D113F0080F1EBF10F8EF
:10016000014BAD1C0C1B09D16D1E58BF01F801CB12
:10017000FAD505E014F8016B01F8016B6D1EF9D595
:100180009142D6D3704700000023002400250026AA
:10019000103A28BF78C1FBD8520728BF30C148BFEA
:1001A0000B6070476E2900F07B81702900F0BD82E2
:1001B000662902F02B86652902F02886672902F05D
:1001C0002586612902F0248603681B0A28BF41F0B6
:1001D0008001692900F02881642900F025817529B2
:1001E00000F022816F2900F04A82782900F089828C
:1001F000E92900F0E581E42900F0E281F52900F029
:10020000DF81EF2900F04782F82900F08882036837
:10021000DB0928BF41F08001632900F08B87732937
:1002200000F09087E32900F09B87F32900F0A08776
:10023000002070471FB500F0EDFF040000200021F2
:1002400002F0CEFD401C60600020002102F0B2FDF3
:10025000E0601FBD10B510BD00F0AEFF1146FFF706
:10026000E9FF02F089FC01F08BF803B4FFF7F2FF1D
:1002700003BC01F093F80000094880470948004793
:10028000FEE7FEE7FEE7FEE7FEE7FEE7FEE7FEE746
:10029000FEE7FEE704480549054A064B70470000A3
:1002A00095280008F1000008300B002030110020D4
:1002B000300D0020300D00201CB50C46064B7B4451
:1002C00069460090204600F004F904460020694683
:1002D00000F012F920461CBD370200004FF0013C2F
:1002E00050F8042B51F8043B9A4221D1A2EB0C03A5
:1002F000934313EACC1317D150F8042B51F8043B65
:100300009A4215D1A2EB0C03934313EACC130BD101
:1003100050F8042B51F8043B9A4209D1A2EB0C038C
:10032000934313EACC13DBD04FF00000704700BFBB
:10033000D01A01BAB1FA81F101F0180122FA01F0E4
:10034000CB40C1F12001DBB2C0B2C01A2CFA01F3DC
:10035000D11A914311EAC311E6D170477047704733
:10036000704770B5044685690068C10601D530261E
:1003700000E02026C00707D070BDD4E90121304637
:100380009047206A401C20626D1EF6D570BD70B586
:10039000044685690078C00707D170BDD4E9012102
:1003A00020209047206A401C20626D1EF6D570BD4B
:1003B00009684A0501D540B27047C905FCD500B2AD
:1003C000704709684A0501D5C0B27047C905FCD518
:1003D00080B2704770B50C460546012A05D02878D2
:1003E000800600D5EA69002302E0012305E05B1CDA
:1003F000934202D2E05C0028F9D1A869E618C01A3D
:10040000A861286A184428622846FFF7AAFF04E07A
:10041000D5E9012114F8010B9047B442F8D32846DE
:10042000FFF7B5FF70BD00002DE9F041064600243E
:1004300010687529314616A510D0FFF7B9FF0028BE
:1004400002DA404213A507E031688A0701D512A5F8
:1004500002E0490704D511A5012401E0FFF7B1FF2F
:1004600000210A2206F1240709E0B0FBF2FCB0FBF0
:10047000F2F302FB1C00303078541846491C002867
:10048000F3D123462A463046BDE8F04100F061BA78
:10049000000000002D0000002B00000020000000E4
:1004A00011680268006A530501D508700AE0D30597
:1004B00001D5088006E0130603D5C217C1E9000282
:1004C00000E008600120704701694A1C0261087859
:1004D000704700B58FB0CDE9013100210591054984
:1004E0007944CDE903101146684600F029F90FB0B0
:1004F00000BD0000E5FFFFFF0A6802F8010B0A607B
:10050000704700002DE9FF5F15468A460446DFF874
:10051000AC80F8440027D8E900103E46CDE9001031
:1005200010E03AF816106A4602A800F025FE411CB9
:1005300007D02178890603D5E269391891420DD890
:100540000744761C2078800602D5E069B84205DDB4
:10055000AE42E6DB3AF816000028E2D1A069C01BE3
:10056000A0612046FFF7FDFED8E90010CDE900109C
:10057000002017E03AF818106A4602A800F0FCFDC7
:10058000B0F1FF3F81460BD000250DF1080B05E0CF
:10059000D4E901211BF8050090476D1C4D45F7D3A8
:1005A00008F10100B0428046E4DB206A3844206252
:1005B0002046FFF7ECFEBDE8FF9F00001E3A00005A
:1005C0002DE9F0418046D21D22F007020025D2E934
:1005D0000002F52915A614D0011E72F1000106DAF9
:1005E0000023D0EB030063EB020211A608E0D8F869
:1005F00000108B0701D50FA602E0490701D50EA612
:1006000001251146002408F1240704E000F05CF9FC
:1006100030323A55641C50EA0102F7D12B4632467B
:1006200021464046BDE8F04100F093B900000000CB
:100630002D0000002B0000002000000030B400213D
:1006400000F1240408E002F00705D208303542EA40
:100650004372DB086554491C52EA0305F3D1046870
:10066000002310A2250707D5A40600D421B1C46930
:1006700001230DA2641EC46130BC00F06AB910B53C
:10068000044621461068FFF79CFE02462046BDE85E
:1006900010400023D2E7D21D22F00701D1E9002348
:1006A000CCE700000000000030000000F0B40D4670
:1006B0000188090502D5214C7C4402E01F4C7C4492
:1006C0000E34002100F1240608E002F00F071209A1
:1006D000E75D42EA03721B097754491C52EA03079B
:1006E000F3D102780023120704D5702D06D009B18A
:1006F000022311342246F0BC00F02BB90123103440
:10070000F8E770B504460D4621461068FFF759FE1C
:10071000024629462046BDE870400023C6E7D21DA8
:1007200022F00703D3E90023C0E70368126843F00F
:10073000200303600823C3610023B7E7803800006B
:100740002DE9F05F894604464FF0000ADFF874B1E6
:10075000FB44C0F820A02046E1688847002874D0F8
:10076000252806D0D4E901219047206A401C206248
:10077000F1E700265F462046E168884720280546C5
:1007800007DB312D05D2781910F8200C08B106438B
:10079000F1E7B00701D526F00406C4F81CA0002735
:1007A000C4F818A02A2D09D0284602F0DEF938B383
:1007B00004EB8708303DC8F8185019E059F8041BBD
:1007C000204604EB87029161E1688847012F0546C6
:1007D00018D1E069002820DA26F020061DE0D8F8BC
:1007E000180000EB800005EB40003038C8F8180016
:1007F0002046E1688847054602F0B7F90028EED1A7
:10080000012F0AD02E2D08D12046E16888477F1C91
:100810000546022F46F02006C4DBA069002803DA53
:10082000404246F00106A061F00701D026F0100614
:100830006C2D0BD0682D09D04C2D39D06A2D35D0B8
:10084000742D35D07A2D33D016E038E0E1682F468C
:1008500020468847B842054609D16C2F26D04FF470
:100860008060E168064320468847054604E06C2F17
:100870001AD04FF4807006430DB3A5F1410019283A
:1008800002D8203546F400664A46294620462660AE
:100890004E46FFF787FC80B101280BD0F61D26F0ED
:1008A000070000F1080956E74020E4E78020D8E778
:1008B0000020D6E706F104094DE7284652E7206AF2
:1008C000BDE8F09F1038000030B5B0F10A024FEAE1
:1008D000900E71F100034EEA817EB0EB0E0061EBE9
:1008E00091014FEA101E4EEA017E10EB0E0041EB23
:1008F00011114FEA102E4EEA016E10EB0E0041EB83
:1009000011214FEA104E4EEA014E10EB0E0041EB62
:100910001141401841F100014FEAD00040EA417016
:100920004FEAD10110EB80054FEA810444EA90744C
:1009300044EB01046D1944EB0404521BA3414FF036
:10094000000348BF0A3200D530BD401C41F1000110
:1009500030BD2DE9F0470D4699469246044600F118
:1009600024080168880604D5E06921F0100121609F
:1009700000E00120A84201DD471B00E00027A1693B
:100980007A1902EB0900081AA0612078C00602D487
:100990002046FFF7E6FC002608E0D4E901211AF81A
:1009A00006009047206A401C761C20624E45F4DB0E
:1009B0002078C0060AD52046FFF7D3FC06E0D4E92C
:1009C000012130209047206A401C2062381EA7F188
:1009D0000107F4DC07E0D4E9012118F8050090478D
:1009E000206A401C2062281EA5F10105F3DC204688
:1009F000FFF7CDFC2078000602D50220BDE8F08785
:100A00000120FBE770472DE9FF4F0C461E464FF0D3
:100A1000FF378BB0D2E90001DDF860800A908A468A
:100A2000C1F30A5505B93D46002108464FF00000C4
:100A3000BAF1000F00F4400005DA00EB80004FF43B
:100A4000400101EA50004FEA9059B9F1010F00DD71
:100A5000B9460A9850EA4A000ED044F61050A5F262
:100A6000FF3545432F14B8F1000F1ED07542291EE3
:100A70001EDDC9F100021CE0B8F1010F4FF00000CB
:100A800001D0302103E0F24305E02154401CB04284
:100A9000FBDB30460022002121540B99C1F808806D
:100AA000C1E900200FB0BDE8F08FBD1B6D1CDEE773
:100AB0004A4600DA694206A800F0F0FB06AB93E86C
:100AC000070003AB83E8070050460A9900F06DFC6D
:100AD0008DE80700A0F500501F3800900398002D06
:100AE0000ADD42F21F014A460844002303A903908D
:100AF000684600F0D6FE09E0A0F500504A461F38CF
:100B0000002303A90390684600F0E0FE8DE807008B
:100B10000004000C03D04FF0FF30410800E0104605
:100B2000B8F1000F03D00022009215461EE0751E9A
:100B300005D4FFF7C9FE303262556D1EF9D5B346B4
:100B40000122084302D000227F1C04E020783028D4
:100B500001D100227F1E002A099784D01DE0112DAB
:100B600007DAFFF7B1FE303262556D1C50EA010220
:100B7000F5D1084302D00098C8B10EE00021681EEC
:100B800005E0235C625C63542254401E491C814290
:100B9000F7DBAB46A81B401E0990002004F80B00B1
:100BA0000B98099AC0F80880C0E9002B7AE7112653
:100BB0004FF0000857E72DE9F04F88460446D21D54
:100BC00022F0070191B0D1E90001CDE90A0101F05D
:100BD000B8FF02460B98C00F01D02D2007E0206817
:100BE000810701D52B2002E0202101EAC000032A61
:100BF000099001D0072A05DB03464146204600F054
:100C00000DFB0BE12078800601D5E06900E00620AD
:100C1000B8F1650F814606D0B8F1660F18D0B8F16B
:100C2000670F70D131E00020B9F1110F009001DBA6
:100C3000112301E009F101030AAA01A90CA8FFF799
:100C4000E2FEDDE90C70002609F10105834647E06C
:100C500001204B4600904FF000470AAA01A90CA8BA
:100C6000FFF7D1FEDDE90DB00C995D46002610B905
:100C700009F101000D18B9EB050003D4C0F1FF36EE
:100C800009F10105A5EB09002BE0B9F1010F01DA2B
:100C90004FF001090020B9F1110F0090484601DD25
:100CA000112300E003460AAA01A90CA8FFF7ABFE36
:100CB000DDE90C704D4600268346207800070AD4F3
:100CC000AB4500DA5D4601A8012D04DD411911F89C
:100CD000011C302907D04F4502DA17F1040F04DA5E
:100CE000012082460FE06D1EEEE7002F02DCED1BB7
:100CF0003E4403E0781CA84200DD7D1CB81B00F1D7
:100D0000010A4FF000472078000703D4AA4501DB11
:100D10004FF0FF3A0021B7F1004F0DF143088DF875
:100D2000431024D002202B23002F01DA7F422D23F1
:100D30000A21021EA0F1010000DC5FB197FBF1FC6B
:100D400097FBF1F201FB1C7C17460CF1300C08F804
:100D500001CDEEE7A8F1010003702188090501D556
:100D6000452100E06521A0F1010800F8011C099867
:100D70000FA9A1EB0807FF1D00B10120411901EBEC
:100D8000EA70A1693844081A401EA0612078C006A4
:100D900002D42046FFF7E5FA099828B1D4E90121E9
:100DA0009047206A401C20622078C00622D5204649
:100DB000FFF7D7FA1EE0002E04DBB34502DD01A8E1
:100DC000805D00E03020D4E901219047206A401C7A
:100DD0002062761CAAF101005FEA000A0AD100F045
:100DE00019FAC0680168405CD4E901219047206A83
:100DF000401C2062281EA5F10105DCDC07E0D4E9D7
:100E0000012118F8010B9047206A401C2062381E0F
:100E1000A7F10107F3DC2046FFF7B9FA032011B070
:100E200041E600002DE9F04F04460D46D21D22F0A8
:100E3000070089B0D0E900974846394601F081FEA5
:100E40000246F80F01D02D2307E02068810701D565
:100E50002B2302E0202101EAC0038DF820300BB1E2
:100E6000012000E00020032A824601D0072A04DB8B
:100E70002946204600F0D2F93FE12078800601D4CF
:100E80000D2500E0E569C7F30A560D2D49DA00216A
:100E90004FEA175B08464FF00000002F00F44000B7
:100EA00007DA00EB80004FF4400100EBD07001EA5C
:100EB00060008115012901DD4FF0FF3100224FEA6A
:100EC000850CBCF1180F06D31346ACF118004FF097
:100ED0008052C24003E04FF4801323FA0CF30CF16C
:100EE0000C0CBCF1200F04D3ACF1200C09FA0CF06F
:100EF00001E007FA0CF000294FF0004801DD18B9B5
:100F00000FE00ED140450CD319EB02095F4121B926
:100F1000404502D19F4329EA0209BBEB175F00D08D
:100F2000761C2088000502D57B48784402E07A4888
:100F30007844193808AA302302F80A30037C0AF1F1
:100F40000101002E0AF1020A53546A4602DC4FF0F6
:100F5000300101E04FF031014FF001088DF8001031
:100F600002D0A6F2FF3603E059EA470100D06B4EEB
:100F7000002D02DC2178090704D54FF002082E214C
:100F80008DF80110C44600210BE0C7F303433F0175
:100F9000C35C491C6D1E02F80830052908F10108E0
:100FA00001DA002DF1DC00210CE000EB1973491C83
:100FB0001B786D1E082902F808304FEA091908F15C
:100FC000010801DA002DF0DC21688B0602D516E05D
:100FD000A8F10108E04505DD02EB080313F8013C28
:100FE000302BF5D0B8F1000F09DD02EB080313F840
:100FF000013C2E2B03D1090701D4A8F10108002DD3
:1010000005DD3E2102F808106D1E08F10108407C44
:10101000002E02F8080008F1010804DA2D207642BB
:1010200002F8080002E02B2002F808000A214FF421
:101030007A70864208F101080BDB96FBF0F330333F
:1010400002F8083096FBF0F308F1010800FB136684
:1010500001E0642E0CDB642096FBF0F3303302F8E1
:10106000083096FBF0F308F1010800FB136601E07D
:101070000A2E06DB96FBF1F0303002F8080008F18A
:10108000010896FBF1F001FB1060303002F8080017
:10109000A16908F1010808EB050202EB0A00081A31
:1010A000A0612078C00602D42046FFF75AF9216AD1
:1010B00008AE01EB0A00206204E0D4E9012116F831
:1010C000010B9047BAF1010AF7D22078C00602D589
:1010D0002046FFF746F96E4609E016F8010B3E2858
:1010E0000FD0D4E901219047206A401C2062B8F15A
:1010F0000108F2D22046FFF74AF909B00320BDE803
:10110000F08F206A2844206203E0D4E901213020D6
:1011100090476D1EEBD3F8E75A30000002FCFFFF4A
:1011200010B5436913B1AFF3008001E0FFF752F946
:10113000012010BD127800F124010A7000224A70CB
:101140000122EDE711684FF0FF32E9E710B543697E
:1011500013B1AFF3008001E0FFF7D4F9012010BD17
:10116000128800F1240182840022C2840122EDE76A
:1011700011684FF0FF32E9E770B516460C46054698
:1011800000F040F8036893F80101012806D0FF2C15
:101190000FD8185D68B101202C7070BDD3F807011D
:1011A0003246214603F2071303442846BDE8704047
:1011B00018474FF0FF3070BD754600F0EBF8AE46B3
:1011C00005006946534620F00700854618B020B553
:1011D000FFF760F8BDE820404FF000064FF0000731
:1011E0004FF000084FF0000B21F00701AC46ACE8CF
:1011F000C009ACE8C009ACE8C009ACE8C0098D463C
:101200007047000010B500F005F8001D10BD00BFCC
:10121000D11B000000487047EC0A00202DE9F04186
:101220001F46044603260168072A01F4006004DB18
:1012300008B116A505E016A503E008B115A500E064
:1012400015A521F010002060A069C01EA0610FB19B
:10125000401EA0612046FFF784F84FB1D4E9012178
:1012600038469047206A401C2062C01C206206E07D
:10127000206AFAE7D4E9012115F8010B9047761EA0
:10128000F8D22046FFF783F8BDE8F0814E414E00CA
:101290006E616E00494E4600696E66002DE9F047AA
:1012A000814616468AB0354878440DC88DE80D0051
:1012B00032487844801C03AC0DC884E80D0041F628
:1012C0009B300844372190FBF1F290FBF1F5A5F13A
:1012D000800501FB12041B3C02D56442012000E0A2
:1012E0000020DFF898A080460027FA44AAF1BE0A41
:1012F0000EE0E0070AD03246684607EB47010123BB
:101300000AEB810100F0E2FA8DE8070064107F1C0F
:10131000002CEED1194F7F44AE3F19E0E80715D0FD
:1013200007EB04100DF1180A90E80E008AE80E0091
:10133000C068F04201D1981908903246012306A9ED
:1013400003A800F0C3FA03AB83E807006D10641C28
:10135000002DE3D14FF0010332466946B8F1000F8A
:1013600003A802D000F09DFA01E000F0AFFAC9E94D
:101370000001C9F808200AB0BDE8F0876C2D000014
:1013800010B50446AFF300802046BDE81040FEF7DC
:101390006CBF000000487047CC0A002001491820AB
:1013A000ABBEFEE72600020070475FEA400C08BFB4
:1013B00091F0000F4FEA8C234FEAC12243EA5151CA
:1013C0004FEA1C5018BF00F5F0404FEA300018BF3C
:1013D00041F000415FEA6C5C00F02980BCF1FF3F06
:1013E00008BF40F080407047130C06BF12044FF056
:1013F000100C4FF0000C130E04BF12020CF1080C7D
:10140000130F04BF12010CF1040C930F04BF9200E0
:101410000CF1020CD30F04BF52000CF1010C114669
:101420004FF00002A0F11F00A0EB0C00704711F07C
:10143000004F08BF704731F000413FF4D5AF0B0CAF
:1014400006BF09044FF0100C4FF0000C0B0E04BF48
:1014500009020CF1080C0B0F04BF09010CF1040C7C
:101460008B0F04BF89000CF1020CCB0F04BF4900A5
:101470000CF1010CCCF12003A0EB0C0022FA03F3D9
:1014800002FA0CF241EA030100F10100704720F07A
:101490007F4C80EA030023F07F47ACEB070303F5A2
:1014A0007C5300F0004003F1FF032DE980494FEA2F
:1014B000154B09B44FEA144325EA0B4E24EA0348BE
:1014C0000FF2042606EB132749083E785FEA320242
:1014D00003FB0667C7F5000707FB06F64FEA54371C
:1014E0004FEAD64606F1020607FB066CCCF1005C1B
:1014F0004FEA1C472CEA074C07FB06F40CFB06F5E9
:1015000004EB15464FEA961634BF00204FF000401A
:101510004FEAD13706FB07FC4FEA1C4C0CFB0BF7DC
:10152000D21B03FB0CF761EB07010CFB0EF7B0EBD2
:10153000074072EB17420CFB08F734BFA2EB0742DF
:10154000B2EB074261EB17414FEA0C444FEA9107B7
:1015500006FB07FC4FEA1C4C0CFB0BF7B0EBC7403B
:1015600072EB573203FB0CF734BFA2EBC742B2EB6E
:10157000C74261EB57310CFB0EF7B0EBC70072EBC3
:1015800057720CFB08F734BFA2EBC702B2EBC702DD
:1015900061EB5771039F4FEA816141EA921104EBBD
:1015A000CC044FEAD1374FEA826206FB07FC42EADD
:1015B00090124FEA80604FEA1C4C0CFB0BF7D21BD9
:1015C00003FB0CF761EB07010CFB0EF7B0EB0740D8
:1015D00072EB17420CFB08F734BFA2EB0742B2EBE9
:1015E000074261EB17414FEA8C554FEA910704EB34
:1015F0009C2406FB07FC4FEA1C4C0CFB0BF7B0EBE2
:10160000C74072EB573203FB0CF734BFA2EBC74263
:10161000B2EBC74261EB57310CFB0EF7B0EBC700E2
:1016200072EB57720CFB08F734BFA2EBC702B2EBA8
:10163000C70261EB577115EB4C254FEA816141EA16
:1016400092114FEA82624FEAD13742EA901206FBCA
:1016500007FC44F100044FEA80604FEA1C4C0CFB8D
:101660000BF7D21B03FB0CF761EB07010CFB0EF72A
:10167000B0EB074072EB17420CFB08F734BFA2EB4C
:101680000742B2EB074261EB174115EB1C154FEA1D
:10169000813141EA92414FEA823242EA90424FEA76
:1016A00080304FEA0C7644F1000448EA03434EEAE6
:1016B0000B484FF0000EB2EB080C71EB030724BF90
:1016C000624639464EEB0E0E4FF0000B00185241A9
:1016D00049414BEB0B0BB2EB080C71EB03077BF1B1
:1016E000000B24BF624639464EEB0E0E4FF0000B46
:1016F0000018524149414BEB0B0BB2EB080C71EB5C
:1017000003077BF1000B24BF624639464EEB0E0EF9
:1017100051EA020718BF46F0010616EB0E7655F1A6
:10172000000254F1000103D5BDE88901BDE800883D
:10173000BDE88901BDE80048B619524141EB0101FD
:10174000A3F10103704780807F7E7D7C7B7A79786E
:10175000777676757473727171706F6E6E6D6C6C76
:101760006B6A6A6968686766666564646363626118
:101770006160605F5F5E5E5D5D5C5C5B5B5A5A5999
:101780005958585757565655555554545353525205
:101790005251515050504F4F4F4E4E4D4D4D4C4C5D
:1017A0004C4B4B4B4A4A4A494949484848474747A6
:1017B00047464646454545444444444343434342E3
:1017C000424242414141002B9C4630D477002BD00D
:1017D0001CB54FEA370703B44FF010004FF010016B
:1017E000BAF1000F06D0BCF1000FDCBF40F00800DA
:1017F00040F008014FF000000FBCBDE810400BF1B5
:10180000010BBBF1010F08BF5FEA170722BF12F1FE
:10181000010211F101014FF0004143F1000300F01A
:10182000004043EA00007047F9D35708D0E746EA82
:10183000064613F1400F4FEA16461FDD13F1200F45
:10184000DFBF16430A46002120335B42BED0C3F1FE
:10185000200746EA064602FA07F74FEA164646EA26
:101860000706C3F1200722FA03F201FA07F721FA6B
:1018700003F14FF0000342EA0702A7E746EA020637
:1018800046EA06464FEA164646EA0106BCBF46EA65
:101890000646360C4FF000034FF000024FF00001F7
:1018A00094E72DE9804C9A46934670B491E838004D
:1018B00007C831EA400C48BF34EA430C03D5FFF7B0
:1018C000E6FDFFF780FFF0BCBDE8008C2DE9804C01
:1018D0009A46934670B491E8380007C810F0804FDC
:1018E00008BF13F0804F03D100F005F8FFF76BFF3E
:1018F000F0BCBDE8008C20F07F4780EA030023F0B5
:101900007F4C07EB0C03A3F57C5300F00040A3F1E0
:10191000FE0392F0000F00F0B38095F0000F00F08E
:1019200077802DE901494FEA11404FEA144621EA38
:10193000004800FB06FC24EA064708FB06F607FB06
:1019400008F800FB07F718EB06484CEB164C4FEA7B
:10195000124B18EB07484FEA15464CEB174022EAAA
:101960000B4E0BFB06FC25EA06470EFB06F607FBB3
:101970000EFE0BFB07F71EEB064E4CEB164C4FF022
:1019800000061EEB074E4CEB174B18EB0B0840F113
:10199000000018EB0E0B58EB000840F100008F1A06
:1019A0004FF000013CBFC943661B14BFB5EB040CEC
:1019B00000213CBFC943F61B4FEA17444EEA8E0E86
:1019C00027EA04454FEA1C4704FB07622CEA074C50
:1019D00005FB07F70CFB05F604FB0CFC16EB0746B2
:1019E00042EB174216EB0C4642EB1C421BEB060681
:1019F00058EB0202414146EA9E0601D5BDE8018945
:101A0000B619524141EB0101A3F10103BDE801897F
:101A10004FEA14454FEA114724EA054621EA074CEC
:101A200005FB07F406FB07F70CFB06F105FB0CFCB6
:101A300011EB074144EB17444FEA124711EB0C41FD
:101A400044EB1C4422EA074C05FB07F206FB07F7B0
:101A50000CFB06F605FB0CFC16EB074642EB1742A7
:101A600016EB0C4642EB1C456A1854F1000148BFC6
:101A70007047B619524141EB0101A3F101037047D0
:101A800095F0000F37D04FEA11424FEA144721EA90
:101A9000024624EA074C02FB07F106FB07F70CFBA2
:101AA00006F402FB0CFC14EB074441EB17414FEA30
:101AB000154714EB0C4441EB1C4125EA074C02FB93
:101AC00007F506FB07F70CFB06F602FB0CFC16EB12
:101AD000074645EB174516EB0C4645EB1C42121921
:101AE00051F1000148BF7047B619524141EB010165
:101AF000A3F1010370474FEA14454FEA114724EA66
:101B0000054621EA074C05FB07F106FB07F70CFB2E
:101B100006F24FF0000605FB0CFC12EB074241EB0E
:101B2000174112EB0C4251EB1C4148BF7047921811
:101B300041EB0101A3F1010370472DE9F041044697
:101B40000D4616461F462A2000F0ADF9201200F07F
:101B5000A1F9E0B200F09EF9301200F09BF9F0B26A
:101B600000F098F92B2000F09EF9281200F092F96D
:101B7000E8B200F08FF9381200F08CF9F8B200F0FA
:101B800089F92C2000F08FF9BDE8F08100B50346FB
:101B900003E04FF47A7000F005F8181EA3F101037A
:101BA000F7D100BD00EBC001C9004FF0E022516148
:101BB000002191610521116100BF4FF0E021096909
:101BC00001F480310029F8D004214FF0E0221161A6
:101BD00070472DE9F0410246002500260020002331
:101BE0000024002791F803C00CF00F0591F803C002
:101BF0000CF0100CBCF1000F03D091F802C04CEABD
:101C0000050591F800C0BCF1000F31D01468002028
:101C10002BE04FF0010C0CFA00F3B1F800C00CEA15
:101C200003069E4220D183004FF00F0C0CFA03F7FD
:101C3000BC4305FA03FC4CEA040491F803C0BCF170
:101C4000280F06D14FF0010C0CFA00FCC2F814C0AA
:101C50000AE091F803C0BCF1480F05D14FF0010C28
:101C60000CFA00FCC2F810C0401C0828D1D3146044
:101C7000B1F800C0BCF1FF0F34DD546800202EE045
:101C800000F1080C4FF0010808FA0CF3B1F800C09D
:101C90000CEA03069E4221D183004FF00F0C0CFA90
:101CA00003F7BC4305FA03FC4CEA040491F803C0B3
:101CB000BCF1280F05D100F1080C08FA0CF8C2F8A5
:101CC000148091F803C0BCF1480F07D100F1080C53
:101CD0004FF0010808FA0CF8C2F81080401C0828E0
:101CE000CED35460BDE8F081016170470AB1016153
:101CF00000E04161704770B50646EF231A460021A7
:101D00000846FFF71AFF00240AE0002504E03046E9
:101D100000F0B4F8681C85B2F02DF8DB601C84B2CA
:101D2000F02CF2DB70BD000070B504460D462B466A
:101D3000224629462046FFF700FF0248008800F0AF
:101D40009DF870BD500A00202DE9F84F05460F465A
:101D500016469A46AB46354800880090E02D01DCD7
:101D6000E02F01DDBDE8F88FA6F12000C6B207F133
:101D70000F0083B2E81D82B239462846FFF7DDFE28
:101D8000BAF1000F2BD1002426E004EB06102849FD
:101D900011F800904FF0000816E009F0010018B1AA
:101DA00022490098088003E0224800881F490880E3
:101DB0001E48008800F062F84FEA6909681C85B285
:101DC00008F1010000F0FF08B8F1080FE5DB5D46FF
:101DD000781C87B2601CC4B2102CD6DB20E0002433
:101DE0001CE004EB0610124911F800904FF00008B7
:101DF0000FE009F0010030B13A1991B205EB080289
:101E000090B2FFF791FF4FEA690908F1010000F075
:101E1000FF08B8F1080FECDB601CC4B2102CE0DB4B
:101E200002490098088000BF9CE70000500A00208B
:101E3000443900084E0A002070B505460E46144687
:101E400018E0E02D03DD002506F1100086B2E02E3B
:101E500006DD0020054606464FF47840FFF74BFFAD
:101E60002278002331462846FFF76EFF05F108006F
:101E700085B2641C20780028E3D170BD10B50446FB
:101E8000012000F089F9201200F06AF9E0B200F0B8
:101E900067F910BD10B50446012000F07DF9204619
:101EA00000F05EF910BD10B50446002000F074F992
:101EB000204600F055F910BD08B50121102000F0B2
:101EC00037FB10208DF803004002ADF8000003201E
:101ED0008DF8020069460448FFF77BFE4FF400517D
:101EE0000148FFF701FF08BD0010014008B500F0F0
:101EF000DBF80121082000F01BFB40F20350ADF895
:101F0000000010208DF8030003208DF802006946C0
:101F10006448FFF75EFE40F203116248FFF7E4FEFB
:101F2000002000F043F91420FFF730FE012000F0FC
:101F30003DF91420FFF72AFE3620FFF7B4FF0020FA
:101F4000FFF7A8FF3A20FFF7AEFF0520FFF7A2FF3B
:101F5000B220FFF7A8FF0C20FFF79CFF0C20FFF733
:101F600099FF0020FFF796FF3320FFF793FF332000
:101F7000FFF790FFB720FFF796FF3520FFF78AFFA6
:101F8000BB20FFF790FF1920FFF784FFC020FFF769
:101F90008AFF2C20FFF77EFFC220FFF784FF01207D
:101FA000FFF778FFC320FFF77EFF1220FFF772FFD5
:101FB000C420FFF778FF2020FFF76CFFC620FFF753
:101FC00072FF0F20FFF766FFD020FFF76CFFA42001
:101FD000FFF760FFA120FFF75DFFE020FFF763FF41
:101FE000D020FFF757FF0420FFF754FF0D20FFF725
:101FF00051FF1120FFF74EFF1320FFF74BFF2B205F
:10200000FFF748FF3F20FFF745FF5420FFF742FF4F
:102010004C20FFF73FFF1820FFF73CFF0D20FFF794
:1020200039FF0B20FFF736FF1F20FFF733FF232078
:10203000FFF730FFE120FFF736FFD020FFF72AFF40
:102040000420FFF727FF0C20FFF724FF1120FFF7E4
:1020500021FF1320FFF71EFF2C20FFF71BFF3F205F
:10206000FFF718FF4420FFF715FF5120FFF712FF7D
:102070002F20FFF70FFF1F20FFF70CFF1F20FFF798
:1020800009FF2020FFF706FF2320FFF703FF212091
:10209000FFF709FF1120FFF706FF2920FFF703FFD5
:1020A00008BD0000000C014000B587B001210420EC
:1020B00000F03EFA0121080300F03AFA1020ADF8D2
:1020C00018008DF81B0003208DF81A0006A922487D
:1020D000FFF77FFDB020ADF8180018208DF81B0029
:1020E00003208DF81A0006A91B48FFF772FD402057
:1020F000ADF8180048208DF81B0003208DF81A0059
:1021000006A91548FFF765FD4FF48270ADF806008B
:102110003020ADF810000120ADF80C000220ADF821
:102120000A000720ADF814000020ADF80800ADF853
:102130000400ADF812004FF40070ADF80E0001A9D4
:10214000064800F089FA0121044800F06BFA0120EA
:1021500000F036F807B000BD000801400030014033
:1021600010B5044600BF02210A4800F067FA0128B2
:10217000F9D12146074800F06DFA00BF012105485A
:1021800000F05CFA0128F9D1024800F060FAC0B210
:1021900010BD00000030014010B504462246022167
:1021A0000148FFF7A3FD10BD000C014010B5044627
:1021B000224601210148FFF799FD10BD000C0140A6
:1021C00010B50446224610210148FFF78FFD10BDCF
:1021D0000008014070B5002100230F22C47804B329
:1021E000154C246804F4E064C4F5E064210AC1F1EC
:1021F0000403CA40447804FA03F18478144021436C
:1022000009010E4C0678A155047804F01F0501243D
:10221000AC4005786D11AD0005F1E025C5F8004131
:1022200009E0047804F01F050124AC40044D067851
:10223000761145F8264070BD0CED00E000E400E0AA
:1022400080E100E002490143024A1160704700004A
:102250000000FA050CED00E070B500240EE000214E
:10226000204600F0E6F8002504E0002000F050F9D8
:10227000681CC5B2802DF8DB601CC4B2082CEEDBF4
:1022800070BD000008B50121082000F051F91420AC
:102290008DF8030003208DF802004FF48070ADF834
:1022A000000069460A48FFF794FC4FF40070ADF84F
:1022B000000069460648FFF78CFC01221102044821
:1022C000FFF714FD012251020148FFF70FFD08BD81
:1022D000000C014070B50546002415E08020204127
:1022E00000EA05024FF400710E48FFF7FFFC0122DF
:1022F00011020C48FFF7FAFC00224FF480710948E4
:10230000FFF7F4FC601CC4B2082CE7DB01221102C9
:102310000448FFF7EBFC00224FF480710148FFF7FF
:10232000E5FC70BD000C014010B5012251020A48C5
:10233000FFF7DCFC012211020748FFF7D7FC00225F
:102340004FF400710448FFF7D1FC00224FF4807174
:102350000148FFF7CBFC10BD000C014010B5002276
:102360004FF400710648FFF7C1FC01221102044836
:10237000FFF7BCFC012251020148FFF7B7FC10BD7A
:10238000000C014070B5002406E0002500E06D1C43
:10239000B5F57A7FFBD3641CB4F57A7FF5D3FFF7EC
:1023A00071FFAE2000F0A4F8D52000F0A1F8802045
:1023B00000F09EF8A82000F09BF83F2000F098F86D
:1023C000D32000F095F8002000F092F8402000F0B3
:1023D0008FF8A12000F08CF8C82000F089F8DA20EE
:1023E00000F086F8122000F083F8812000F080F8D9
:1023F000CF2000F07DF8D92000F07AF8F12000F02D
:1024000077F8DB2000F074F8302000F071F8A42099
:1024100000F06EF8A62000F06BF88D2000F068F850
:10242000142000F065F8AF2000F062F8FFF714FF09
:1024300070BD70B505460C4645F0B00000F058F888
:10244000102141EA141000F053F804F00F0000F0DE
:102450004FF870BD2DE9F04105460E461746721E35
:10246000D206110E6A1E5206100EFFF7E2FF00247C
:1024700009E0A7F12001134A02EB0111085D00F009
:1024800047F8601CC4B2082CF3DB721ED206110E92
:102490006A1E012303EB4202D0B2FFF7CAFF0024F9
:1024A0000BE0A7F12001074A02EB011204F1080139
:1024B000505C00F02DF8601CC4B2082CF1DBBDE8C4
:1024C000F0810000543300082DE9F04107460E4624
:1024D0001546002407E02A5D3019C1B23846FFF7DF
:1024E000B9FF601CC4B2285D0028F4D1BDE8F081BA
:1024F00010B50446FFF718FF7820FFF7EBFE002029
:10250000FFF7E8FE2046FFF7E5FEFFF727FF10BDC7
:1025100010B50446FFF708FF7820FFF7DBFE4020E8
:10252000FFF7D8FE2046FFF7D5FEFFF717FF10BDD7
:1025300029B1064A92690243044B9A6104E0034AB6
:1025400092698243014B9A6170470000001002407B
:1025500030B500210022002400232D4D6D6805F0C8
:102560000C0121B1042905D0082923D105E0294D0A
:10257000056022E0274D05601FE0254D6D6805F4DC
:102580007012234D6D6805F48034022505EB9242EC
:102590001CB9214D554305600BE01D4D6D6805F4D8
:1025A00000351DB11C4D5543056002E0194D5543E2
:1025B000056002E0174D056000BF00BF144D6D6857
:1025C00005F0F0010909154D6B5C0568DD404560BB
:1025D0000F4D6D6805F4E061090A104D6B5C4568AC
:1025E000DD4085600A4D6D6805F46051C90A0B4DE8
:1025F0006B5C4568DD40C560054D6D6805F4404184
:10260000890B074D6B5CC568B5FBF3F5056130BD03
:102610000010024000127A0000093D00520A00201A
:10262000620A002021B1028842F04002028004E0E8
:1026300002884FF6BF731A4002807047024600209E
:1026400013890B400BB1012000E0002070470146C8
:10265000888970478181704710B50022028802F492
:1026600041520B884C8823438C882343CC882343D6
:102670000C8923434C8923438C892343CC892343EE
:102680001A430280838B4FF2FF74234083830B8AAB
:10269000038210BD00B587B001218803FFF748FF12
:1026A00001210420FFF744FF18208DF81B004FF490
:1026B0000070ADF8180003208DF81A0006A9214813
:1026C000FFF787FA48208DF81B004FF48060ADF8C3
:1026D000180003208DF81A0006A91A48FFF779FAA6
:1026E0004FF4165002900020ADF814000C20ADF805
:1026F00012000020ADF81000ADF80E00ADF80C008F
:1027000002A9114800F0ACF9012240F225510E480F
:1027100000F085F94FF4A060FFF794FD25208DF8B7
:10272000040001208DF807008DF805008DF80600E3
:1027300001A8FFF74FFD0121034800F035F907B06C
:1027400000BD000000080140003801400FB400B592
:102750009BB01DA8019002A8019A1C99FDF7ACFD41
:102760000020019002A800F013F81BB05DF814FBE4
:1027700010B504462146054800F0DFF900BF80216E
:10278000024800F01DF90028F9D010BD00380140C2
:1027900070B50446002504E0605DFFF7E9FF681CA2
:1027A000C5B2605D0028F7D170BD10B500F002F829
:1027B00010BD00000CB50020019000903348006867
:1027C00040F480303149086000BF3048006800F4B0
:1027D000003000900198401C0190009818B90198B1
:1027E000B0F5A06FF1D12948006800F4003010B1B5
:1027F0000120009001E0002000900098012843D1C2
:102800002348006840F0100021490860084600682D
:1028100020F0030008600846006840F002000860ED
:102820001A484068194948600846406848600846A8
:10283000406840F4806048600846406820F47C109E
:1028400048600846406840F4E81048600846006860
:1028500040F08070086000BF0C48006800F0007015
:102860000028F9D00948406820F003000749486073
:102870000846406840F00200486000BF03484068D6
:1028800000F00C000828F9D10CBD00000010024037
:102890000020024010B51348006840F001001149C3
:1028A000086008464068104908400E4948600846DC
:1028B00000680E4908400B4908600846006820F48B
:1028C000802008600846406820F4FE0048604FF40D
:1028D0001F008860FFF769FF4FF00060044908603F
:1028E00010BD0000001002400000FFF8FFFFF6FEE0
:1028F00008ED00E010B540F22551214800F069F8DC
:1029000001283CD11E4800F013F9C4B21D480078DC
:1029100058B9402C2DD11C48007850BB01201949D2
:10292000087000201949087023E016480078012833
:102930000FD10D2C03D102201249087019E0144860
:1029400012490978445411480078401C0F49087016
:102950000FE00C48007802280BD10A2C09D1002086
:10296000084908700A49094A127888540120064922
:10297000087040F22551024800F00CF800BF10BD6D
:10298000003801400B0000200A0000200C0000204D
:10299000680A002010B5002200230A120124944086
:1029A000A3B2DC43048010BD21B1828942F40052FD
:1029B000828104E082894DF6FF731A40828170475C
:1029C0000246002013880B400BB1012000E00020DC
:1029D000704770B502460B460024002100250020F8
:1029E000C3F3421503F01F01012606FA01F1012D80
:1029F00002D19689314006E0022D02D1168A31407B
:102A000001E0968A31401C12012606FA04F4168869
:102A1000344011B10CB1012000E0002070BDF0B5D0
:102A2000034600240026002500201846C1F3421466
:102A300001F01F06012707FA06F5012C01D10C3021
:102A400004E0022C01D1103000E014301AB1076804
:102A50002F43076002E00768AF430760F0BD000046
:102A60002DE9F04786B005460E460024A24600BF79
:102A7000A14600272F462C8A4CF6FF700440F088B0
:102A800004432C82AC894EF6F3100440B08831899F
:102A90000843718908430443AC81AC8A4FF6FF4078
:102AA0000440B0890443AC8201A8FFF751FD1F48E0
:102AB000874202D1DDF810A001E0DDF80CA0A88962
:102AC00000F4004040B10AEBCA0000EB0A10316884
:102AD0004900B0FBF1F807E00AEBCA0000EB0A106E
:102AE00031688900B0FBF1F86420B8FBF0F0040114
:102AF0002009642101FB1089A88900F4004040B13D
:102B0000322000EBC900B0FBF1F000F007000443F5
:102B100008E0322000EB09106421B0FBF1F000F076
:102B20000F0004432C8106B0BDE8F0870038014057
:102B300001468888C0F308007047C1F3080282800C
:102B40007047490050EAC12018BF04204A0D18BF41
:102B500040F0010040F2FF72B2EB515F08BF40F05D
:102B60000200012808BF0520704730380A2801D22A
:102B70000120704700207047FFF79EF9FFF702FC25
:102B8000FFF7B4F94FF6FF70FFF7B5F800203D49A5
:102B900008804FF6FF703C490880FFF77BFD00F08E
:102BA000EBF86EE03948007801286AD138A201219B
:102BB0000420FFF789FC3B4A01210420FFF784FC35
:102BC000384A21210020FFF737F937A13548FDF7B2
:102BD00085FB80B900224FF400513548FFF786F895
:102BE0002BA201210220FFF76FFC32A2012102205B
:102BF000FFF76AFC42E032A12A48FDF76FFB78B983
:102C00004FF400512A48FFF76FF821A2012102205A
:102C1000FFF75AFC2CA201210220FFF755FC2DE002
:102C20002CA12048FDF75AFBD8B92D4802784FF463
:102C300000511F48FFF75AF82948007818B90120B9
:102C40002749087002E000202549087010A20121E0
:102C50000220FFF739FC1CA201210220FFF734FCFF
:102C60000CE020A0FFF772FD09A201210220FFF76E
:102C70002BFC1EA201210220FFF726FC00200349A5
:102C800008708FE74E0A0020500A00200A0000203A
:102C90002020202020202020202020202020202034
:102CA00000000000680A00204C45445F4F4E0000C1
:102CB000001001404C45445F4F4E5F4F4B000000F9
:102CC0004C45445F4F4646004C45445F4F46465F87
:102CD0004F4B00004C45445F5475726E000000007D
:102CE00000000020E4BDA0E5A5BD00004552524F04
:102CF000525F434F4D4D414E440000002DE9F047D7
:102D000004460D461646DFF8648005F11F0C1FFAD5
:102D10008CF304F11F0C1FFA8CF2A9B2A0B2FEF7DB
:102D20000CFF08EBC6184FF000091AE0002710E06E
:102D300098F800000121B940084020B10C480088F3
:102D4000FFF79CF803E00B480088FFF797F8781C22
:102D5000C7B2082FECDB08F1010809F1010000F00F
:102D6000FF09B9F1800FE1DBBDE8F0870E0000201C
:102D7000500A00204E0A002070B54FF6FF700B4934
:102D8000088000200A490880002211460120FFF730
:102D9000B5FF012200212120FFF7B0FF0222002110
:102DA0004120FFF7ABFF0A244B2570BD4E0A0020DF
:102DB000500A002010B500290AD00878002807D052
:102DC00005487844FDF78AFA002801D0002010BD9C
:102DD0000248784410BD00008E12000086120000E8
:102DE00010B500290AD00878002807D00548784493
:102DF000FDF774FA002801D0002010BD0248784485
:102E000010BD00007E12000076120000FDF7D3BE58
:102E1000FEF708B8000000C0242CA0600000E0000D
:102E2000FC040000000000000000000000000000A2
:102E300000000000002020100906071800000320F1
:102E40007F00000000000000000000000000000003
:102E5000000000000000404008C02090AEA02020EC
:102E6000E020000000000000000000000000000062
:102E7000000000000000100E01000F0A080F206083
:102E80001F00000000000000000000000000000023
:102E90000000000000004040DA242000305014F010
:102EA00080808000000000000000000000000000A2
:102EB00000000000000804037E0101010505FF0475
:102EC00004000000000000000000000000000000FE
:102ED000000000000000C0A0986020F00000E01892
:102EE00000000000000000000000000000000000E2
:102EF000000000000010141312180C231608070617
:102F00000830202000000000000000000000000049
:102F100000000000000010101090F09E9250D008A9
:102F20000808000000000000000000000000000091
:102F3000000000000000040201300F0A02007F00C0
:102F40000000000000000000000000000000000081
:102F5000000000000000004000F02090F494905029
:102F60000000000000000000000000000000000061
:102F700000000000000444221E0304241C070A125F
:102F800022220000000000000000000000000000FD
:102F90000000000000000000F8088808F824F40C85
:102FA0000000000000000000000000000000000021
:102FB000000000000020100E11080403060C071882
:102FC0003020380000000000000000000000000079
:102FD000000000000000000040FCA0A08080907075
:102FE00010000000000000000000000000000000D1
:102FF0000000000000211907090F1410232468683D
:103000006426200000000000000000000000000016
:1030100000000000000000000000C0BC080000002C
:1030200000000000000000000000000000000000A0
:1030300000000000000010080601000001020C184A
:103040001010000000000000000000000000000060
:10305000000000000000008060904042FE40400000
:103060000000000000000000000000000000000060
:103070000000000000202021202024221F222210F6
:103080001010200000000000000000000000000000
:103090000000000000000010100888E83818080838
:1030A0000808000000000000000000000000000010
:1030B00000000000001010080402013F000001029F
:1030C000060C0000000000000000000000000000EE
:1030D00000000000000020202020A0565C5050106E
:1030E00010100000000000000000000000000000C0
:1030F000000000000000000000182A2925253D00DE
:1031000000000000000000000000000000000000BF
:10311000000000000000000848E8584E48A864007D
:10312000000000000000000000000000000000009F
:103130000000000002020242320F020202FF0201FE
:10314000010101000000000000000000000000007C
:10315000000000000000C048483808003828E8286F
:10316000988800000000000000000000000000003F
:1031700000000000000023427E02202325251F15A9
:103180001A310000000000000000000000000000F4
:103190000000000000000000F8088808F824F40C83
:1031A000000000000000000000000000000000001F
:1031B000000000000020100E11080403060C071880
:1031C0003020380000000000000000000000000077
:1031D000000000000000C04040E040C03A4C2060C9
:1031E000202000000000000000000000000000009F
:1031F0000000000000000702232111080707081043
:10320000202000000000000000000000000000007E
:1032100000000000000000407AA48080F8A0FE506A
:10322000701000000000000000000000000000001E
:1032300000000000000404223F0023120F02FF01DF
:10324000090D030000000000000000000000000065
:1032500000000000080808F8000000000000000F4F
:103260000808080000000000000000000000000046
:103270000000000000202028E800000000080808E6
:103280000F0808000000000000000000000000001F
:103290000000000000E0000000E0E00000070C0873
:1032A000080F030000000000000000000000000004
:1032B00000000000002060808060200000080603FD
:1032C000030C0800000000000000000000000000E7
:1032D0000000000000E0000000E0E00000070C0833
:1032E000080F0300000000000000000000000000C4
:1032F0000000000000E0402020E0C000000F0000BF
:10330000000F0F000000000000000000000000009F
:103310000000000000202020A060000000080E0B2C
:103320000908080000000000000000000000000084
:103330000000000000202028E80000000008080825
:103340000F0808000000000000000000000000005E
:10335000000000000000000000000000000000006D
:1033600000000000000000F8000000000000003332
:103370003000000000100C06100C060000000000D9
:103380000000000040C07840C0784000043F0404C2
:103390003F040400007088FC08300000001820FF83
:1033A000211E0000F008F000E018000000211C03BE
:1033B0001E211E0000F00888700000001E2123243A
:1033C0001927211010160E00000000000000000058
:1033D00000000000000000E01804020000000007E8
:1033E0001820400000020418E000000000402018EF
:1033F00007000000404080F0804040000202010FC2
:1034000001020200000000F0000000000101011FA5
:1034100001010100000000000000000080B0700009
:103420000000000000000000000000000001010199
:103430000101010100000000000000000030300028
:103440000000000000000000806018040060180602
:103450000100000000E010080810E000000F10203C
:1034600020100F00001010F8000000000020203F86
:103470002020000000700808088870000030282410
:1034800022213000003008888848300000182020B1
:1034900020110E000000C02010F8000000070424D6
:1034A000243F240000F8088888080800001921201B
:1034B00020110E0000E0108888180000000F112075
:1034C00020110E0000380808C83808000000003F2E
:1034D000000000000070880808887000001C22218D
:1034E00021221C0000E010080810E000000031223A
:1034F00022110F00000000C0C000000000000030DA
:10350000300000000000008000000000000080602B
:1035100000000000000080402010080000010204AC
:103520000810200040404040404040000404040493
:10353000040404000008102040800000002010084F
:1035400004020100007048080808F0000000003084
:1035500036010000C030C828E810E0000718272412
:1035600023140B000000C038E0000000203C2302C0
:103570000227382008F8888888700000203F202023
:1035800020110E00C0300808080838000718202055
:103590002010080008F808080810E000203F20204C
:1035A00020100F0008F88888E8081000203F20202D
:1035B0002320180008F88888E8081000203F200021
:1035C00003000000C0300808083800000718202059
:1035D000221E020008F808000008F808203F210118
:1035E00001213F20000808F8080800000020203FC3
:1035F0002020000000000808F8080800C080808033
:103600007F00000008F888C028180800203F20012B
:103610002638200008F8080000000000203F202085
:103620002020300008F8F800F8F80800203F003F9C
:10363000003F200008F830C00008F808203F2000B4
:1036400007183F00E01008080810E0000F102020C5
:1036500020100F0008F808080808F000203F21019A
:1036600001010000E01008080810E0000F182424F1
:1036700038504F0008F8888888887000203F200064
:10368000030C30200070880808083800003820211A
:1036900021221C00180808F8080818000000203F24
:1036A0002000000008F808000008F808001F20208B
:1036B00020201F000878880000C83808000007385C
:1036C0000E010000F80800F80008F800033C0700AD
:1036D000073C0300081868808068180820302C0315
:1036E000032C30200838C800C83808000000203FEC
:1036F0002000000010080808C838080020382621DB
:1037000020201800000000FE020202000000007FDE
:1037100040404000000C30C00000000000000001EC
:103720000638C00000020202FE00000000404040D7
:103730007F000000000004020202040000000000FC
:103740000000000000000000000000008080808079
:103750008080808000020204000000000000000061
:1037600000000000000080808080000000192422FA
:1037700022223F2008F8008080000000003F112036
:1037800020110E000000008080800000000E11203B
:1037900020201100000000808088F800000E112019
:1037A00020103F200000808080800000001F222227
:1037B00022221300008080F0888888180020203F93
:1037C000202000000000808080808000006B9494A6
:1037D0009493600008F8008080800000203F210062
:1037E00000203F2000809898000000000020203F2B
:1037F00020200000000000809898000000C0808019
:10380000807F000008F8000080808000203F2402B4
:103810002D302000000808F8000000000020203FA4
:10382000202000008080808080808000203F200059
:103830003F20003F8080008080800000203F2100EA
:1038400000203F200000808080800000001F20209A
:1038500020201F00808000808000000080FFA120C9
:1038600020110E000000008080808000000E1120DA
:1038700020A0FF80808080008080800020203F2169
:10388000200001000000808080808000003324241C
:1038900024241900008080E0808000000000001FC8
:1038A000202000008080000000808000001F202079
:1038B00020103F20808080000080808000010E303A
:1038C0000806010080800080008080800F300C039B
:1038D0000C300F0000808000808080000020312E9E
:1038E0000E312000808080000080808080818E707A
:1038F0001806010000808080808080000021302C2C
:103900002221300000000000807C02020000000044
:10391000003F404000000000FF00000000000000E9
:10392000FF0000000002027C800000000040403FD9
:103930000000000000060101020204040000000073
:103940000000000000000000000000000000000077
:10395000000000000000000808080808080800002F
:103960001818000000486C2412000000000000003D
:10397000000000000000002424247F1212127F1295
:10398000121200000000081C2A2A0A0C1828282AF3
:103990002A1C080800000022251515152A58545421
:1039A000542200000000000C1212120A7625291180
:1039B000916E0000000606040300000000000000F5
:1039C0000000000000402010100808080808081037
:1039D00010204000000204080810101010101008F9
:1039E000080402000000000008086B1C1C6B08089B
:1039F0000000000000000000080808087F08080810
:103A000008000000000000000000000000000000AE
:103A1000060604030000000000000000FE00000095
:103A20000000000000000000000000000000000096
:103A30000606000000008040402020101008080406
:103A40000402020000000018244242424242424264
:103A500024180000000000080E08080808080808DC
:103A6000083E00000000003C4242422020100804B2
:103A7000427E00000000003C4242201820404042AC
:103A8000221C0000000000203028242422227E2056
:103A9000207800000000007E0202021A2640404208
:103AA000221C0000000000382402021A2642424272
:103AB000241800000000007E2222101008080808C8
:103AC000080800000000003C424242241824424200
:103AD000423C00000000001824424242645840402A
:103AE000241C000000000000000018180000000066
:103AF000181800000000000000000008000000008E
:103B00000008080400000040201008040204081007
:103B1000204000000000000000007F0000007F0047
:103B200000000000000000020408102040201008DF
:103B3000040200000000003C4242464020101000F9
:103B4000181800000000001C225A555555552D42EA
:103B5000221C00000000000808181414243C224213
:103B600042E700000000001F2222221E22424242A1
:103B7000221F00000000007C4242010101010142BD
:103B8000221C00000000001F2242424242424242E8
:103B9000221F00000000003F4212121E12120242B9
:103BA000423F00000000003F4212121E12120202A9
:103BB000020700000000003C2222010101712122C5
:103BC000221C0000000000E7424242427E42424284
:103BD00042E700000000003E08080808080808083E
:103BE000083E00000000007C101010101010101093
:103BF0001010110F0000007722120A0E0A12122272
:103C00002277000000000007020202020202020204
:103C1000427F000000000077363636362A2A2A2AEC
:103C20002A6B0000000000E346464A4A52525262A4
:103C3000624700000000001C2241414141414141D6
:103C4000221C00000000003F424242423E020202AB
:103C5000020700000000001C2241414141414D5338
:103C6000321C60000000003F4242423E12122222FB
:103C700042C700000000007C42420204182040427B
:103C8000423E00000000007F4908080808080808B4
:103C9000081C0000000000E7424242424242424209
:103CA000423C0000000000E7424222242414141881
:103CB000080800000000006B494949495555362263
:103CC00022220000000000E74224241818182424AF
:103CD00042E70000000000772222141408080808B8
:103CE000081C00000000007E21201010080404427F
:103CF000423F00000078080808080808080808087B
:103D000008087800000002020404080808101020C7
:103D100020204040001E1010101010101010101025
:103D200010101E00003844000000000000000000D9
:103D30000000000000000000000000000000000083
:103D4000000000FF00060800000000000000000066
:103D500000000000000000000000003C42784442E7
:103D600042FC0000000000030202021A2642424206
:103D7000261A000000000000000000384402020281
:103D80004438000000000060404040784442424215
:103D900064D80000000000000000003C427E0202E7
:103DA000423C0000000000F08808087E080808086F
:103DB000083E0000000000000000007C22221C02DF
:103DC0003C42423C000000030202023A46424242A8
:103DD00042E700000000000C0C00000E0808080874
:103DE000083E000000000030300000382020202075
:103DF0002020221E0000000302020272120A161284
:103E0000227700000000000E0808080808080808CB
:103E1000083E0000000000000000007F9292929295
:103E200092B70000000000000000003B4642424202
:103E300042E70000000000000000003C4242424215
:103E4000423C0000000000000000001B26424242ED
:103E5000221E020700000000000000784442424297
:103E6000447840E000000000000000774C040404A7
:103E7000041F0000000000000000007C42023C40E3
:103E8000423E0000000000000008083E0808080844
:103E9000083000000000000000000063424242427F
:103EA00062DC000000000000000000E7422424144F
:103EB0000808000000000000000000EB49495555CB
:103EC00022220000000000000000007624181818CC
:103ED000246E000000000000000000E742242414CB
:103EE00018080807000000000000007E22100808E3
:103EF000447E000000C02020202020102020202010
:103F00002020C000101010101010101010101010F1
:103F10001010101000060808080808100808080803
:103F2000080806000C32C20000000000000000007B
:103F300000000000000000000000000030313233BB
:103F400034353637383941424344454640305800CD
:103F500030313233343536373839616263646566FF
:103F6000403078000400000800000000000000025B
:103F700000010000103031323334353637383961C2
:103F800062636465667870003031323334353637B9
:103F90003839414243444546585000000240000031
:103FA000000000A00000000005400000000000C864
:103FB000000000000C4000000000409C00000000D9
:103FC000194000000020BCBE00000000344000008A
:103FD000BFC91B8E00000004B5400000504BCFD07D
:103FE0006607E2CF010000006C4100003E8251AA4A
:103FF000DFEEA73401000000D9420000DCB5A0E2EA
:104000003A301F97FFFFFFFFB4450000FD25A0C811
:10401000E9A3C14FFFFFFFFFFF3F0000000000804A
:1040200000000000FF3F00000000008000000000D2
:104030007C41000800000020680A00002C010008F4
:1040400024470008680A0020C8060000880100080C
:104050001C00000043000000F8FFFFFF0C00000000
:104060000E0000000F0000002E00000010010000F4
:1040700043000000F8FFFFFF004040404040404048
:10408000404041414141414040404040404040402B
:1040900040404040404040404005020202020202CF
:1040A000020202020202020202202020202020201E
:1040B0002020200202020202020290909090909032
:1040C00010101010101010101010101010101010F0
:1040D0001010101002020202020288888888888864
:1040E0000808080808080808080808080808080850
:1040F0000808080802020202400000000000000058
:1041000000000000000000000000000000000000AF
:10411000000000000000000000000000000000009F
:10412000000000000000000000000000000000008F
:10413000000000000000000000000000000000007F
:10414000000000000000000000000000000000006F
:10415000000000000000000000000000000000005F
:10416000000000000000000000000000000000004F
:104170000000000000000000000000002116B63C16
:104180009D2B8C022692120E1A070439021EF0FF94
:10419000190EF804157860180E19041BC070041E5F
:1041A00031180E803B101A1F044A0E0813C03F142A
:1041B0000EF873140EFEE0260F7E809D0F23F80785
:1041C00023F0030232C01380011470C0011009F003
:1041D000C00104E0E3FF0F1AE7041230120F123897
:1041E00010120E1EEC3F0EFEE1380EFC63380C1070
:1041F000E03F0C1460300C1468380E1808E63F0ECF
:10420000C0E7180E72170FF001800F701AFE8003BE
:1042100034F8011C800338041A7804127C101480CE
:10422000C3FF0FF0CFFF0FF81FC3019803C7018032
:1042300003C6180EC0E7FF7FE0EFFF7FF033383C86
:10424000BC2C1A9E241A8EA84938C90411031A01DD
:10425000182AC0045A030419AB1AE00823E0062305
:10426000700C1A78381A3840231C70140EE00114B0
:10427000EEC1031808C7C3078083871F2B33FF6075
:104280001238120E240CF03F337F3C321C9A0E047D
:104290001A07C9290499600121227C14E7FF011B38
:1042A0003EF04369044AE0041A0C72238C631BFC41
:1042B000670C291059046920390422F61BFEFF08F7
:1042C00022F81A06B8116904012019E0111AF00445
:1042D0001A783810161C06800F1E1EFC1F381E3858
:1042E000CE380738CEB9033886FB14388733100C24
:1042F0003807307CF807F0FF38E07F3430FC306955
:1043000004A96C6904194C3904323F323E02171C6F
:104310009A0F0422072380FB14C0FF0113C07014FE
:1043200080673814FC0F1C101D1807EC031807FFDA
:104330000738F387073873DE03F877CE017860CE4D
:10434000013060CE381F60FE7F80FF1F671904397F
:104350006C1A73441AE34413E10114E0C0031470AF
:10436000C01F04221C807F1A38AF22F013FF701B7D
:10437000E07BC01A38041A1C041A0E881A07081A9F
:104380006704143E7003141E730E18150E733E80DE
:104390008F737CC0CD7378F0CC71707CCE71703C23
:1043A00028292C69041CC00F73381A7ED3327C3242
:1043B00078021630326019A749040A15010413F176
:1043C000031CC0FF0303119B80CF181AE03439048B
:1043D00022061B700E041A1CB81A3C0419701A1C11
:1043E000CC10090EF0038003E00FC0031EC07F193C
:1043F000A423F0FF337F381944230F1E2A3C504A70
:104400000760299C1AF00C1A78181A1C2C480C0FFB
:10441000F803C0C3E37F78C0C11F8C223F2AFC048D
:10442000E9B82FFF07F0FFFF0F3F0122326013FEB4
:10443000011AFFE51A7E75140EE0011B1CE07029BD
:10444000044A70041ADCA41AF84D72184A0CAF1111
:104450001A3CEC1A1E301A0E38180807C0078003E1
:10446000800F7F1A0F3A1A0FD22A0627011A192233
:104470001A03041B07DC04100AFE038003C6018034
:104480000DE314C0BD7F14C01C38180CE00C9C0355
:10449000700EFE07F0E70F28100E8F018083870350
:1044A00080C1C101E0EFE314E0733F24E0801F23EB
:1044B000D87D10106FDE01E031BF07FC803B3F3C30
:1044C000E0307E3370302904195C11323F5A1EB13E
:1044D00001132A061F1380033C1EC007C4230E7855
:1044E0001A0E301B063B0419401A36041A770410C2
:1044F0000B73F81FE03FFE01FCFB3F14803B1814D8
:104500008039381B801D041B1F7CEA1AFC4413CC25
:104510000120113FCE03803B8707C0F1030FE0C0AD
:10452000013F70031DFE1819C01AF8DC1BC00104FE
:1045300013E1031FC0BF07C0FF813C169D0160DC73
:10454000011470D80E1B700742327E1A70281AF8B8
:10455000301A1C0823FE0313C3011B80F10C2378BF
:104560003C180EDEF10380E7EE7FE0F83F07307C79
:10457000101B701CFB19041A1CF423CE0E1B870F92
:1045800063021F0719F423C03F1AFF401A0C3C11A5
:1045900019041A07041A0E401A1C041A38041A7057
:1045A000442AE00419805AC00429101AF01C2988F2
:1045B000233C7C10090FF801C003F007601AE04D9E
:1045C0001A8004011829644A3E231AF0481BD801B6
:1045D0000C290413F13F6EF8FF3FF89F101AFD03FA
:1045E00013E7011B87E10422E723F6F74B8E7104E2
:1045F0001AEC3C6ABC28221F1AF804390C2904134F
:10460000E1034EF0FF07E07F0F011132E039C419DA
:104610001D7904192D23FC0F1BFE390C22791ACEAB
:104620000823DE1D1ADCE414C0F10717E0FF0FF0C9
:10463000FF011AC05B111AF0141AF82C2AF820296D
:104640002C22F1280DC7E10380C3C11FE0C0017F08
:1046500030506AE058296C811BF010012AFF0502D6
:1046600015F01B0F04012AFF05195E0111180940FE
:1046700040405F55555575041A5F0C091121080C0F
:1046800011200F094989790909090F201F112FFEEF
:1046900002424ACA4A0304134202FE000E14FF40BB
:1046A000504C4340404F50505C40FF1BF888012A5B
:1046B000FF050215F81B1F08012A7F200B109F80A1
:1046C000E23B808201000916E2A2928A8682808003
:1046D000041840807F172424A4FEA3221B22CCAA06
:1046E000011415080601FF2B0104010511FF020248
:1046F000025808101010FF109008C3021108080F8C
:10470000150444827F01808040432C10284681A0FC
:10471000312D0102030404180806070809020406E3
:04472000490000004C
:04000005080000F1FE
:00000001FF
