:020000040800F2
:1000000018110020CD010008D5010008D701000813
:10001000D9010008DB010008DD0100080000000034
:10002000000000000000000000000000DF010008E8
:10003000E101000800000000E3010008E5010008FC
:10004000E7010008E7010008E7010008E7010008F0
:10005000E7010008E7010008E7010008E7010008E0
:10006000E7010008E7010008E7010008E7010008D0
:10007000E7010008E7010008E7010008E7010008C0
:10008000E7010008E7010008E7010008E7010008B0
:10009000E7010008E7010008E7010008E7010008A0
:1000A000E7010008E7010008E7010008E701000890
:1000B000E7010008E7010008E7010008E701000880
:1000C000E7010008E7010008E7010008E701000870
:1000D000E7010008090E0008E7010008E701000831
:1000E000E7010008E7010008E7010008E701000850
:1000F00000F002F800F05AF80AA090E8000C8244E0
:100100008344AAF10107DA4501D100F04FF8AFF2BC
:10011000090EBAE80F0013F0010F18BFFB1A43F0E5
:1001200001031847F42D0000142E00000A444FF07C
:10013000000C10F8013B13F0070408BF10F8014B46
:100140001D1108BF10F8015B641E05D010F8016B8B
:10015000641E01F8016BF9D113F0080F1EBF10F8EF
:10016000014BAD1C0C1B09D16D1E58BF01F801CB12
:10017000FAD505E014F8016B01F8016B6D1EF9D595
:100180009142D6D3704700000023002400250026AA
:10019000103A28BF78C1FBD8520728BF30C148BFEA
:1001A0000B6070471FB51FBD10B510BD00F031F8D2
:1001B0001146FFF7F7FF00F0ADFE00F04FF803B473
:1001C000FFF7F2FF03BC00F057F800000948804732
:1001D00009480047FEE7FEE7FEE7FEE7FEE7FEE729
:1001E000FEE7FEE7FEE7FEE704480549054A064B41
:1001F00070470000A90D0008F1000008180B00204E
:1002000018110020180D0020180D002070477047AD
:100210007047754600F02CF8AE4605006946534617
:1002200020F00700854618B020B5FFF7DDFFBDE8D8
:1002300020404FF000064FF000074FF000084FF04D
:10024000000B21F00701AC46ACE8C009ACE8C009DE
:10025000ACE8C009ACE8C0098D46704710B504464B
:10026000AFF300802046BDE81040FFF7A8BF0000B4
:1002700000487047B80A002001491820ABBEFEE7CD
:100280002600020070472DE9F04104460D4616464F
:100290001F462A2000F0D2F9201200F0C6F9E0B281
:1002A00000F0C3F9301200F0C0F9F0B200F0BDF96F
:1002B0002B2000F0C3F9281200F0B7F9E8B200F0E3
:1002C000B4F9381200F0B1F9F8B200F0AEF92C2010
:1002D00000F0B4F9BDE8F08100B5034603E04FF447
:1002E0007A7000F005F8181EA3F10103F7D100BDE4
:1002F00000EBC001C9004FF0E02251610021916183
:100300000521116100BF4FF0E021096901F480313E
:100310000029F8D004214FF0E022116170472DE947
:10032000F04102460025002600200023002400277B
:1003300091F803C00CF00F0591F803C00CF0100CFD
:10034000BCF1000F03D091F802C04CEA050591F80A
:1003500000C0BCF1000F31D0146800202BE04FF03A
:10036000010C0CFA00F3B1F800C00CEA03069E423F
:1003700020D183004FF00F0C0CFA03F7BC4305FAB1
:1003800003FC4CEA040491F803C0BCF1280F06D129
:100390004FF0010C0CFA00FCC2F814C00AE091F80E
:1003A00003C0BCF1480F05D14FF0010C0CFA00FC62
:1003B000C2F810C0401C0828D1D31460B1F800C0A6
:1003C000BCF1FF0F34DD546800202EE000F1080C72
:1003D0004FF0010808FA0CF3B1F800C00CEA03066C
:1003E0009E4221D183004FF00F0C0CFA03F7BC435F
:1003F00005FA03FC4CEA040491F803C0BCF1280F91
:1004000005D100F1080C08FA0CF8C2F8148091F834
:1004100003C0BCF1480F07D100F1080C4FF00108F0
:1004200008FA0CF8C2F81080401C0828CED354609B
:10043000BDE8F0810246002093680B400BB101201B
:1004400000E000207047016170470AB1016100E0DF
:100450004161704770B50646EF231A4600210846F1
:10046000FFF711FF00240AE0002504E0304600F009
:10047000D0F8681C85B2F02DF8DB601C84B2F02C3B
:10048000F2DB70BD70B504460D462B462246294668
:100490002046FFF7F8FE0248008800F0BAF870BD69
:1004A000500A00202DE9F84F05460F4616469A4699
:1004B000AB46354800880090E02D01DCE02F01DDDF
:1004C000BDE8F88FA6F12000C6B207F10F0083B295
:1004D000E81D82B239462846FFF7D5FEBAF1000F73
:1004E0002BD1002426E004EB0610284911F80090D7
:1004F0004FF0000816E009F0010018B122490098F9
:10050000088003E0224800881F4908801E480088B0
:1005100000F07FF84FEA6909681C85B208F1010014
:1005200000F0FF08B8F1080FE5DB5D46781C87B2E4
:10053000601CC4B2102CD6DB20E000241CE004EBCD
:100540000610124911F800904FF000080FE009F072
:10055000010030B13A1991B205EB080290B2FFF7F1
:1005600091FF4FEA690908F1010000F0FF08B8F1B6
:10057000080FECDB601CC4B2102CE0DB02490098D1
:10058000088000BF9CE70000500A002028290008CE
:100590004E0A00202DE9F0470646894617461D46BB
:1005A0004FF0000ABFB200242FE0281B401EC1B24A
:1005B0000A2000F03DFDB7FBF0F00A21B0FBF1F29C
:1005C00001FB1208BAF1000F11D1681EA0420EDD26
:1005D000B8F1000F09D1082101FB046188B20023A2
:1005E00020224946FFF75EFF0DE04FF0010A08F1B7
:1005F0003001CAB2082101FB046188B200234946D8
:10060000FFF750FF00BF601CC4B2AC42CDDBBDE8B9
:10061000F08710B50446012000F054F9201200F0D4
:1006200035F9E0B200F032F910BD10B504460120F2
:1006300000F048F9204600F029F910BD10B5044635
:10064000002000F03FF9204600F020F910BD000026
:1006500008B50121102000F023FB10208DF80300C5
:100660004002ADF8000003208DF8020069460448FE
:10067000FFF755FE4FF400510148FFF7E4FE08BDB7
:100680000010014008B500F0DBF80121082000F05F
:1006900007FB40F20350ADF8000010208DF8030076
:1006A00003208DF8020069466448FFF738FE40F2E7
:1006B00003116248FFF7C7FE002000F01FF9142065
:1006C000FFF70AFE012000F019F91420FFF704FEDD
:1006D0003620FFF7B3FF0020FFF7A7FF3A20FFF710
:1006E000ADFF0520FFF7A1FFB220FFF7A7FF0C2009
:1006F000FFF79BFF0C20FFF798FF0020FFF795FF07
:100700003320FFF792FF3320FFF78FFFB720FFF76B
:1007100095FF3520FFF789FFBB20FFF78FFF1920DA
:10072000FFF783FFC020FFF789FF2C20FFF77DFF35
:10073000C220FFF783FF0120FFF777FFC320FFF7F9
:100740007DFF1220FFF771FFC420FFF777FF202005
:10075000FFF76BFFC620FFF771FF0F20FFF765FF64
:10076000D020FFF76BFFA420FFF75FFFA120FFF76A
:100770005CFFE020FFF762FFD020FFF756FF042068
:10078000FFF753FF0D20FFF750FF1120FFF74DFF3C
:100790001320FFF74AFF2B20FFF747FF3F20FFF70B
:1007A00044FF5420FFF741FF4C20FFF73EFF182085
:1007B000FFF73BFF0D20FFF738FF0B20FFF735FF5A
:1007C0001F20FFF732FF2320FFF72FFFE120FFF765
:1007D00035FFD020FFF729FF0420FFF726FF0C206C
:1007E000FFF723FF1120FFF720FF1320FFF71DFF66
:1007F0002C20FFF71AFF3F20FFF717FF4420FFF7D9
:1008000014FF5120FFF711FF2F20FFF70EFF1F20CD
:10081000FFF70BFF1F20FFF708FF2020FFF705FF62
:100820002320FFF702FF2120FFF708FF1120FFF729
:1008300005FF2920FFF702FF08BD0000000C014062
:1008400008B50121042000F02BFAB020ADF800001B
:1008500010208DF8030003208DF8020069460A4835
:10086000FFF75DFD4020ADF8000048208DF8030043
:1008700003208DF8020069460348FFF750FD012070
:1008800000F046F808BD00000008014070B50446BD
:10089000002513E0002000F03BF804F0800000F099
:1008A00023F86006040E012000F032F800F014F87E
:1008B000012801D144F00104681CC5B2082DE9DB10
:1008C000204670BD10B50446224602210148FFF7BC
:1008D000BCFD10BD000C014010B540210148FFF7E0
:1008E000A9FD10BD000C014010B504462246802130
:1008F0000148FFF7AAFD10BD0008014010B50446ED
:10090000224601210148FFF7A0FD10BD000C014067
:1009100010B50446224620210148FFF796FD10BD80
:100920000008014070B500240EE00021204600F0D0
:10093000E6F8002504E0002000F0A1F9681CC5B22B
:10094000802DF8DB601CC4B2082CEEDB70BD00000B
:1009500008B50121082000F0A3F914208DF8030048
:1009600003208DF802004FF48070ADF80000694656
:100970000A48FFF7D4FC4FF40070ADF80000694658
:100980000648FFF7CCFC012211020448FFF75DFD89
:10099000012251020148FFF758FD08BD000C01403B
:1009A00070B50546002415E08020204100EA0502CC
:1009B0004FF400710E48FFF748FD012211020C4868
:1009C000FFF743FD00224FF480710948FFF73DFD1A
:1009D000601CC4B2082CE7DB012211020448FFF7B7
:1009E00034FD00224FF480710148FFF72EFD70BDE9
:1009F000000C014010B5012251020A48FFF725FD05
:100A0000012211020748FFF720FD00224FF4007178
:100A10000448FFF71AFD00224FF480710148FFF7E8
:100A200014FD10BD000C014010B500224FF4007100
:100A30000648FFF70AFD012211020448FFF705FDF1
:100A4000012251020148FFF700FD10BD000C0140DA
:100A500070B5002406E0002500E06D1CB5F57A7F36
:100A6000FBD3641CB4F57A7FF5D3FFF771FFAE209A
:100A700000F0F5F8D52000F0F2F8802000F0EFF853
:100A8000A82000F0ECF83F2000F0E9F8D32000F0B7
:100A9000E6F8002000F0E3F8402000F0E0F8A120A4
:100AA00000F0DDF8C82000F0DAF8DA2000F0D7F81E
:100AB000122000F0D4F8812000F0D1F8CF2000F00F
:100AC000CEF8D92000F0CBF8F12000F0C8F8DB20F8
:100AD00000F0C5F8302000F0C2F8A42000F0BFF804
:100AE000A62000F0BCF88D2000F0B9F8142000F02A
:100AF000B6F8AF2000F0B3F8FFF714FF70BD70B583
:100B000005460C4645F0B00000F0A9F8102141EA76
:100B1000141000F0A4F804F00F0000F0A0F870BD6D
:100B20002DE9F04105460E461746721ED206110EFB
:100B30006A1E5206100EFFF7E2FF002409E0A7F13B
:100B40002001134A02EB0111085D00F098F8601CC7
:100B5000C4B2082CF3DB721ED206110E6A1E0123EA
:100B600003EB4202D0B2FFF7CAFF00240BE0A7F16B
:100B70002001074A02EB011204F10801505C00F069
:100B80007EF8601CC4B2082CF1DBBDE8F0810000E7
:100B9000382300082DE9F04105460E461746721E1F
:100BA0001207110E6A1E5206100EFFF7A8FF00244E
:100BB00007E0124A02EB8711085D00F060F8601C44
:100BC000C4B2102CF5DB721E1207110E6A1E01232F
:100BD00003EB4202D0B2FFF792FF002409E0790054
:100BE000491C064A02EB4111085D00F048F8601C00
:100BF000C4B2102CF3DBBDE8F0810000F81D000842
:100C00002DE9F04780460E4614461F464FF0000976
:100C100025460BE04846421C02F0FF093044C1B2B1
:100C20002A464046FFF7B6FF681CC5B2E019A84245
:100C3000F0DCBDE8F0872DE9F04107460E46154689
:100C4000002407E02A5D3019C1B23846FFF768FF7B
:100C5000601CC4B2285D0028F4D1BDE8F08110B555
:100C60000446FFF7C7FE7820FFF79AFE0020FFF743
:100C700097FE2046FFF794FEFFF7D6FE10BD10B595
:100C80000446FFF7B7FE7820FFF78AFE4020FFF703
:100C900087FE2046FFF784FEFFF7C6FE10BD00006A
:100CA00029B1064A92690243044B9A6104E0034A5F
:100CB00092698243014B9A61704700000010024024
:100CC00010B500F001F810BD0CB5002001900090A7
:100CD0003348006840F480303149086000BF304834
:100CE000006800F4003000900198401C01900098CA
:100CF00018B90198B0F5A06FF1D12948006800F447
:100D0000003010B10120009001E000200090009818
:100D1000012843D12348006840F0100021490860B1
:100D20000846006820F0030008600846006840F0AC
:100D3000020008601A48406819494860084640683F
:100D400048600846406840F4806048600846406853
:100D500020F47C1048600846406840F4E810486081
:100D60000846006840F08070086000BF0C480068CA
:100D700000F000700028F9D00948406820F0030016
:100D8000074948600846406840F00200486000BFDC
:100D90000348406800F00C000828F9D10CBD0000A1
:100DA000001002400020024010B51348006840F0D7
:100DB00001001149086008464068104908400E4982
:100DC0004860084600680E4908400B49086008461C
:100DD000006820F4802008600846406820F4FE0087
:100DE00048604FF41F008860FFF76AFF4FF0006013
:100DF0000449086010BD0000001002400000FFF828
:100E0000FFFFF6FE08ED00E010B540F22551214845
:100E100000F054F801283CD11E4800F075F8C4B227
:100E20001D48007858B9402C2DD11C48007850BB83
:100E300001201949087000201949087023E016485C
:100E4000007801280FD10D2C03D10220124908701F
:100E500019E0144812490978445411480078401C9C
:100E60000F4908700FE00C48007802280BD10A2CBB
:100E700009D10020084908700A49094A12788854A3
:100E800001200649087040F22551024800F00CF894
:100E900000BF10BD003801400B0000200A000020F8
:100EA0000C000020540A002010B5002200230A1272
:100EB00001249440A3B2DC43048010BD70B5024607
:100EC0000B460024002100250020C3F3421503F047
:100ED0001F01012606FA01F1012D02D19689314048
:100EE00006E0022D02D1168A314001E0968A314097
:100EF0001C12012606FA04F41688344011B10CB114
:100F0000012000E0002070BD01468888C0F3080081
:100F100070470000FFF79CFBFFF79AFDFFF7B2FB5D
:100F20004FF6FF70FFF796FA00203B4908804FF616
:100F3000FF703A49088000F001F939A20121084602
:100F4000FFF779FE0323002205210120FFF758FE59
:100F50000523032201210220FFF752FE0523082268
:100F600001210320FFF74CFE04230D220121184626
:100F7000FFF746FE00F0A6F84CE001232B4802786C
:100F80000021A020FFF706FB2848007818B90720A9
:100F90002649087002E000202449087023480078A0
:100FA000C01CC2B22121012000F04EF81F48007879
:100FB000001DC2B22121084600F046F81B48007807
:100FC000401DC2B22121412000F03EF817480078B0
:100FD000801DC2B22121612000F036F8134800784C
:100FE000C01DC2B22121812000F02EF80F480078E8
:100FF0000830C2B22121A12000F026F80B48007869
:101000000930C2B22121C12000F01EF84FF47A70DD
:10101000FFF762F9B1E700004E0A0020500A0020F5
:101020006C697578756E7A69000000000000002018
:1010300010B50246012000E050430B1EA1F101044F
:10104000E1B2F9D110BD00002DE9F04704460D468C
:101050001646DFF8648005F11F0C1FFA8CF304F1CB
:101060001F0C1FFA8CF2A9B2A0B2FFF70CF908EB23
:10107000C6184FF000091AE0002710E098F80000A9
:101080000121B940084020B10C480088FFF7C1FA9F
:1010900003E00B480088FFF7BCFA781CC7B2082FA2
:1010A000ECDB08F1010809F1010000F0FF09B9F1DA
:1010B000800FE1DBBDE8F0870E000020500A002021
:1010C0004E0A00202DE9F04102262BE0002526E003
:1010D00006EB8607FF002737BBB205EB8507FF004D
:1010E0002737BAB206EB8607FF04390C05EB8507F4
:1010F000FF04380CFFF7C7F800240CE0012101EBD6
:1011000044010C4A505CFFF790FA0A4911F81400A8
:10111000FFF78BFA641CB4F5C86FEFDB6D1C062D6E
:10112000D6DB761C062ED1DB002003490870BDE813
:10113000F0810000781100080100002070B54FF622
:10114000FF700B49088000200A49088000221146E0
:101150000120FFF779FF012200212120FFF774FF12
:10116000022200214120FFF76FFF0A244B2570BDAA
:101170004E0A0020500A0020FFFFFFFFFFFFFFFF85
:10118000FFFFFFFFFFFFFFFFFFFFFFFFFFFFFFFF6F
:10119000FFFFFFFFBEF77DEFBAD6B6B5F39CB29462
:1011A000B39CB29434A5F7BDFBDE7DEFFFFFFFFFDC
:1011B000FFFFFFFFFFFFFFFFFFFFFFFFFFFFFFFF3F
:1011C000FFFFFFFFFFFFFFFFFFFFFFFFFFFFFFFF2F
:1011D000FFFFFFFFFFFFFFFFFFFFFFFFFFFFFFFF1F
:1011E000BEF7FBDEF39CCB5AC739042182104210B4
:1011F0004210410883184529C7390C6375AD3CE797
:10120000BEF7FFFFFFFFFFFFFFFFFFFFFFFFFFFF37
:10121000FFFFFFFFFFFFFFFFFFFFFFFFFFFFFFFFDE
:10122000FFFFFFFFFFFFFFFFFFFFFFFFFFFF3CE7A9
:10123000B2940842C31882100421452986318631B0
:10124000863186314529042182104108C31808429D
:10125000F39C3CE7FFFFFFFFFFFFFFFFFFFFFFFFE8
:10126000FFFFFFFFFFFFFFFFFFFFFFFFFFFFFFFF8E
:10127000FFFFFFFFFFFFFFFFFFFFFFFFFBDE0C6332
:10128000C318C3184529C739084208420842084212
:1012900008420842C739C7398631863104214108DE
:1012A0008210CB5ABAD6FFFFFFFFFFFFFFFFFFFF01
:1012B000FFFFFFFFFFFFFFFFFFFFFFFFFFFFFFFF3E
:1012C000FFFFFFFFFFFFFFFFFFFFFBDECB5A821098
:1012D0004529C73908420842094A494A494A494A00
:1012E000494A494A0842C739C739C7398631452969
:1012F00083180000C84138C6FFFFFFFFFFFFFFFF54
:10130000FFFFFFFFFFFFFFFFFFFFFFFFFFFFFFFFED
:10131000FFFFFFFFFFFFFFFF7DEF8E738210452968
:10132000C7390842094A8A523084CF7B8A52494AD7
:101330004A52494ACB5ACF7B0C630842C73986319F
:101340004529C3180000494ABAD6FFFFFFFFFFFF37
:10135000FFFFFFFFFFFFFFFFFFFFFFFFFFFFFFFF9D
:10136000FFFFFFFFFFFFFFFFF39CC3180421C739F6
:101370000842494A494A72947DEF7DEFB2944A523D
:10138000494A8A5275ADBEF7BAD64D6BC739C739CF
:1013900086314529C3184108CF7B7CE7FFFFFFFF5B
:1013A000FFFFFFFFFFFFFFFFFFFFFFFFFFFFFFFF4D
:1013B000FFFFFFFFFFFFBAD608428210C73908427D
:1013C000494A494A8E73FBDEFFFFBEF7BAD68E73D9
:1013D000084230843CE77DEFFFFFB6B5494AC73984
:1013E00086314529042141084529B6B5FFFFFFFF95
:1013F000FFFFFFFFFFFFFFFFFFFFFFFFFFFFFFFFFD
:10140000FFFFFFFFBEF7718C410845290842494A9A
:10141000494A4A52B294BEF7BEF7B294CF7BCF7B13
:10142000494AB6B5F39C0C6338C6BAD60C63873903
:10143000C73986314529C318410830847DEFFFFF45
:10144000FFFFFFFFFFFFFFFFFFFFFFFFFFFFFFFFAC
:10145000FFFFFFFF3CE7CB5A4108C7390842494A22
:101460004A528A52F39CFFFF7DEFC739C3180C63C1
:10147000CB5AB6B5B294CB5A75ADFAD64D6B873907
:10148000C73986314529042141088A5279CEFFFFA8
:10149000FFFFFFFFFFFFFFFFFFFFFFFFFFFFFFFF5C
:1014A000FFFFFFFF38C686310421C841494A494A37
:1014B0004A52494AB18CBEF7BEF7B294CF7BCF7B7C
:1014C000494A74A57DEF7CE7BEF779CE0C63C73936
:1014D000C7398631452904218210452975ADBEF7EB
:1014E000FFFFFFFFFFFFFFFFFFFFFFFFFFFFFFFF0C
:1014F000FFFFFFFF34A5821086310842494A494A5E
:101500008A52494A4D6BBAD6FFFFFFFF79CE0D6371
:10151000C739CF7B7DEFFFFFFFFF75AD08428631F6
:10152000C739863145294529C318C318B2947DEFC0
:10153000FFFFFFFFFFFFFFFFFFFFFFFFFFFFFFFFBB
:10154000FFFFBEF7B28C4108C7390842494A494AF1
:101550008A528A524A4AD07B7AC67BBE906BC9397E
:101560008831C939B384BBC6F8B5CC5A8631C7397E
:10157000C739863145294529C420410830843CE7D4
:10158000FFFFFFFFFFFFFFFFFFFFFFFFFFFFFFFF6B
:10159000FFFF3CE78A4AC310C7390842494A494A13
:1015A0004A4A4A42093A084A096B497BC67A058386
:1015B0004683C57AC672097B485A873188218829B3
:1015C0008631863145294529042141084A4ABAD63F
:1015D000FFFFFFFFFFFFFFFFFFFFFFFFFFFFFFFF1B
:1015E000FFFFF7C582500541C7290842494A4A42D0
:1015F000494A097B889BC6B321D4A0DCE1E461EDB4
:1016000061ED21EDA0E420DC80CB43ABC482065A1F
:101610004721462945290429041982108218F39C80
:101620007DEFFFFFFFFFFFFFFFFFFFFFFFFFFFFF5C
:101630007DEF4D9300A082B8C7310932494A867ABE
:1016400043C36BEDF4F6EBFD20FD20FD60FDA0FD36
:10165000A0FD60FD60FD20FDE0FCA0FC60F4C1DBAE
:10166000839AC54945290419C42082380050CB6AA1
:10167000BAD6FFFFFFFFFFFFFFFFFFFFFFFFFFFFE8
:10168000FBEE04A100C000F0C3A0C8414942059B85
:1016900020FCA4FC69FDE8FD63FD20FD60FD60FD0C
:1016A00060FD20FD20FDE0FCE0FCA0FC60FC20FCD7
:1016B00041D3C5494519C438826841880070495AE8
:1016C00079CEFFFFFFFFFFFFFFFFFFFFFFFFFFFFE1
:1016D000FBF682C000D086C146F141C845798952E7
:1016E0008862866AC67AC4BBE1FC60FD60FDA0FD2D
:1016F000A0FD60FD60FDE0FC60E403938472446A39
:10170000C5414529C35841A8409800B000600C6B02
:1017100079CEFFFFFFFFFFFFFFFFFFFFFFFF7DEF22
:10172000CE83828800F8C4D80CF38AFA82E882B0AB
:101730004569C7510842083A865A839BA2BC22CD0C
:1017400021CDA1C422B4C47A063A8629452905319F
:10175000C450419000C000A800A000A800304A4A30
:10176000BAD6FFFFFFFFFFFFFFFFFFFF7DEF8E7386
:10177000C318053982A800F8C3F84DFB4DFBC7F923
:10178000C3F082D8C3B00481456146518649864979
:10179000464145414541454105490461829041B07A
:1017A00000D000C800A800A800B8415882108210DC
:1017B000B294BEF7FFFFFFFFFFFFBEF7CF7B8210A3
:1017C000042186298641049940E841F886F9CBFA3C
:1017D00049FA82F800F800F000E841D841D041C051
:1017E00041C041C041C041C800D000E000E000D885
:1017F00000D000B800A84188824882108210000002
:10180000452979CEFFFFFFFFBEF7F39C8210C31876
:1018100045298631C731307CF3DC86E100F000F8E1
:1018200041F841F800F800F800F800F800F800F876
:1018300000F800F800F800F800E800E000E000D848
:1018400000C841A08A9A0C630411821082104108DA
:1018500000004D6B7DEFFFFFFBDE08424210452983
:1018600086318631494A38BEFFFF38D686A900C87E
:1018700000E000F000F800F800F800F800F800F8C8
:1018800000F800F800F000F000E800E000D0C39895
:101890008A8AB2A4BAC6F7B5084241088210410844
:1018A00000004529F7BDFFFF718C4108042145293F
:1018B000863186310C633CE7FFFF79D646B900E0FC
:1018C00042C882A882B041D882E882F041E841E86B
:1018D00041E841F041E841D804C108924D8B34A55C
:1018E000FBC6FBD6BACE3CE73084C318410841089A
:1018F00000004108CF7B7DEF494A000004214529C3
:10190000463186313084FFFFFFF7F7DD09DA83F8CF
:1019100001F042C08298499AF3B4F3CC71BC8EBBFB
:101920008EBB30BC71BCF3BCB6BDFBCEBEE77DE761
:101930003BDFBAD679CEFBDE75AD86314108410872
:1019400000000000494AFBDE04214108042145292A
:1019500045298739B294FFFFBEF734DD0CEB09FA55
:1019600000F001D800D88BD27DE7FFFFFFFFFFFF1B
:10197000FFFFFFFFFFFFFFFFFFFFBEFF7DEFFBDE6F
:10198000FBDEBAD679CEBAD678C6C7390000410890
:1019900000000000C73979CE00008210C31804216E
:1019A00005298631B39CFFFFFFF775DDC7E9C7F94D
:1019B00001F801F000E849E2FBEEFFFFFFFFFFFF47
:1019C000FFFFFFFFFFFFFFFFFFFFBEF77DEFFBDE27
:1019D000FBDEBAD679CEBAD6B9CE084200000000F6
:1019E00000000000C73938C60000821082100421B0
:1019F000042145293084FFFFFFFF38DEC4D000F00A
:101A000001F800F800F008D2FBE6FFFFFFFFFFFF40
:101A1000FFFFFFFFFFFFFFFFFFFFBEF77DEFFBDED6
:101A2000BAD679CE79CEBAD679CEC7394108000078
:101A300000000000863138C600000000C318CB5AF1
:101A40008631C318CB5A7DEFFFFF7DEFCFBBC3B00C
:101A500041D041D082B84DB37DE7FFFFFFFFFFFFCC
:101A6000FFFFFFFFFFFFFFFFBEF7BEF73DEFFBDE0F
:101A7000BAD679CE79CEFAD6F7BD042186310421C3
:101A800000000000863138C68631C318CB5A75ADC8
:101A9000CF7B41088631F7BDFFFFFFFFBEEF74B576
:101AA000309C309C72A4BBD6FFFFFFFFFFFFFFFFFF
:101AB000FFFFFFFFFFFFFFFFBEF77DEF3CE7FBDE11
:101AC000BAD679CE79CE3CE7718C81080C63CF7B96
:101AD000821000008A5238C675AD718CB6B53CE7ED
:101AE000FBDEC7390000CF73FFFFFFFFFFFFFFFFE3
:101AF000FFFFFFFFFFFFFFFFFFFFFFFFFFFFFFFFF6
:101B0000FFFFFFFFFFFFBEF77DEF7DEF3BDFFAD664
:101B100079CE79CEFBDEB9CEC739C420718CBAD666
:101B2000718CCB5AB294BAD6FFFF7DEF7DEFFFFFE9
:101B3000FFFFB6B54629051975A5FFFFFFFFFFFF9B
:101B4000FFFFFFFFFFFFFFFFFFFFFFFFFFFFFFFFA5
:101B5000FFFFFFFFFFFFBEF77DEF3CE7FBDEBAD6DE
:101B600079CEBAD6FCDE4E6342080C63F7BDBEF7F1
:101B7000FFFFFBDEFBDEBEF7FFFFFFFFFFFFFFFF08
:101B8000FFFFFFFFF49C04210521B6A5FFFFFFFF27
:101B9000FFFFFFFFFFFFFFFFFFFFFFFFFFFFFFFF55
:101BA000FFFFBEF7BEF77DEF3CE7FBDEBAD679CE8E
:101BB000FBDEBBD6D17383188639349DBDEFFFFFA2
:101BC000FFFFFFFFFFFFFFFFFFFFFFFFFFFFFFFF25
:101BD000BEFF35D6EBCC43B340510519F58CBEEFB3
:101BE000FFFFFFFFFFFFFFFFFFFFFFFFFFFFBEF74E
:101BF000BEF77DEF7DEF3CE7FBDEBADEBAD63CDF19
:101C00003ABE4F63824940A323B4CC833ABEFFFF60
:101C1000FFFFFFFFFFFFFFFFFFFFFFFFFFFFBFF71C
:101C2000B5BD829220F4A0FC60E4408284418F6BB9
:101C300077AD3DE7FFFFFFFFFEFFBEF7BEF7BEF744
:101C40007DEF7DEF3CE7FBDEFBDE3DE7BBCE369D67
:101C50000B6B416A60C420FE60F5008BC76A38C612
:101C6000BEF7FFFFFFFFFFFFFFFFFFFFFFFF7DEF5F
:101C70004B7B80B2A0FCA0FCE0FCE0FCC0CBC18AA6
:101C800045624D6BB394F7BD3DDFFFF7FFFFBEF735
:101C90007DEF7DEF7DE73DDFBAC675A58D7B847A4C
:101CA00040B3E0ECE0FDE0FD60F520E5A0D40A6B78
:101CB000FBDEFFFFFFFFFFFFFFFFFFFFFFFF7DEFEB
:101CC000CC9340EB60FCA0FCE0FC20FD60FD20F527
:101CD000A0D4C0BB429B458B6B9CAE9C718CB394D3
:101CE000339D34A5F2A4F0B4CA9B049B40BB20E40E
:101CF00020FDA0FDA0FDE0FDE0FDE0FD20C4885A30
:101D000038BEFFFFFFFFFFFFFFFFFFFFFFFFFFFFEB
:101D100078D646AB40DB20F460FCA0FCE0FC60FD24
:101D2000A0FD60FD20F5A0DCC0B3C05186290D6385
:101D30008F7B0D5BC741018200C3C0E360FCA0FC48
:101D4000E0FCE0FC60F560F520E5809B8662308475
:101D500079CEFFFFFFFFFFFFFFFFFFFFFFFFFFFF4A
:101D6000FFFF38C62D9C059343A382B3C2BBC2BB01
:101D700022B482A34293C37A85620B637184B6B5A1
:101D800079CE79C6B5AD70944A8B06830493049BD3
:101D9000439B439B4393048308738D73B39479CE21
:101DA0007DEFFFFFFFFFFFFFFFFFFFFFFFFFFFFFD5
:101DB000FFFFFFFF3CDF38BE75B533A533A5F39CAD
:101DC000F39CF39CF394F39C35A5F8BDFBDEBEF7C2
:101DD000FFFFFFFFFFFF7EEFBBD6F8BDB6AD75ADD1
:101DE00034A5339D349D35A5B7AD79C63CE7BEF724
:101DF000FFFFFFFFFFFFFFFF000000C0242CA060DB
:101E00000000E000FC0400000000000000000000F2
:101E10000000000000000000002020100906071844
:101E2000000003207F000000000000000000000010
:101E300000000000000000000000404008C02090AA
:101E4000AEA02020E0200000000000000000000004
:101E500000000000000000000000100E01000F0A4A
:101E6000080F20601F0000000000000000000000BC
:101E7000000000000000000000004040DA242000C4
:101E8000305014F08080800000000000000000004E
:101E90000000000000000000000804037E010101B2
:101EA0000505FF0404000000000000000000000021
:101EB00000000000000000000000C0A0986020F0BA
:101EC0000000E0180000000000000000000000001A
:101ED00000000000000000000010141312180C2372
:101EE000160807060830202000000000000000004F
:101EF0000000000000000000000010101090F09E94
:101F00009250D00808080000000000000000000007
:101F100000000000000000000000040201300F0A71
:101F200002007F0000000000000000000000000030
:101F300000000000000000000000004000F02090C1
:101F4000F494905000000000000000000000000029
:101F50000000000000000000000444221E030424CE
:101F60001C070A12222200000000000000000000EE
:101F7000000000000000000000000000F8088808D1
:101F8000F824F40C00000000000000000000000035
:101F900000000000000000000020100E11080403E3
:101FA000060C071830203800000000000000000078
:101FB00000000000000000000000000040FCA0A0A5
:101FC0008080907010000000000000000000000001
:101FD000000000000000000000211907090F141084
:101FE0002324686864262000000000000000000030
:101FF0000000000000000000000000000000C0BC65
:1020000008000000000000000000000000000000C8
:1020100000000000000000000000100806010000A1
:1020200001020C1810100000000000000000000069
:1020300000000000000000000000008060904042AE
:10204000FE40400000000000000000000000000012
:102050000000000000000000002020212020242299
:102060001F222210101020000000000000000000BD
:10207000000000000000000000000010100888E8C8
:1020800038180808080800000000000000000000E0
:102090000000000000000000001010080402013FD2
:1020A00000000102060C000000000000000000001B
:1020B0000000000000000000000020202020A056AA
:1020C0005C505010101000000000000000000000E4
:1020D00000000000000000000000000000182A2995
:1020E00025253D0000000000000000000000000069
:1020F00000000000000000000000000848E8584E02
:1021000048A864000000000000000000000000007B
:10211000000000000000000002020242320F020232
:1021200002FF0201010101000000000000000000A8
:1021300000000000000000000000C048483808000F
:102140003828E828988800000000000000000000FF
:102150000000000000000000000023427E02202357
:1021600025251F151A3100000000000000000000A6
:10217000000000000000000000000000F8088808CF
:10218000F824F40C00000000000000000000000033
:1021900000000000000000000020100E11080403E1
:1021A000060C071830203800000000000000000076
:1021B00000000000000000000000C04040E040C0FF
:1021C0003A4C2060202000000000000000000000C9
:1021D0000000000000000000000007022321110899
:1021E0000707081020200000000000000000000089
:1021F0000000000000000000000000407AA4808081
:10220000F8A0FE5070100000000000000000000068
:102210000000000000000000000404223F00231220
:102220000F02FF01090D0300000000000000000084
:102230000000000000000000080808F8000000008E
:102240000000000F08080800000000000000000067
:10225000000000000000000000202028E80000002E
:10226000000808080F080800000000000000000037
:10227000000000000000000000E0000000E0E000BE
:1022800000070C08080F0300000000000000000019
:10229000000000000000000000206080806020003E
:1022A00000080603030C0800000000000000000006
:1022B000000000000000000000E0000000E0E0007E
:1022C00000070C08080F03000000000000000000D9
:1022D000000000000000000000E0402020E0C000FE
:1022E000000F0000000F0F000000000000000000C1
:1022F000000000000000000000202020A06000007E
:1023000000080E0B09080800000000000000000093
:10231000000000000000000000202028E80000006D
:10232000000808080F080800000000000000000076
:10233000000000000000000000000000000000009D
:102340000000000000000000000000F80000000095
:10235000000000333000000000100C06100C0600D6
:10236000000000000000000040C07840C07840003D
:10237000043F04043F040400007088FC083000009F
:10238000001820FF211E0000F008F000E0180000F7
:1023900000211C031E211E0000F0088870000000B0
:1023A0001E2123241927211010160E000000000002
:1023B0000000000000000000000000E0180402001F
:1023C000000000071820400000020418E000000090
:1023D0000040201807000000404080F0804040008E
:1023E0000202010F01020200000000F000000000E4
:1023F0000101011F010101000000000000000000B8
:1024000080B070000000000000000000000000002C
:1024100000010101010101010000000000000000B5
:102420000030300000000000000000008060180450
:10243000006018060100000000E010080810E0002D
:10244000000F102020100F00001010F800000000F6
:102450000020203F2020000000700808088870003D
:1024600000302824222130000030088888483000BD
:102470000018202020110E000000C02010F80000DD
:1024800000070424243F240000F808888808080076
:102490000019212020110E0000E01088881800008B
:1024A000000F112020110E0000380808C83808005D
:1024B0000000003F000000000070880808887000DD
:1024C000001C222121221C0000E010080810E0005E
:1024D0000000312222110F00000000C0C0000000E7
:1024E000000000303000000000000080000000000C
:1024F0000000806000000000000080402010080004
:1025000000010204081020004040404040404000CC
:1025100004040404040404000008102040800000A7
:102520000020100804020100007048080808F000AC
:102530000000003036010000C030C828E810E0007C
:102540000718272423140B000000C038E000000007
:10255000203C23020227382008F888888870000071
:10256000203F202020110E00C03008080808380045
:10257000071820202010080008F808080810E000BC
:10258000203F202020100F0008F88888E80810005D
:10259000203F20202320180008F88888E808100031
:1025A000203F200003000000C03008080838000069
:1025B00007182020221E020008F808000008F8086A
:1025C000203F210101213F20000808F808080000F1
:1025D0000020203F2020000000000808F808080024
:1025E000C08080807F00000008F888C0281808009C
:1025F000203F20012638200008F8080000000000D5
:10260000203F20202020300008F8F800F8F80800CB
:10261000203F003F003F200008F830C00008F808C5
:10262000203F200007183F00E01008080810E000D5
:102630000F10202020100F0008F808080808F000EC
:10264000203F210101010000E01008080810E0000F
:102650000F18242438504F0008F8888888887000A4
:10266000203F2000030C3020007088080808380044
:102670000038202121221C00180808F8080818003A
:102680000000203F2000000008F808000008F808BB
:10269000001F202020201F000878880000C838086C
:1026A000000007380E010000F80800F80008F800E4
:1026B000033C0700073C030008186880806818087E
:1026C00020302C03032C30200838C800C8380800FC
:1026D0000000203F2000000010080808C83808004B
:1026E0002038262120201800000000FE02020200EF
:1026F0000000007F40404000000C30C0000000009F
:10270000000000010638C00000020202FE000000C6
:10271000004040407F00000000000402020204006C
:1027200000000000000000000000000000000000A9
:102730008080808080808080000202040000000091
:102740000000000000000000000080808080000089
:102750000019242222223F2008F800808000000077
:10276000003F112020110E0000000080808000003A
:10277000000E112020201100000000808088F80049
:10278000000E112020103F2000008080808000007B
:10279000001F222222221300008080F088888818DF
:1027A0000020203F202000000000808080808000EA
:1027B000006B94949493600008F80080808000007F
:1027C000203F210000203F2000809898000000005A
:1027D0000020203F2020000000000080989800008A
:1027E00000C08080807F000008F8000080808000AA
:1027F000203F24022D302000000808F800000000CF
:102800000020203F20200000808080808080800089
:10281000203F20003F20003F80800080808000001B
:10282000203F210000203F200000808080800000A9
:10283000001F202020201F008080008080000000DA
:1028400080FFA12020110E00000000808080800009
:10285000000E112020A0FF808080800080808000FA
:1028600020203F2120000100000080808080800027
:102870000033242424241900008080E0808000009C
:102880000000001F202000008080000000808000E9
:10289000001F202020103F2080808000008080804A
:1028A00000010E30080601008080008000808080DA
:1028B0000F300C030C300F000080800080808000FF
:1028C0000020312E0E31200080808000008080802A
:1028D00080818E70180601000080808080808000DA
:1028E0000021302C2221300000000000807C0202F8
:1028F00000000000003F404000000000FF0000001A
:1029000000000000FF0000000002027C80000000C8
:102910000040403F000000000006010102020404E4
:1029200000000000000000000000000000000000A7
:10293000000000000000000000000008080808086F
:10294000080800001818000000486C24120000005D
:1029500000000000000000000000002424247F127A
:1029600012127F12121200000000081C2A2A0A0C00
:102970001828282A2A1C08080000002225151515E9
:102980002A585454542200000000000C1212120A5B
:1029900076252911916E0000000606040300000050
:1029A000000000000000000000402010100808088F
:1029B0000808081010204000000204080810101039
:1029C00010101008080402000000000008086B1C2A
:1029D0001C6B080800000000000000000808080840
:1029E0007F08080808000000000000000000000048
:1029F00000000000060604030000000000000000C4
:102A0000FE000000000000000000000000000000C8
:102A1000000000000606000000008040402020105A
:102A20001008080404020200000000182442424278
:102A30004242424224180000000000080E08080824
:102A400008080808083E00000000003C42424220FE
:102A500020100804427E00000000003C4242201882
:102A600020404042221C0000000000203028242486
:102A700022227E20207800000000007E0202021A3E
:102A800026404042221C0000000000382402021AA6
:102A900026424242241800000000007E222210102C
:102AA00008080808080800000000003C42424224D0
:102AB00018244242423C00000000001824424242D6
:102AC00064584040241C000000000000000018185A
:102AD00000000000181800000000000000000008BE
:102AE0000000000000080804000000402010080456
:102AF00002040810204000000000000000007F00D9
:102B000000007F0000000000000000020408102008
:102B100040201008040200000000003C42424640F1
:102B200020101000181800000000001C225A5555F3
:102B300055552D42221C00000000000808181414EE
:102B4000243C224242E700000000001F2222221EF5
:102B500022424242221F00000000007C424201014A
:102B600001010142221C00000000001F22424242DB
:102B700042424242221F00000000003F4212121E49
:102B800012120242423F00000000003F4212121E99
:102B900012120202020700000000003C2222010182
:102BA00001712122221C0000000000E74242424243
:102BB0007E42424242E700000000003E080808084A
:102BC00008080808083E00000000007C10101010E3
:102BD000101010101010110F0000007722120A0EB2
:102BE0000A121222227700000000000702020202ED
:102BF00002020202427F00000000007736363636BD
:102C00002A2A2A2A2A6B0000000000E346464A4A84
:102C100052525262624700000000001C22414141B2
:102C200041414141221C00000000003F424242421B
:102C30003E020202020700000000001C2241414146
:102C400041414D53321C60000000003F4242423E71
:102C50001212222242C700000000007C42420204FD
:102C600018204042423E00000000007F490808084A
:102C700008080808081C0000000000E74242424221
:102C800042424242423C0000000000E7424222240D
:102C900024141418080800000000006B4949494931
:102CA0005555362222220000000000E74224241855
:102CB0001818242442E70000000000772222141490
:102CC00008080808081C00000000007E21201010E1
:102CD00008040442423F0000007808080808080879
:102CE0000808080808087800000002020404080820
:102CF0000810102020204040001E1010101010104E
:102D00001010101010101E000038440000000000C9
:102D100000000000000000000000000000000000B3
:102D200000000000000000FF000608000000000096
:102D30000000000000000000000000000000003C57
:102D40004278444242FC0000000000030202021AE2
:102D500026424242261A000000000000000000380F
:102D60004402020244380000000000604040407805
:102D70004442424264D80000000000000000003CD1
:102D8000427E0202423C0000000000F08808087EFB
:102D900008080808083E0000000000000000007C51
:102DA00022221C023C42423C000000030202023A82
:102DB0004642424242E700000000000C0C00000EB8
:102DC00008080808083E0000000000303000003805
:102DD000202020202020221E000000030202027278
:102DE000120A1612227700000000000E08080808D8
:102DF00008080808083E0000000000000000007FEE
:102E00009292929292B70000000000000000003BF6
:102E10004642424242E70000000000000000003C41
:102E200042424242423C0000000000000000001B01
:102E300026424242221E02070000000000000078E5
:102E400044424242447840E0000000000000007725
:102E50004C040404041F0000000000000000007C7B
:102E600042023C40423E0000000000000008083ED4
:102E70000808080808300000000000000000006397
:102E80004242424262DC000000000000000000E715
:102E9000422424140808000000000000000000EB99
:102EA000494955552222000000000000000000762C
:102EB00024181818246E000000000000000000E72D
:102EC0004224241418080807000000000000007EB7
:102ED00022100808447E000000C02020202020107E
:102EE000202020202020C0001010101010101010E2
:102EF0001010101010101010000608080808081014
:102F000008080808080806000C32C200000000008B
:102F10000000000000000000382F00080000002022
:102F2000540A00002C010008D0340008540A002084
:102F3000C4060000880100082116B63C9D2B8C02B7
:102F40002692120E1A070439021EF0FF190EF80419
:102F5000157860180E19041BC070041E31180E80FD
:102F60003B101A1F044A0E0813C03F140EF87314C6
:102F70000EFEE0260F7E809D0F23F80723F003024C
:102F800032C01380011470C0011009F0C00104E0C8
:102F9000E3FF0F1AE7041230120F123810120E1E40
:102FA000EC3F0EFEE1380EFC63380C10E03F0C14D1
:102FB00060300C1468380E1808E63F0EC0E7180E93
:102FC00072170FF001800F701AFE800334F8011C95
:102FD000800338041A7804127C101480C3FF0FF0A9
:102FE000CFFF0FF81FC3019803C7018003C6180E57
:102FF000C0E7FF7FE0EFFF7FF033383CBC2C1A9E28
:10300000241A8EA84938C90411031A01182AC004C9
:103010005A030419AB1AE00823E00623700C1A784F
:10302000381A3840231C70140EE00114EEC1031846
:1030300008C7C3078083871F2B33FF601238120E27
:10304000240CF03F337F3C321C9A0E041A07C92926
:103050000499600121227C14E7FF011B3EF04369C3
:10306000044AE0041A0C72238C631BFC670C2910C1
:1030700059046920390422F61BFEFF0822F81A06BB
:10308000B8116904012019E0111AF0041A783810F7
:10309000161C06800F1E1EFC1F381E38CE3807383F
:1030A000CEB9033886FB14388733100C3807307CD0
:1030B000F807F0FF38E07F3430FC306904A96C6910
:1030C00004194C3904323F323E02171C9A0F042275
:1030D000072380FB14C0FF0113C0701480673814ED
:1030E000FC0F1C101D1807EC031807FF0738F387A7
:1030F000073873DE03F877CE017860CE013060CEFA
:10310000381F60FE7F80FF1F671904396C1A7344F3
:103110001AE34413E10114E0C0031470C01F042239
:103120001C807F1A38AF22F013FF701BE07BC01A9F
:1031300038041A1C041A0E881A07081A6704143E69
:103140007003141E730E18150E733E808F737CC0AF
:10315000CD7378F0CC71707CCE71703C28292C69CD
:10316000041CC00F73381A7ED3327C3278021630BA
:10317000326019A749040A15010413F1031CC0FFAA
:103180000303119B80CF181AE034390422061B7008
:103190000E041A1CB81A3C0419701A1CCC10090E23
:1031A000F0038003E00FC0031EC07F19A423F0FFCB
:1031B000337F381944230F1E2A3C504A0760299C4C
:1031C0001AF00C1A78181A1C2C480C0FF803C0C3FC
:1031D000E37F78C0C11F8C223F2AFC04E9B82FFF8F
:1031E00007F0FFFF0F3F0122326013FE011AFFE5D7
:1031F0001A7E75140EE0011B1CE07029044A70044D
:103200001ADCA41AF84D72184A0CAF111A3CEC1AC9
:103210001E301A0E38180807C0078003800F7F1A67
:103220000F3A1A0FD22A0627011A19221A03041B71
:1032300007DC04100AFE038003C601800DE314C0FE
:10324000BD7F14C01C38180CE00C9C03700EFE07E8
:10325000F0E70F28100E8F018083870380C1C10122
:10326000E0EFE314E0733F24E0801F23D87D1010CB
:103270006FDE01E031BF07FC803B3F3CE0307E3336
:1032800070302904195C11323F5A1EB101132A060D
:103290001F1380033C1EC007C4230E781A0E301B78
:1032A000063B0419401A36041A7704100B73F81FF2
:1032B000E03FFE01FCFB3F14803B18148039381BB3
:1032C000801D041B1F7CEA1AFC4413CC0120113F13
:1032D000CE03803B8707C0F1030FE0C0013F7003BE
:1032E0001DFE1819C01AF8DC1BC0010413E1031FEE
:1032F000C0BF07C0FF813C169D0160DC011470D87F
:103300000E1B700742327E1A70281AF8301A1C08F9
:1033100023FE0313C3011B80F10C23783C180EDE3F
:10332000F10380E7EE7FE0F83F07307C101B701C54
:10333000FB19041A1CF423CE0E1B870F63021F0710
:1033400019F423C03F1AFF401A0C3C1119041A0744
:10335000041A0E401A1C041A38041A70442AE00495
:1033600019805AC00429101AF01C2988233C7C10AB
:10337000090FF801C003F007601AE04D1A8004013C
:103380001829644A3E231AF0481BD8010C2904135B
:10339000F13F6EF8FF3FF89F101AFD0313E7011B82
:1033A00087E10422E723F6F74B8E71041AEC3C6A9E
:1033B000BC28221F1AF804390C290413E1034EF02B
:1033C000FF07E07F0F011132E039C4191D7904199C
:1033D0002D23FC0F1BFE390C22791ACE0823DE1D8B
:1033E0001ADCE414C0F10717E0FF0FF0FF011AC068
:1033F0005B111AF0141AF82C2AF820292C22F12833
:103400000DC7E10380C3C11FE0C0017F30506AE0F7
:1034100058296C811BF010012AFF050215F01B0FC3
:1034200004012AFF05195E011118094040405F554B
:10343000555575041A5F0C091121080C11200F094C
:103440004989790909090F201F112FFE02424ACA32
:103450004A0304134202FE000E14FF40504C434046
:10346000404F50505C40FF1BF888012AFF050215B1
:10347000F81B1F08012A7F200B109F80E23B8082EF
:1034800001000916E2A2928A868280800418408098
:103490007F172424A4FEA3221B22CCAA0114150802
:1034A0000601FF2B0104010511FF0202025808105A
:1034B0001010FF109008C3021108080F1504448271
:1034C0007F01808040432C10284681A0110000001D
:04000005080000F1FE
:00000001FF
