:020000040800F2
:10000000F00600208D010008950100089701000806
:10001000990100089B0100089D01000800000000F4
:100020000000000000000000000000009F01000828
:10003000A101000800000000A3010008A5010008BC
:10004000A7010008A7010008A7010008A7010008F0
:10005000A7010008A7010008A7010008A7010008E0
:10006000A7010008A7010008A7010008A7010008D0
:10007000A7010008A7010008A7010008A7010008C0
:10008000A7010008A7010008A7010008A7010008B0
:10009000A7010008A7010008A7010008A7010008A0
:1000A000A7010008A7010008A7010008A701000890
:1000B00075130008A7010008A7010008A7010008A0
:1000C000A7010008A7010008A7010008A701000870
:1000D000A70100085D180008A7010008A701000893
:1000E000A7010008A7010008A7010008A701000850
:1000F00000F002F800F03AF80AA090E8000C824400
:100100008344AAF10107DA4501D100F02FF8AFF2DC
:10011000090EBAE80F0013F0010F18BFFB1A43F0E5
:1001200001031847E42E0000042F0000103A24BFFA
:1001300078C878C1FAD8520724BF30C830C144BF4C
:1001400004680C607047000000230024002500268E
:10015000103A28BF78C1FBD8520728BF30C148BF2A
:100160000B6070471FB51FBD10B510BD00F036F80D
:100170001146FFF7F7FF01F03DFE00F054F803B41D
:10018000FFF7F2FF03BC00F057F800000948804772
:1001900009480047FEE7FEE7FEE7FEE7FEE7FEE769
:1001A000FEE7FEE7FEE7FEE704480549054A064B81
:1001B0007047000025110008F1000008F000002041
:1001C000F0060020F0020020F00200207047704787
:1001D0007047000000487047900000207546FFF708
:1001E000F9FFAE4605006946534620F007008546F4
:1001F00018B020B5FFF7D8FFBDE820404FF000064B
:100200004FF000074FF000084FF0000B21F00701FE
:10021000AC46ACE8C009ACE8C009ACE8C009ACE841
:10022000C0098D46704710B50446AFF300802046E4
:10023000BDE81040FFF7A3BF01491820ABBEFEE7A1
:1002400026000200704721B1826842F001028260FC
:1002500003E0826822F001028260704700B591B02D
:100260000121042000F0DAFE0121480200F0D6FE50
:100270000121084600F0B2FE4FF4004000F0A2FE5B
:100280003020ADF8400000208DF8430003208DF8A9
:10029000420010A9324800F023FA0523012204216C
:1002A000304800F0A3F80523022219462D4800F03B
:1002B0009DF800200B9001208DF830008DF8310062
:1002C0004FF460200D9000200E9002208DF83C002D
:1002D0000BA9244800F062F80121084600F07EFED8
:1002E00020484C30009080150690002004901E4855
:1002F00001904FF4806007908020059002200390C9
:10030000002002900A9020200890C00109906946C0
:10031000164800F0E8F80121144800F0D8F801214F
:10032000104800F025F801210E48FFF78CFF0D481A
:1003300000F0B8F800BF0B4800F025F80128FAD00B
:10034000084800F0BFF800BF064800F01CF801287C
:10035000FAD00121034800F0AAF811B000BD000056
:100360000008014000240140140000200800024061
:1003700021B1826842F48072826003E0826822F4D4
:10038000807282607047014600208A6802F0040291
:100390000AB1012000E000207047000030B502469D
:1003A0000020002350680F4C20400D790C6844EA6F
:1003B00005242043506090680B4C2040D1E9025442
:1003C0002C434D7944EA450420439060D06A20F4E0
:1003D00070000C7C641EE4B2234340EA0350D062F8
:1003E00030BD0000FFFEF0FFFDF7F1FFF0B5044661
:1003F0000D4600200021092D11DDE068A5F10A0657
:1004000006EB4607072606FA07F18843A5F10A0618
:1004100006EB460603FA06F10843E0600CE02069AB
:1004200005EB4507072606FA07F1884305EB450665
:1004300003FA06F108432061072A0FDA606B561EA3
:1004400006EB86071F2606FA07F18843561E06EBC1
:10045000860605FA06F10843606322E00D2A0FDAEA
:10046000206BD61F06EB86071F2606FA07F1884386
:10047000D61F06EB860605FA06F10843206310E056
:10048000E06AA2F10D0606EB86071F2606FA07F1C1
:100490008843A2F10D0606EB860605FA06F108432D
:1004A000E062F0BD816841F008018160704721B1D0
:1004B000826842F4A002826003E0826822F4A00213
:1004C00082607047816841F004018160704721B10A
:1004D000026842F00102026004E002684FF6FE7317
:1004E0001A400260704710B50022026847F6F073A8
:1004F0009A430C6A8B6823430C6923434C6923435A
:100500008C692343CC6923434C6A23438C6A23437D
:100510001A430260CB6843600B6883604B68C3601A
:1005200010BD00EBC001C9004FF0E0225161002175
:1005300091610521116100BF4FF0E021096901F4CB
:1005400080310029F8D004214FF0E022116170477A
:1005500010B5054800F0C2FF04B20021024801F0C6
:1005600029F9204610BD00000008004000B587B002
:100570000121042000F042FD0121082000F04EFD81
:1005800048208DF81B00C020ADF8180003208DF81E
:100590001A0006A91E4800F0A3F81E4800F0FBFF51
:1005A0000020ADF81200ADF80E004FF6FE70ADF869
:1005B00010000020ADF80C008DF8140003A91548B8
:1005C00001F026F9684600F0D4FF0020ADF80000E5
:1005D0000F20ADF8080069460E4800F093FF68460A
:1005E00000F0C7FF0420ADF800000F20ADF80800B0
:1005F0006946084800F086FF00231A460321054893
:1006000000F04BFF0121034800F03BFF07B000BDA5
:10061000000C01400008004010B5054800F05EFFE6
:1006200004B20021024801F0C5F8204610BD0000C8
:100630000004004000B587B00121022000F0DEFC7C
:100640000121042000F0EAFC48208DF81B00C020A6
:10065000ADF8180003208DF81A0006A91E4800F016
:100660003FF81E4800F097FF0020ADF81200ADF8EB
:100670000E004FF6FE70ADF810000020ADF80C0033
:100680008DF8140003A9154801F0C2F8684600F07F
:1006900070FF0020ADF800000F20ADF8080069469B
:1006A0000E4800F02FFF684600F063FF0420ADF80D
:1006B00000000F20ADF808006946084800F022FF4E
:1006C00000231A460321054800F0E7FE01210348F4
:1006D00000F0D7FE07B000BD000801400004004054
:1006E0002DE9F041024600250026002000230024C9
:1006F000002791F803C00CF00F0591F803C00CF02F
:10070000100CBCF1000F03D091F802C04CEA0505B3
:1007100091F800C0BCF1000F31D0146800202BE02C
:100720004FF0010C0CFA00F3B1F800C00CEA03061C
:100730009E4220D183004FF00F0C0CFA03F7BC430C
:1007400005FA03FC4CEA040491F803C0BCF1280F3D
:1007500006D14FF0010C0CFA00FCC2F814C00AE0FC
:1007600091F803C0BCF1480F05D14FF0010C0CFA11
:1007700000FCC2F810C0401C0828D1D31460B1F8A6
:1007800000C0BCF1FF0F34DD546800202EE000F102
:10079000080C4FF0010808FA0CF3B1F800C00CEA9D
:1007A00003069E4221D183004FF00F0C0CFA03F791
:1007B000BC4305FA03FC4CEA040491F803C0BCF105
:1007C000280F05D100F1080C08FA0CF8C2F81480C3
:1007D00091F803C0BCF1480F07D100F1080C4FF0AD
:1007E000010808FA0CF8C2F81080401C0828CED383
:1007F0005460BDE8F0810246002093680B400BB1C5
:10080000012000E000207047016170470AB10161DA
:1008100000E0416170472DE9F05F06460F469046C3
:100820009946DDE90AAB3B2000F06CF804463C2019
:1008300000F068F8054645EA042000B230803D200B
:1008400000F060F804463E2000F05CF8054645EAFA
:10085000042000B238803F2000F054F804464020C5
:1008600000F050F8054645EA042000B2A8F8000060
:10087000432000F047F80446442000F043F80546C2
:1008800045EA042000B2A9F80000452000F03AF83B
:100890000446462000F036F8054645EA042000B23A
:1008A000AAF80000472000F02DF80446482000F088
:1008B00029F8054645EA042000B2ABF80000BDE87F
:1008C000F09F10B5752000F01DF810BD10B500F0B8
:1008D0004FF801216B2000F034F800216C2000F06B
:1008E00030F80921192000F02CF806211A2000F018
:1008F00028F818211B2000F024F818211C2000F0F3
:1009000020F810BD70B5044600F0A6F8D02000F025
:100910008EF800F057F8204600F089F800F052F801
:1009200000F09AF8D12000F082F800F04BF800F0C7
:1009300058F80546012000F06EF800F09BF82846B4
:1009400070BD70B505460C4600F086F8D02000F06A
:100950006EF800F037F8284600F069F800F032F839
:10096000204600F064F800F02DF800F083F870BD28
:1009700008B50121082000F051FB14208DF8030078
:100980004FF44060ADF8000003208DF80200694686
:100990000448FFF7A5FE4FF440610248FFF734FF1B
:1009A00008BD0000000C014010B54FF40061044880
:1009B000FFF721FF04460A20FFF7B3FD204610BDD4
:1009C000000C014010B5012000F06EF8012000F08D
:1009D0005DF8FFF7E9FF0446002000F057F82046D5
:1009E00010BD70B50025012000F05EF800240EE077
:1009F000012000F04BF8FFF7D7FF012802D180203B
:100A000020410543002000F041F8601CC4B2082CCE
:100A1000EEDB284670BD10B50446204600F044F8D1
:100A2000012000F033F8002000F030F810BD70B560
:100A3000054600240DE08021214101EA050000F077
:100A400033F8012000F022F8002000F01FF8601CAD
:100A5000C4B2082CEFDB70BD10B5012000F024F803
:100A6000012000F013F8002000F01EF8002000F034
:100A70000DF810BD10B5002000F016F8012000F0B0
:100A800005F8012000F010F810BD000010B5044674
:100A900022464FF480610348FFF7B8FE0A20FFF7B3
:100AA00040FD10BD000C014010B5044622464FF435
:100AB00000610348FFF7AAFE0A20FFF732FD10BDD0
:100AC000000C014070B5002100230F22C47804B34C
:100AD000154C246804F4E064C4F5E064210AC1F113
:100AE0000403CA40447804FA03F184781440214393
:100AF00009010E4C0678A155047804F01F05012465
:100B0000AC4005786D11AD0005F1E025C5F8004158
:100B100009E0047804F01F050124AC40044D067878
:100B2000761145F8264070BD0CED00E000E400E0D1
:100B300080E100E002490143024A11607047000071
:100B40000000FA050CED00E070B500240EE0002175
:100B5000204600F0E8F8002504E0002000F0AFF99E
:100B6000681CC5B2802DF8DB601CC4B2082CEEDB1B
:100B700070BD000008B50121082000F04FFA1420D4
:100B80008DF8030003208DF802000002ADF800008C
:100B900069460748FFF7A4FD012211020448FFF748
:100BA00035FE012251020248FFF730FE08BD000069
:100BB000000C014070B50546002415E0802020415E
:100BC00000EA05024FF400710E48FFF71FFE0122F4
:100BD00011020C48FFF71AFE00224FF480710948F9
:100BE000FFF714FE601CC4B2082CE7DB01221102DF
:100BF0000448FFF70BFE00224FF480710148FFF715
:100C000005FE70BD000C014010B5012251020A48DA
:100C1000FFF7FCFD012211020748FFF7F7FD002254
:100C20004FF400710448FFF7F1FD00224FF480718A
:100C30000148FFF7EBFD10BD000C014010B500228C
:100C40004FF400710648FFF7E1FD0122110204484C
:100C5000FFF7DCFD012251020148FFF7D7FD10BD6F
:100C6000000C014070B5002406E0002500E06D1C7A
:100C7000B5F57A7FFBD3641CB4F57A7FF5D3FFF723
:100C800079FFAE2000F00BF9D52000F008F98020A4
:100C900000F005F9A82000F002F93F2000F0FFF86D
:100CA000D32000F0FCF8002000F0F9F8402000F01C
:100CB000F6F8A12000F0F3F8C82000F0F0F8DA20F0
:100CC00000F0EDF8122000F0EAF8812000F0E7F8DB
:100CD000CF2000F0E4F8D92000F0E1F8F12000F096
:100CE000DEF8DB2000F0DBF8302000F0D8F8A4209C
:100CF00000F0D5F8A62000F0D2F88D2000F0CFF853
:100D0000142000F0CCF8AF2000F0C9F8FFF71CFF6A
:100D100070BD10B50246012000E050430B1EA1F14A
:100D20000101FAD110BD70B505460C4645F0B00082
:100D300000F0B5F8102141EA141000F0B0F804F00A
:100D40000F0000F0ACF870BD2DE9F04105460E46ED
:100D50001746721ED206110E6A1E5206100EFFF7BB
:100D6000E2FF002409E0A7F12001134A02EB011180
:100D7000085D00F0A4F8601CC4B2082CF3DB721EFE
:100D8000D206110E6A1E012303EB4202D0B2FFF716
:100D9000CAFF00240BE0A7F12001074A02EB011271
:100DA00004F10801505C00F08AF8601CC4B2082C01
:100DB000F1DBBDE8F0810000782900082DE9F0475B
:100DC00081460E4690461F4600241DE0381B411EFA
:100DD0001020FFF79EFFB8FBF0F000F00F050A2D82
:100DE00008DA05F13000C2B23019C1B24846FFF747
:100DF000ABFF07E005F13700C2B23019C1B2484677
:100E0000FFF7A2FF601CC4B2BC42DFDBBDE8F08785
:100E10002DE9F0478146884615461E46002D06DB23
:100E20002B2241464846FFF78FFF2F4605E02D2233
:100E300041464846FFF788FF6F42002417E0301B09
:100E4000411E0A20FFF765FFB7FBF0F00A21B0FB57
:100E5000F1F201FB120000F1300A08EB0400401C23
:100E6000C1B252464846FFF76FFF601CC4B2B4429D
:100E7000E5DBBDE8F0872DE9F04107460E46154653
:100E8000002407E02A5D3019C1B23846FFF75CFF45
:100E9000601CC4B2285D0028F4D1BDE8F08110B513
:100EA0000446FFF7B1FE7820FFF784FE0020FFF72D
:100EB00081FE2046FFF77EFEFFF7C0FE10BD10B595
:100EC0000446FFF7A1FE7820FFF774FE4020FFF7ED
:100ED00071FE2046FFF76EFEFFF7B0FE10BD00006A
:100EE00000B589B00121084600F088F801210420EE
:100EF00000F094F818208DF823000F20ADF82000A2
:100F000003208DF8220008A92D48FFF7E9FB4FF0D8
:100F1000804000F040FB0020ADF81A00ADF816004C
:100F20006320ADF818004FF67F40ADF814000020A4
:100F30008DF81C0005A94FF0804000F069FC01A865
:100F400000F02EFC6020ADF804000020ADF80C008D
:100F50000120ADF806000020ADF80A0001A94FF00D
:100F6000804000F01FFB01A94FF0804000F050FBD3
:100F700001A94FF0804000F095FB01A94FF080409F
:100F800000F0D8FB4FF4A060FFF7D4FD1C208DF8D3
:100F9000000002208DF8010000208DF802000120E1
:100FA0008DF803006846FFF78DFD0122114690077A
:100FB00000F0E8FA0121880700F063FA09B000BDEB
:100FC0000008014001460020034A506820F44040D8
:100FD00008435060704700000010024029B1064AE3
:100FE00052690243044B5A6104E0034A5269824346
:100FF000014B5A61704700000010024029B1064AB7
:10100000D2690243044BDA6104E0034AD2698243A5
:10101000014BDA61704700000010024029B1064A16
:1010200092690243044B9A6104E0034A9269824345
:10103000014B9A61704700000010024010B500F0AB
:1010400001F810BD0CB500200190009033480068F5
:1010500040F480303149086000BF3048006800F437
:10106000003000900198401C0190009818B9019838
:10107000B0F5A06FF1D12948006800F4003010B13C
:101080000120009001E0002000900098012843D149
:101090002348006840F010002149086008460068B5
:1010A00020F0030008600846006840F00200086075
:1010B0001A48406819494860084640684860084630
:1010C000406840F4806048600846406820F47C1026
:1010D00048600846406840F4E810486008460068E8
:1010E00040F08070086000BF0C48006800F000709D
:1010F0000028F9D00948406820F0030007494860FB
:101100000846406840F00200486000BF034840685D
:1011100000F00C000828F9D10CBD000000100240BE
:101120000020024010B51348006840F0010011494A
:10113000086008464068104908400E494860084663
:1011400000680E4908400B4908600846006820F412
:10115000802008600846406820F4FE0048604FF494
:101160001F008860FFF76AFF4FF0006004490860C5
:1011700010BD0000001002400000FFF8FFFFF6FE67
:1011800008ED00E0F0B50C46154600220021068C63
:101190004FF6FE773E400684028B018C4FF60C76AC
:1011A00032407E1C06EA03162E4332430D4EB042F7
:1011B00008D0B0F1804F05D00B4EB04202D00B4E9C
:1011C000B04206D14FF6FD76314044F0010631437E
:1011D00005E04FF6F576314044F0010631430283D5
:1011E0000184F0BD002C01400004004000080040D4
:1011F000F0B50C461546002200210026078C4FF65C
:10120000EF7C07EA0C070784028B018C4FF6FF770F
:1012100007EA041640F6FF473A404FF6FF7707EA21
:1012200003373A434FF6FF7707EA05273A430E4F55
:10123000B84208D0B0F1804F05D00C4FB84202D070
:101240000B4FB84206D14FF6DF77394046F0100712
:10125000394305E04FF65F77394044F010073943D2
:1012600002830184F0BD0000002C01400004004016
:1012700000080040F0B50C4615460022002100266B
:10128000078C4FF6FF6C07EA0C070784828B018CF2
:101290004FF6FF7707EA04264FF60C773A404FF6F1
:1012A000FF7707EA03172F433A430E4FB84208D09F
:1012B000B0F1804F05D00C4FB84202D00B4FB8426E
:1012C00006D14FF6FF57394046F48077394305E0A1
:1012D0004FF2FF57394044F48077394382830184C9
:1012E000F0BD0000002C0140000400400008004058
:1012F000F0B50C461546002200210026078C4EF65C
:10130000FF7C07EA0C070784828B018C4FF6FF777E
:1013100007EA043640F6FF473A404FF6FF7707EA00
:1013200005273A434FF6FF7707EA03373A430E4F54
:10133000B84208D0B0F1804F05D00C4FB84202D06F
:101340000B4FB84206D14DF6FF77394046F480572F
:10135000394305E047F6FF57394044F48057394395
:1013600082830184F0BD0000002C01400004004095
:10137000000800402DE9FC470121880700F0B1F882
:10138000002866D0FFF748F9044601F0A5F9324974
:101390000860FFF7DDF8044601F09EF92F49086068
:1013A0002F483049304B314ACDE90010304931489F
:1013B000FFF731FA2D49B1F900104FF47A5201FBD1
:1013C00002F0C11700EB5141C91309B2244A118040
:1013D0002648B0F9000000F074FF04460D46254889
:1013E000B0F9000000F06DFF064622462B4600F0E3
:1013F00041FC804600F036FF1F49086005231D4868
:10140000B0F9002003210220FFF702FD0523184850
:10141000B0F9002003210846FFF7FAFC0523134822
:10142000B0F9002003210420FFF7F2FC05230C484B
:10143000B0F900200A210220FFF7EAFC05230E483C
:101440000A2102680320FFF7E3FC0121880700F06E
:1014500015F8BDE8FC8700002000002024000020D3
:101460000A000020080000200600002004000020E0
:1014700002000020000000200C000020CA4302826D
:10148000704721B1028842F00102028004E0028824
:101490004FF6FE731A4002807047F0B50C461546B1
:1014A0001E460021002200230189028B038C4FF687
:1014B000F877394021434FF6FC473A4040F2011794
:1014C0003A434FF6DD773B404FF6FF7707EA0617C2
:1014D0002F433B43018102830384F0BD0146888C86
:1014E000704730B50246002000230024158A05EA23
:1014F0000103958905EA010413B10CB1012000E054
:10150000002030BD70B505460C46208850B92389AF
:10151000A28861882846FFF735FEE188284600F05A
:101520004BF925E0208804280AD12389A288618804
:101530002846FFF75DFEE188284600F046F917E0EF
:10154000208808280AD12389A28861882846FFF7C5
:1015500091FEE188284600F045F909E02389A28838
:1015600061882846FFF7C4FEE188284600F043F969
:1015700070BD002101804180012181800021C18056
:10158000018170471AB183890B43838102E083890B
:101590008B438381704701894FF6F87211400181B6
:1015A0007047000070B5002400220023058C4FF620
:1015B000FE7635400584028C8388048B4FF68F7548
:1015C0002C40B51E2C400D882C43751E2A400D89D9
:1015D0002A434D882A430D4DA84211D1F51F2A40B8
:1015E0004D892A43F51E2A408D882A434FF6FF6510
:1015F0002B404FF6FF552B408D892B43CD892B4334
:1016000083800483CD888586028470BD002C0140D0
:1016100070B5002400220023058C4FF6EF7635408C
:101620000584028C8388048B48F6FF752C404FF6A6
:10163000FF452C400D884FF6FF7606EA05252C4322
:101640004FF6DF752A400D8906EA05152A434D88B5
:1016500006EA05152A43124DA8421BD14FF67F75A5
:101660002A404D8906EA05152A434FF6BF752A40E0
:101670008D8806EA05152A434FF6FF352B404FF2B9
:10168000FF752B408D8906EA85052B43CD8906EA37
:1016900085052B4383800483CD880587028470BD34
:1016A000002C014070B5002400220023058C4FF669
:1016B000FF6635400584028C8388848B4FF68F75D6
:1016C0002C404FF6FC752C400D882C434FF6FF55EF
:1016D0002A400D894FF6FF7606EA05252A434D88F4
:1016E00006EA05252A43124DA8421BD14FF2FF7589
:1016F0002A404D8906EA05252A434FF6FF352A4040
:101700008D8806EA05252A434EF6FF752B404DF6D7
:10171000FF752B408D8906EA05152B43CD8906EA16
:1017200005152B4383808483CD888587028470BD13
:10173000002C014070B5002300220024058C4EF6D9
:10174000FF7635400584028C8488838B48F6FF75CC
:101750002B404FF6FF452B400D884FF6FF7606EAEB
:1017600005252B434DF6FF752A400D8906EA053500
:101770002A434D8806EA05352A43084DA84206D17A
:101780004BF6FF752C408D8906EA85152C43848025
:101790008383CD88A0F84050028470BD002C0140A6
:1017A0000021018041808180C1800181418181814E
:1017B000C181704781847047028B4FF6F3731A40E2
:1017C0000283028B0A4302837047028B4FF2FF337E
:1017D0001A400283028B4FF6FF7303EA01231A4378
:1017E00002837047828B4FF6F3731A408283828B99
:1017F0000A4382837047828B4FF2FF331A40828301
:10180000828B4FF6FF7303EA01231A4382837047EA
:10181000002202880E4B984208D0B0F1804F05D0CC
:101820000C4B984202D00C4B984204D14FF68F7368
:101830001A404B881A4302808B8883850B88038566
:10184000034B984201D10B7A0386012383827047B0
:10185000002C0140000400400008004010B540F298
:101860002551214800F054F801283CD11E4800F0D1
:1018700075F8C4B21D48007858B9402C2DD11C48C9
:10188000007850BB012019490870002019490870E0
:1018900023E01648007801280FD10D2C03D1022037
:1018A0001249087019E01448124909784454114843
:1018B0000078401C0F4908700FE00C48007802289F
:1018C0000BD10A2C09D10020084908700A49094A9D
:1018D0001278885401200649087040F225510248C8
:1018E00000F00CF800BF10BD003801402A000020B5
:1018F000280000202B0000202C00002010B5002222
:1019000000230A1201249440A3B2DC43048010BDDA
:1019100070B502460B460024002100250020C3F3C9
:10192000421503F01F01012606FA01F1012D02D133
:101930009689314006E0022D02D1168A314001E03D
:10194000968A31401C12012606FA04F416883440A7
:1019500011B10CB1012000E0002070BD0146888863
:10196000C0F308007047490050EAC12018BF0420A6
:101970004A0D18BF40F0010040F2FF72B2EB515F18
:1019800008BF40F00200012808BF052070472DE97C
:10199000F0414F1E00EBC7010446D1E90001154696
:1019A0001E4637F006020DD02A46334600F0A0FC52
:1019B0007F1E04EBC703D3E9002300F04BFA37F096
:1019C0000602F1D1022F25D0042F13D0062F18BF05
:1019D000BDE8F0812A46334600F08AFCD4E90A23A8
:1019E00000F038FA2A46334600F082FCD4E9082396
:1019F00000F030FA2A46334600F07AFCD4E9062398
:101A000000F028FA2A46334600F072FCD4E9042399
:101A100000F020FA2A46334600F06AFCD4E902239B
:101A200000F018FA2A46334600F062FCD4E900239D
:101A3000BDE8F04100F00EBA012200F097BE00F0C0
:101A400009BA0000024A0020110700F08FBE000012
:101A500001FDFFFF2DE9F84F04460D4621F000403F
:101A600000917349814211DC7249884201DC06D140
:101A70002CB120462946BDE8F84FFFF7DDBF6E4880
:101A8000002DCCBF6D496E49BDE8F88F6D4981428C
:101A900011DD6D498142D8BF4FF0FF366DDD204624
:101AA0002946FFF760FF042808BFFFF7CBFF204659
:101AB0002946BDE8F88F6549654F25F0004581420C
:101AC00033DD6449814219DD002632464FF0804300
:101AD0002046294600F0BEF980468A46012220466B
:101AE000294600F043FE00223B4600F00BFD424633
:101AF000534600F05FFA04460D463EE00126002200
:101B0000BA463B462046294600F0A4F980460F46D7
:101B1000002253462046294600F0F4FC42463B464C
:101B200000F048FA04460D4627E04B4981421BDD90
:101B3000DFF828A10226002253462046294600F05D
:101B4000D7FB00223B4600F085F980460F46002275
:101B500053462046294600F0D5FC42463B4600F05D
:101B600029FA04460D4608E0032622462B460020AB
:101B70003B4900F01FFA04460D4622462B4610460C
:101B8000194600F0B5FB8B46824602460B4600F034
:101B9000AFFB07460246334888460B460621784489
:101BA000FFF7F5FE52465B4600F0A2FB82462E4848
:101BB0008B463A46434605217844FFF7E8FE3A460D
:101BC000434600F095FB02460B46002E5046594610
:101BD0000CDA00F03FF922462B4600F089FB01B0F9
:101BE00022462B46BDE8F04F00F080BC00F032F9F1
:101BF00022462B4600F07CFB1C4A7A4402EBC603CB
:101C0000D3E9002300F07EFC22462B4600F07AFC4C
:101C1000174A7A4402EBC603D3E9002300F066FCBE
:101C2000009A002AB8BF81F00041BDE8F88F00009B
:101C3000000010440000F07F182D4454FB21F93FB0
:101C4000FB21F9BF0000DC3F0000203E0000F33F15
:101C50000000F03F0000E63F008003400000F83F36
:101C60000000F0BF2E140000EC1300008A130000E7
:101C7000521300002DE9F04D9446CCF1000423F0FE
:101C800000464CEA0404524F46EAD4749A46884609
:101C900021F00042BC4206D8454240EA050442EA2F
:101CA000D474BC4204D9BDE8F04D6246FFF7C7BE0C
:101CB000AAF14055A5F17F6555EA0C040BD002242A
:101CC00004EAAA74434DDFF810E144EAD87452EAFA
:101CD000000B04D00CE0BDE8F04DFFF7BBBE002CBC
:101CE00014BF012CBDE8F08D022C30D0032C32D073
:101CF00056EA0C0B0AD0BE4220D1BA4209D126F0D6
:101D0000804622F080423346114617E000291ADB54
:101D100025E0DFF8C8B0FB44002C04BFDBE900017C
:101D2000BDE8F08D012C02BFDBE9000181F000412C
:101D3000BDE8F08D022C0AD0032C0CD0BA4212D18F
:101D4000B8F1000F0BDA23482549BDE8F08D28468D
:101D50002449BDE8F08D28467146BDE8F08D1D4848
:101D60002149BDE8F08D921B12153C2AC4BF1948C9
:101D70001D490EDCBAF1000FBEBF12F13C0F00206E
:101D8000014606DB624600F015F921F00041FFF73D
:101D900061FE002C08BFBDE8F08D012C04BF81F06E
:101DA0000041BDE8F08D114A114B022C07D000F024
:101DB000A9FB2A46BDE8F04D0A4B00F0A3BB00F09A
:101DC000A1FB2A46BDE8F04D064B00F08FBB00009A
:101DD0000000F07F182D4454FB2109C0E6120000DA
:101DE000FB21F9BFFB210940FB21F93F075C1433BC
:101DF00026A6A13CFEF736FFFEF768FD00F022F8AC
:101E0000FEF72CFAFEF75DFD04460223224601216F
:101E10000846FEF7D3FF08A201210220FFF72BF8A6
:101E200006A201210320FFF726F805A201210420C4
:101E3000FFF721F800BFFEE77800000079000000FE
:101E40007A00000010B5FFF74BF8FEF78FFBFEF7A6
:101E5000F1FB10BD10B591EA030F48BF83F00043BA
:101E600000F15883841A71EB030C05D2121943EB6D
:101E70000C03001B61EB0C01DFF824E14FEA115465
:101E8000A4EB135C1EEA430F18BF9EEA445F73D0B5
:101E900023EA0E03DCF1200E21EA045143F48013FF
:101EA00032D322FA0CFE10EB0E0023FA0CFE41EBAB
:101EB0000E01CCF1200E03FA0EFE10EB0E0051F1D4
:101EC0000001B1F5801FCCF1200E32D201EB04519C
:101ED00012FA0EF2BDE8104058BF7047401C38BFE0
:101EE0005FEA420218BF7047002814BF20F00100CB
:101EF00041F100014FEA410313F5001F38BF70475D
:101F0000A1F1C04100F0ECBA012A43EB0302ACF1AD
:101F1000200CDCF11F0E32BF4FF0000E23FA0CF341
:101F200010EB030041EB0451B4EB115FD0D0A1EBF7
:101F3000045101F5801149085FEA300001EB0451BA
:101F40000ED350F1000038BF12FA0EFE08D1BDE8E2
:101F50001040C9E7401C38BF5FEA4202CAD1C3E75C
:101F6000BDE810404FEA410313F5001F38BF70472A
:101F7000A1F1C04100F0B4BA9EEA445F08D011EA72
:101F80005E0FBDE8104004BF01F000410020704723
:101F9000BDE8104070B500F055FA00BF64FBBE3ECE
:101FA0000000E0FF02494FF0000000F0ADBB00BFB1
:101FB0000000F87F2DE9C04130B4DFF8A0C23CEA50
:101FC000111418BF3CEA131400F0EC8081EA0305F9
:101FD0001CEA111444EAD57418BF1CEA131500F06A
:101FE000C780A4EB05044FF0004545EAC12145EA4E
:101FF000C32341EA505143EA525304F17F7499429A
:1020000004F500344FEAC0204FEAC22208BF9042D4
:1020100000F09C804FEA13650FF24016765D4FEAA0
:10202000134506FB05F7C7F1807706FB07F74FEA74
:10203000D737A7FB03687642C8F58038A7FB06CEE2
:1020400038BFA8F1010807FB08E64FF0000EA6FB19
:10205000028CE6FB03CEDCF1000CCEF1004E38BF63
:10206000AEF1010EA6FB0C584FF000074FF0000533
:10207000E6FB0E87A1FB08C6A0FB07CE16EB0E06FB
:1020800045F10005E1FB076515F1E04E7EBFA4F5C3
:1020900080345FEA46066D4116F1800745F1000580
:1020A0004FEA17274FEA066647EA0567A6F1DE46BC
:1020B000B6F1805F4FEA15251FD9384624F0010C90
:1020C00005EBC471BCF1FE6F01EB0C1102D8F0BC42
:1020D000BDE8008124425CBF01F5801E9EEAC47FFA
:1020E00002D4F0BCBDE80081244238D4F0BCA1F198
:1020F000C041BDE8004100F0F3B94FEAD22242EA04
:1021000043524FEAD323A7FB02864FEAD02040EA8E
:10211000415007FB03661EEA0E0F4FEAD12105FB73
:10212000026658BFA6EB0056B6EB00564FEA520EB9
:102130004EEAC37E18EB0E0E56EB530EBDD518EBD0
:1021400002085E417F1C55F10005B6E74FF480158B
:102150004FF000074FF000064FF00008ADE7F0BC6D
:102160004FF0000001F1C04101F00041BDE80081E5
:1021700011EA0C1F0CEA131500D00CE013EA0C1F37
:1021800000F025804FF00000F0BC81EA030101F06F
:102190000041BDE80081F0BCBDE8004181EA0301D7
:1021A00000F09EB9F0BCBDE8004170B500F04AF9FE
:1021B000097EFC3E00F007B881EA03014FF0000001
:1021C00001F00041704781EA030100F089B9F0BCD9
:1021D000BDE800414FF0000021497047FFFDFBF9C9
:1021E000F7F5F4F2F0EEEDEBE9E8E6E4E3E1E0DE4A
:1021F000DDDBDAD8D7D5D4D3D1D0CFCDCCCBCAC8BC
:10220000C7C6C5C4C2C1C0BFBEBDBCBBBAB9B8B7E2
:10221000B6B5B4B3B2B1B0AFAEADACABAAA9A8A8D5
:10222000A7A6A5A4A3A3A2A1A09F9F9E9D9C9C9BA3
:102230009A9999989797969595949393929191904E
:102240008F8F8E8E8D8C8C8B8B8A898988888787DF
:102250008685858484838382828181800000FF0754
:102260000000F87F4FEA41034FEA5353A3F5806320
:10227000D3F11E03C8BFD3F1210C0CDD4FF0004297
:1022800042EAC12242EA505232FA03FC8CEAE17C73
:10229000ACEBE1707047102BC4BF0020704703F512
:1022A000787CBCF1FF3F04D06FF0004282EA21004D
:1022B000704770B500F0C6F849922480002070473E
:1022C000F2E710F0004248BF4042B0FA80F310FA43
:1022D00003F10AD0C3F11D0303F580634FEA4150B7
:1022E00002EB035202EBD12170474FF00000704720
:1022F000DFF848C170B51CEA111E1EBF1CEA131599
:102300009EEA0C0F95EA0C0F00F06F8081EA03043F
:1023100023EA4C134EEAD47E21EA4C1141F4801199
:1023200043F48013AE44A1FB024CA0FB0365AEF165
:102330007F7E361955EB0C05A1FB034C4CF10003D5
:10234000A0FB021C16EB0C06654153F10003094289
:1023500018BF46F0010613F4007F0BD14FEA03319A
:102360004FEA0530340341EA155140EA16506FF048
:1023700003020AE04FEAC3214FEAC520F40241EA12
:10238000555140EA56506FF0020202EB2E4201EB2B
:10239000025585EACE710AD05FEA440C18BF24F0DA
:1023A000004450F1000041F1000120EAD47040F2F5
:1023B000FE7C624500D270BDA84214BF4FF080443D
:1023C0004FF04044002E08BF0024BEF1806FA8BF2C
:1023D000A1F1C041BDE8704080F282804FF0000062
:1023E00001F1C04101F0004170479EEA0C0F0CEA78
:1023F000131518BF95EA0C0F06D04FF0000081EAC4
:10240000030E0EF0004170BD00F01CF88900013E83
:1024100000F007B800F009B84FEA430C5FEA5C5CD3
:1024200008D081EA030100F05BB84FEA410C5FEA93
:102430005C5CF6D14FF00000014970470000FF07D7
:102440000000F87F0EF1020E2EF0030E5EF8046B12
:10245000364205D4012A43EB030515F5001F12D8B7
:10246000012841EB010C1CF5001F0CD80ED14FEADE
:10247000D17C15F5001F0CEB4C0C0CF1020C08BFC5
:102480004CEBD37C04E04FF0080C01E04FEAD37C26
:102490000CEB4C0526FA05F606F00706B6F1040C1F
:1024A00006D20EEB860CBDE870404CF0010C604784
:1024B000DFE80CF0090B02024FF000414FF0000082
:1024C000A1F5002170BD19461046012851EB010409
:1024D00018BFD4F5001484BF002001F0004170BD86
:1024E0000808A0F500114FEA3101704791EA030F87
:1024F00010B581F000413FF5B5AC83F0004300F02A
:1025000009B8000010B591EA030F48BF83F00043FB
:102510003FF5A8AC841A71EB030C07D212198CF0AA
:10252000004C43EB0C03001B61EB0C01DFF8A4E152
:102530004FEA1154A4EB135C1EEA430F18BF9EEA46
:10254000445F00F0B08023EA6E03524221EA045156
:10255000C3EB6E0338BF5B1EDCF1200E25D322FADD
:102560000CFE10EB0E0043FA0CFE41EB0E01CCF119
:10257000200E03FA0EFE10EB0E0051F10001CCF11B
:10258000200E29D412FA0EF201EB0451BDE81040DE
:1025900058BF7047401C1CBFB2F1004F7047002865
:1025A0000CBF491C20F00100704712EB020E43EBF8
:1025B000030218BF4FF0010E4EEA4202ACF1200CAC
:1025C000DCF11E0E54D943FA0CFE10EB0E0051F153
:1025D000FF31CCF11E0ED5D50EF1010E12FA0EFE12
:1025E000404141EB010101EB445C5FEA5C5C10D9C6
:1025F00010EBDE7001EB045138BFBEF1004FBDE8B7
:10260000104018BF704700280CBF491C20F0010083
:10261000704730D24FEAD42C11F5001124F4006435
:102620001BD0B1FA81F20B3AA41AA41ED2F12003F6
:10263000914030FA03F31943904001EBCC71002C28
:1026400001EB0451BDE81040A8BF704701F1C04143
:102650004FF0000001F000417047B0FA80F310FA2B
:1026600003F100D110BDE41A173C4805C90AE4E79C
:1026700001EB045110BD491001EB0451BDE81040BD
:102680004FEA300002E04FF0000170474A0008BFF7
:102690000042F8D0B2F5001F28BF704701F000419A
:1026A0004FF0000070479EEA445F07D011EA5E0FCA
:1026B000BDE8104004BF002100207047BDE8104075
:1026C00070B5FFF7BFFE00BF40DFF63E83F000416C
:1026D000104670470000E0FF10F0004148BF404244
:1026E000B0FA80F310FA03F2C3F19D030BD051EA64
:1026F000C35101EB1220530638BF704700F10100AF
:1027000008BF20F0010070470CF00F03092B08BF31
:10271000082000F059800A2B0BD0082B18BF7047F7
:1027200008BF1CF0400F0AD04FF000004FF000012E
:1027300070471CF0400F18BF4FF0004070471CF06E
:10274000100F08D020F0704300F07F4242EAD3011E
:102750004FEA4370704700F0604021F07F4242EA48
:10276000000201F07F4040EA727070474FF0FF0CAA
:102770004CF4E06C1CEA11531CBF9CEA030C94451A
:10278000C2BFDA4201EB02517047002B0DD0BCF101
:10279000000F0FD0002A01F00041A4BF41F0E0413A
:1027A00041F07F614FF00000704701F000414FF0B1
:1027B0000000704750EA01334FF09B0C18BF4CF0FB
:1027C000806C7FF4EFAB70471CF4801F11D01CF4B9
:1027D000E02F03D06FEACC31490070474FF04050F2
:1027E000EFF3008222F0704242EA000282F3008896
:1027F00070474FF0000070471010D0FF9014E4AF06
:10280000A4A4A4AFE4040000000000000000000045
:102810000000000000000000040300FF00894B2AB4
:102820001A0E1A2A4B8880000000000000000000E9
:10283000000000000000000090523410FF103452DD
:1028400080708F0808F808000000000000000000F9
:102850000000000000000000829A566322528E00A1
:102860008040330C33408000000000000000000076
:102870000000000000000000C8B88FE888884048C9
:1028800048E85F48484840000000000000000000A1
:102890000000000000000000081808FF0404000207
:1028A0000B1222D20A060000000000000000000007
:1028B0000000000000000000101010FF902010E841
:1028C0002724E4342CE00000000000000000000099
:1028D00000000000000000000242817F0084844765
:1028E000241C071C24478400000000000000000096
:1028F000000000000000000000E03C04063A022650
:102900002EF2228282A2222200000000000000009B
:10291000000000000000000000ED96919997505FC4
:10292000A19F90CF704F8888000000000000000039
:102930000000000000000000007C9494A4642412B5
:102940005232A2A4E4A494A40000000000000000FD
:102950000000000000000000003F2928262524E494
:10296000828382E425262829000000000000000060
:102970000000000000000000000000000000000057
:102980000000000000000000000000F8000000004F
:10299000000000333000000000100C06100C060090
:1029A000000000000000000040C07840C0784000F7
:1029B000043F04043F040400007088FC0830000059
:1029C000001820FF211E0000F008F000E0180000B1
:1029D00000211C031E211E0000F00888700000006A
:1029E0001E2123241927211010160E0000000000BC
:1029F0000000000000000000000000E018040200D9
:102A0000000000071820400000020418E000000049
:102A10000040201807000000404080F08040400047
:102A20000202010F01020200000000F0000000009D
:102A30000101011F01010100000000000000000071
:102A400080B07000000000000000000000000000E6
:102A5000000101010101010100000000000000006F
:102A6000003030000000000000000000806018040A
:102A7000006018060100000000E010080810E000E7
:102A8000000F102020100F00001010F800000000B0
:102A90000020203F202000000070080808887000F7
:102AA0000030282422213000003008888848300077
:102AB0000018202020110E000000C02010F8000097
:102AC00000070424243F240000F808888808080030
:102AD0000019212020110E0000E010888818000045
:102AE000000F112020110E0000380808C838080017
:102AF0000000003F00000000007088080888700097
:102B0000001C222121221C0000E010080810E00017
:102B10000000312222110F00000000C0C0000000A0
:102B200000000030300000000000008000000000C5
:102B300000008060000000000000804020100800BD
:102B40000001020408102000404040404040400086
:102B50000404040404040400000810204080000061
:102B60000020100804020100007048080808F00066
:102B70000000003036010000C030C828E810E00036
:102B80000718272423140B000000C038E0000000C1
:102B9000203C23020227382008F88888887000002B
:102BA000203F202020110E00C030080808083800FF
:102BB000071820202010080008F808080810E00076
:102BC000203F202020100F0008F88888E808100017
:102BD000203F20202320180008F88888E8081000EB
:102BE000203F200003000000C03008080838000023
:102BF00007182020221E020008F808000008F80824
:102C0000203F210101213F20000808F808080000AA
:102C10000020203F2020000000000808F8080800DD
:102C2000C08080807F00000008F888C02818080055
:102C3000203F20012638200008F80800000000008E
:102C4000203F20202020300008F8F800F8F8080085
:102C5000203F003F003F200008F830C00008F8087F
:102C6000203F200007183F00E01008080810E0008F
:102C70000F10202020100F0008F808080808F000A6
:102C8000203F210101010000E01008080810E000C9
:102C90000F18242438504F0008F88888888870005E
:102CA000203F2000030C30200070880808083800FE
:102CB0000038202121221C00180808F808081800F4
:102CC0000000203F2000000008F808000008F80875
:102CD000001F202020201F000878880000C8380826
:102CE000000007380E010000F80800F80008F8009E
:102CF000033C0700073C0300081868808068180838
:102D000020302C03032C30200838C800C8380800B5
:102D10000000203F2000000010080808C838080004
:102D20002038262120201800000000FE02020200A8
:102D30000000007F40404000000C30C00000000058
:102D4000000000010638C00000020202FE00000080
:102D5000004040407F000000000004020202040026
:102D60000000000000000000000000000000000063
:102D7000808080808080808000020204000000004B
:102D80000000000000000000000080808080000043
:102D90000019242222223F2008F800808000000031
:102DA000003F112020110E000000008080800000F4
:102DB000000E112020201100000000808088F80003
:102DC000000E112020103F20000080808080000035
:102DD000001F222222221300008080F08888881899
:102DE0000020203F202000000000808080808000A4
:102DF000006B94949493600008F800808080000039
:102E0000203F210000203F20008098980000000013
:102E10000020203F20200000000000809898000043
:102E200000C08080807F000008F800008080800063
:102E3000203F24022D302000000808F80000000088
:102E40000020203F20200000808080808080800043
:102E5000203F20003F20003F8080008080800000D5
:102E6000203F210000203F20000080808080000063
:102E7000001F202020201F00808000808000000094
:102E800080FFA12020110E000000008080808000C3
:102E9000000E112020A0FF808080800080808000B4
:102EA00020203F21200001000000808080808000E1
:102EB0000033242424241900008080E08080000056
:102EC0000000001F202000008080000000808000A3
:102ED000001F202020103F20808080000080808004
:102EE00000010E3008060100808000800080808094
:102EF0000F300C030C300F000080800080808000B9
:102F00000020312E0E3120008080800000808080E3
:102F100080818E7018060100008080808080800093
:102F20000021302C2221300000000000807C0202B1
:102F300000000000003F404000000000FF000000D3
:102F400000000000FF0000000002027C8000000082
:102F50000040403F0000000000060101020204049E
:102F600000000000000000004FBB610567ACDD3FC2
:102F7000182D4454FB21E93F9BF681D20B73EF3FA0
:102F8000182D4454FB21F93FE2652F227F2B7A3C18
:102F9000075C143326A6813CBDCBF07A8807703CD1
:102FA000075C143326A6913CC4EB98999999C9BF44
:102FB000711623FEC671BCBF6D9A74AFF2B0B3BF79
:102FC0009AFDDE522DDEADBF2F6C6A2C44B4A2BF39
:102FD0000D5555555555D53FFF8300922449C23FA5
:102FE0006E204CC5CD45B73F513DD0A0660DB13FD9
:102FF000EB0D76244B7BA93F11DA22E33AAD903FEB
:103000000000000000000000283000080000002040
:103010002C0000002C010008543000082C00002077
:10302000C406000048010008000000000000000085
:103030000000000000000000000000000000000090
:103040000000000000000000000000000000000080
:04305000000000007C
:04000005080000F1FE
:00000001FF
