:020000040800F2
:10000000480E002001010008BD0600086103000839
:100010008D050008F1010008A90B00080000000090
:10002000000000000000000000000000190A0008A5
:10003000F50100080000000085090008050B000814
:100040001B0100081B0100081B0100081B01000820
:100050001B0100081B0100081B0100081B01000810
:100060001B0100081B0100081B0100081B01000800
:100070001B0100081B0100081B0100081B010008F0
:100080001B0100081B0100081B0100081B010008E0
:100090001B0100081B0100081B0100081B010008D0
:1000A0001B0100081B0100081B0100081B010008C0
:1000B000690B00081B0100081B0100081B01000858
:1000C0001B0100081B0100081B0100081B010008A0
:1000D0001B0100081B0100081B0100081B01000890
:1000E0001B0100081B0100081B010008DFF80CD0F1
:1000F00000F018F800480047CD0B0008480E00201B
:100100000648804706480047FEE7FEE7FEE7FEE7B1
:10011000FEE7FEE7FEE7FEE7FEE7FEE7090B000865
:10012000ED000008064C074D06E0E06840F00103D2
:1001300094E8070098471034AC42F6D3FFF7DAFF93
:10014000141400083414000870B58C1810F8015B02
:1001500015F0070301D110F8013B2A1106D110F860
:10016000012B03E010F8016B01F8016B5B1EF9D164
:100170002B0705D40023521E0DD401F8013BFAE7EA
:1001800010F8013BCB1A921C03E013F8015B01F855
:10019000015B521EF9D5A142D8D3002070BD2DE9D4
:1001A000F04104460D4616461F462A2000F007F986
:1001B000201200F0FBF8E0B200F0F8F8301200F086
:1001C000F5F8F0B200F0F2F82B2000F0F8F8281261
:1001D00000F0ECF8E8B200F0E9F8381200F0E6F8C8
:1001E000F8B200F0E3F82C2000F0E9F8BDE8F08167
:1001F00000BFFEE7704700B5034603E04FF47A7096
:1002000000F005F8181EA3F10103F7D100BD00EBC3
:10021000C001C9004FF0E022516100219161052128
:10022000116100BF4FF0E021096901F4803100291C
:10023000F8D004214FF0E022116170472DE9F04120
:10024000024600250026002000230024002791F804
:1002500003C00CF00F0591F803C00CF0100CBCF1BA
:10026000000F03D091F802C04CEA050591F800C0D8
:10027000BCF1000F31D0146800202BE04FF0010CCE
:100280000CFA00F3B1F800C00CEA03069E4220D13C
:1002900083004FF00F0C0CFA03F7BC4305FA03FC84
:1002A0004CEA040491F803C0BCF1280F06D14FF0CA
:1002B000010C0CFA00FCC2F814C00AE091F803C06B
:1002C000BCF1480F05D14FF0010C0CFA00FCC2F84C
:1002D00010C0401C0828D1D31460B1F800C0BCF194
:1002E000FF0F34DD546800202EE000F1080C4FF0C1
:1002F000010808FA0CF3B1F800C00CEA03069E42AC
:1003000021D183004FF00F0C0CFA03F7BC4305FA20
:1003100003FC4CEA040491F803C0BCF1280F05D19A
:1003200000F1080C08FA0CF8C2F8148091F803C028
:10033000BCF1480F07D100F1080C4FF0010808FA92
:100340000CF8C2F81080401C0828CED35460BDE8D9
:10035000F081016170470AB1016100E041617047BD
:1003600000BFFEE770B50646EF231A460021084697
:10037000FFF715FF00240AE0002504E0304600F0F6
:1003800009F8681C85B2F02DF8DB601C84B2F02CF3
:10039000F2DB70BD10B50446012000F071F92012A7
:1003A00000F052F9E0B200F04FF910BD10B504466C
:1003B000012000F065F9204600F046F910BD10B5A7
:1003C0000446002000F05CF9204600F03DF910BD25
:1003D00008B500F0DDF80121082000F0D5FA40F260
:1003E0000350ADF8000010208DF8030003208DF8B5
:1003F000020069466448FFF721FF40F2031162489A
:10040000FFF7A7FF002000F045F91420FFF7F3FEE7
:10041000012000F03FF91420FFF7EDFE3620FFF732
:10042000CEFF0020FFF7C2FF3A20FFF7C8FF0520EC
:10043000FFF7BCFFB220FFF7C2FF0C20FFF7B6FFAB
:100440000C20FFF7B3FF0020FFF7B0FF3320FFF7CA
:10045000ADFF3320FFF7AAFFB720FFF7B0FF35202D
:10046000FFF7A4FFBB20FFF7AAFF1920FFF79EFFAD
:10047000C020FFF7A4FF2C20FFF798FFC220FFF752
:100480009EFF0120FFF792FFC320FFF798FF122085
:10049000FFF78CFFC420FFF792FF2020FFF786FFB5
:1004A000C620FFF78CFF0F20FFF780FFD020FFF75B
:1004B00086FFA420FFF77AFFA120FFF777FFE02057
:1004C000FFF77DFFD020FFF771FF0420FFF76EFFDD
:1004D0000D20FFF76BFF1120FFF768FF1320FFF7D8
:1004E00065FF2B20FFF762FF3F20FFF75FFF5420DF
:1004F000FFF75CFF4C20FFF759FF1820FFF756FF6E
:100500000D20FFF753FF0B20FFF750FF1F20FFF7D1
:100510004DFF2320FFF74AFFE120FFF750FFD020D7
:10052000FFF744FF0420FFF741FF0C20FFF73EFFD9
:100530001120FFF73BFF1320FFF738FF2C20FFF7B8
:1005400035FF3F20FFF732FF4420FFF72FFF5120F8
:10055000FFF72CFF2F20FFF729FF1F20FFF726FFB3
:100560001F20FFF723FF2020FFF720FF2320FFF7A6
:100570001DFF2120FFF723FF1120FFF720FF292077
:10058000FFF71DFF08BD0000000C014000BFFEE7A3
:1005900000B587B00121042000F0F6F9012108031D
:1005A00000F0F2F91020ADF818008DF81B000320C0
:1005B0008DF81A0006A92248FFF740FEB020ADF8DA
:1005C000180018208DF81B0003208DF81A0006A9CA
:1005D0001B48FFF733FE4020ADF8180048208DF887
:1005E0001B0003208DF81A0006A91548FFF726FE08
:1005F0004FF48270ADF806003020ADF810000120F5
:10060000ADF80C000220ADF80A000720ADF8140088
:100610000020ADF80800ADF80400ADF812004FF46A
:100620000070ADF80E0001A9064800F0D7F90121CD
:10063000044800F0B9F9012000F036F807B000BD19
:10064000000801400030014010B5044600BF0221FF
:100650000A4800F0B5F90128F9D12146074800F011
:10066000BBF900BF0121054800F0AAF90128F9D122
:10067000024800F0AEF9C0B210BD000000300140E9
:1006800010B50446224602210148FFF764FE10BD62
:10069000000C014010B50446224601210148FFF735
:1006A0005AFE10BD000C014010B504462246102130
:1006B0000148FFF750FE10BD00080140704770B5BB
:1006C00000240EE00021204600F0DDF8002504E0C3
:1006D000002000F047F9681CC5B2802DF8DB601CD3
:1006E000C4B2082CEEDB70BD08B50121082000F073
:1006F0004BF914208DF8030003208DF8020000024E
:10070000ADF8000069460748FFF798FD0122110285
:100710000448FFF720FE012251020248FFF71BFEAA
:1007200008BD0000000C014070B50546002415E02E
:100730008020204100EA05024FF400710E48FFF7C7
:100740000AFE012211020C48FFF705FE00224FF4B9
:1007500080710948FFF7FFFD601CC4B2082CE7DB7D
:10076000012211020448FFF7F6FD00224FF48071C8
:100770000148FFF7F0FD70BD000C014010B50122EB
:1007800051020A48FFF7E7FD012211020748FFF76F
:10079000E2FD00224FF400710448FFF7DCFD002267
:1007A0004FF480710148FFF7D6FD10BD000C0140E9
:1007B00010B500224FF400710648FFF7CCFD01226E
:1007C00011020448FFF7C7FD012251020148FFF75B
:1007D000C2FD10BD000C014070B5002406E00025EC
:1007E00000E06D1CB5F57A7FFBD3641CB4F57A7F0D
:1007F000F5D3FFF779FFAE2000F0A4F8D52000F084
:10080000A1F8802000F09EF8A82000F09BF83F207F
:1008100000F098F8D32000F095F8002000F092F84E
:10082000402000F08FF8A12000F08CF8C82000F0E4
:1008300089F8DA2000F086F8122000F083F8812091
:1008400000F080F8CF2000F07DF8D92000F07AF891
:10085000F12000F077F8DB2000F074F8302000F091
:1008600071F8A42000F06EF8A62000F06BF88D203F
:1008700000F068F8142000F065F8AF2000F062F88E
:10088000FFF71DFF70BD70B505460C4645F0B00082
:1008900000F058F8102141EA141000F053F804F069
:1008A0000F0000F04FF870BD2DE9F04105460E46EF
:1008B0001746721ED206110E6A1E5206100EFFF760
:1008C000E2FF002409E0A7F12001134A02EB011125
:1008D000085D00F047F8601CC4B2082CF3DB721E00
:1008E000D206110E6A1E012303EB4202D0B2FFF7BB
:1008F000CAFF00240BE0A7F12001074A02EB011216
:1009000004F10801505C00F02DF8601CC4B2082C02
:10091000F1DBBDE8F0810000240E00082DE9F04174
:1009200007460E461546002407E02A5D3019C1B27D
:100930003846FFF7B9FF601CC4B2285D0028F4D127
:10094000BDE8F08110B50446FFF718FF7820FFF7E7
:10095000EBFE0020FFF7E8FE2046FFF7E5FEFFF77D
:1009600027FF10BD10B50446FFF708FF7820FFF7FA
:10097000DBFE4020FFF7D8FE2046FFF7D5FEFFF74D
:1009800017FF10BD7047000029B1064A9269024363
:10099000044B9A6104E0034A92698243014B9A61D5
:1009A000704700000010024021B1028842F040026E
:1009B000028004E002884FF6BF731A40028070473D
:1009C0000246002013890B400BB1012000E00020FB
:1009D00070470146888970478181704710B50022B1
:1009E000028802F441520B884C8823438C882343AD
:1009F000CC8823430C8923434C8923438C8923438C
:100A0000CC8923431A430280838B4FF2FF74234027
:100A100083830B8A038210BD704710B500F002F883
:100A200010BD00000CB50020019000903348006814
:100A300040F480303149086000BF3048006800F45D
:100A4000003000900198401C0190009818B901985E
:100A5000B0F5A06FF1D12948006800F4003010B162
:100A60000120009001E0002000900098012843D16F
:100A70002348006840F010002149086008460068DB
:100A800020F0030008600846006840F0020008609B
:100A90001A48406819494860084640684860084656
:100AA000406840F4806048600846406820F47C104C
:100AB00048600846406840F4E8104860084600680E
:100AC00040F08070086000BF0C48006800F00070C3
:100AD0000028F9D00948406820F003000749486021
:100AE0000846406840F00200486000BF0348406884
:100AF00000F00C000828F9D10CBD000000100240E5
:100B0000002002407047000010B51348006840F014
:100B100001001149086008464068104908400E4924
:100B20004860084600680E4908400B4908600846BE
:100B3000006820F4802008600846406820F4FE0029
:100B400048604FF41F008860FFF767FF4FF00060B8
:100B50000449086010BD0000001002400000FFF8CA
:100B6000FFFFF6FE08ED00E010B50121880700F058
:100B70000AF8012803D10121800700F001F810BD17
:100B8000CA430282704730B5024600200023002489
:100B9000158A05EA0103958905EA010413B10CB130
:100BA000012000E0002030BD00BFFEE702E008C8E1
:100BB000121F08C1002AFAD170477047002001E0D7
:100BC00001C1121F002AFBD170470000FFF704FE8D
:100BD000FFF7FEFB4FF6FF70FFF7C4FB0EA20121EB
:100BE0000846FFF79BFE4FF6FF700D490880002076
:100BF0000C49088000221146012000F015F801225E
:100C00000021212000F010F802220021412000F0F4
:100C10000BF800BFFEE7000068656C6C6F00000019
:100C2000400A0020420A00202DE9F04704460D4604
:100C30001646DFF8648005F11F0C1FFA8CF304F1EF
:100C40001F0C1FFA8CF2A9B2A0B2FFF7A8FA08EBAA
:100C5000C6184FF000091AE0002710E098F80000CD
:100C60000121B940084020B10C480088FFF792FBF1
:100C700003E00B480088FFF78DFB781CC7B2082FF4
:100C8000ECDB08F1010809F1010000F0FF09B9F1FE
:100C9000800FE1DBBDE8F08700000020420A002061
:100CA000400A00201010D0FF9014E4AFA4A4A4AF19
:100CB000E40400000000000000000000000000004C
:100CC00000000000040300FF00894B2A1A0E1A2AB4
:100CD0004B888000000000000000000000000000C1
:100CE0000000000090523410FF10345280708F08C2
:100CF00008F80800000000000000000000000000EC
:100D000000000000829A566322528E008040330C0D
:100D100033408000000000000000000000000000E0
:100D200000000000C8B88FE88888404848E85F485D
:100D300048484000000000000000000000000000E3
:100D400000000000081808FF040400020B1222D261
:100D50000A06000000000000000000000000000083
:100D600000000000101010FF902010E82724E43449
:100D70002CE0000000000000000000000000000067
:100D8000000000000242817F00848447241C071C6D
:100D90002447840000000000000000000000000064
:100DA0000000000000E03C04063A02262EF22282F7
:100DB00082A22222000000000000000000000000CB
:100DC0000000000000ED96919997505FA19F90CF91
:100DD000704F888800000000000000000000000044
:100DE00000000000007C9494A46424125232A2A457
:100DF000E4A494A400000000000000000000000033
:100E000000000000003F2928262524E4828382E494
:100E10002526282900000000000000000000000036
:100E200000000000000000000000000000000000C2
:100E300000000000000000F8000000000000003387
:100E40003000000000100C06100C0600000000002E
:100E50000000000040C07840C0784000043F040417
:100E60003F040400007088FC08300000001820FFD8
:100E7000211E0000F008F000E018000000211C0313
:100E80001E211E0000F00888700000001E2123248F
:100E90001927211010160E000000000000000000AD
:100EA00000000000000000E018040200000000073D
:100EB0001820400000020418E00000000040201844
:100EC00007000000404080F0804040000202010F17
:100ED00001020200000000F0000000000101011FFB
:100EE00001010100000000000000000080B070005F
:100EF00000000000000000000000000000010101EF
:100F0000010101010000000000000000003030007D
:100F10000000000000000000806018040060180657
:100F20000100000000E010080810E000000F102091
:100F300020100F00001010F8000000000020203FDB
:100F40002020000000700808088870000030282465
:100F50002221300000300888884830000018202006
:100F600020110E000000C02010F80000000704242B
:100F7000243F240000F80888880808000019212070
:100F800020110E0000E0108888180000000F1120CA
:100F900020110E0000380808C83808000000003F83
:100FA000000000000070880808887000001C2221E2
:100FB00021221C0000E010080810E000000031228F
:100FC00022110F00000000C0C0000000000000302F
:100FD0003000000000000080000000000000806081
:100FE0000000000000008040201008000001020402
:100FF00008102000404040404040400004040404E9
:1010000004040400000810204080000000201008A4
:1010100004020100007048080808F00000000030D9
:1010200036010000C030C828E810E0000718272467
:1010300023140B000000C038E0000000203C230215
:101040000227382008F8888888700000203F202078
:1010500020110E00C03008080808380007182020AA
:101060002010080008F808080810E000203F2020A1
:1010700020100F0008F88888E8081000203F202082
:101080002320180008F88888E8081000203F200076
:1010900003000000C03008080838000007182020AE
:1010A000221E020008F808000008F808203F21016D
:1010B00001213F20000808F8080800000020203F18
:1010C0002020000000000808F8080800C080808088
:1010D0007F00000008F888C028180800203F200181
:1010E0002638200008F8080000000000203F2020DB
:1010F0002020300008F8F800F8F80800203F003FF2
:10110000003F200008F830C00008F808203F200009
:1011100007183F00E01008080810E0000F1020201A
:1011200020100F0008F808080808F000203F2101EF
:1011300001010000E01008080810E0000F18242446
:1011400038504F0008F8888888887000203F2000B9
:10115000030C30200070880808083800003820216F
:1011600021221C00180808F8080818000000203F79
:101170002000000008F808000008F808001F2020E0
:1011800020201F000878880000C8380800000738B1
:101190000E010000F80800F80008F800033C070002
:1011A000073C0300081868808068180820302C036A
:1011B000032C30200838C800C83808000000203F41
:1011C0002000000010080808C83808002038262130
:1011D00020201800000000FE020202000000007F34
:1011E00040404000000C30C0000000000000000142
:1011F0000638C00000020202FE000000004040402D
:101200007F00000000000402020204000000000051
:1012100000000000000000000000000080808080CE
:1012200080808080000202040000000000000000B6
:10123000000000000000808080800000001924224F
:1012400022223F2008F8008080000000003F11208B
:1012500020110E000000008080800000000E112090
:1012600020201100000000808088F800000E11206E
:1012700020103F200000808080800000001F22227C
:1012800022221300008080F0888888180020203FE8
:10129000202000000000808080808000006B9494FB
:1012A0009493600008F8008080800000203F2100B7
:1012B00000203F2000809898000000000020203F80
:1012C00020200000000000809898000000C080806E
:1012D000807F000008F8000080808000203F24020A
:1012E0002D302000000808F8000000000020203FFA
:1012F000202000008080808080808000203F2000AF
:101300003F20003F8080008080800000203F21003F
:1013100000203F200000808080800000001F2020EF
:1013200020201F00808000808000000080FFA1201E
:1013300020110E000000008080808000000E11202F
:1013400020A0FF80808080008080800020203F21BE
:101350002000010000008080808080000033242471
:1013600024241900008080E0808000000000001F1D
:10137000202000008080000000808000001F2020CE
:1013800020103F20808080000080808000010E308F
:101390000806010080800080008080800F300C03F0
:1013A0000C300F0000808000808080000020312EF3
:1013B0000E312000808080000080808080818E70CF
:1013C0001806010000808080808080000021302C81
:1013D0002221300000000000807C0202000000009A
:1013E000003F404000000000FF000000000000003F
:1013F000FF0000000002027C800000000040403F2F
:1014000000000000000601010202040400000000C8
:10141000000000003414000800000020440A00000E
:1014200048010008C0190008440A00200404000014
:10143000BC0B00080121120E1A070439021EF0FF2E
:10144000190EF804157860180E19041BC070041EDC
:1014500031180E803B101A1F044A0E0813C03F14A7
:101460000EF873140EFEE0260F7E809D0F23F80702
:1014700023F0030232C01380011470C0011009F080
:10148000C00104E0E3FF0F1AE7041230120F123814
:1014900010120E1EEC3F0EFEE1380EFC63380C10ED
:1014A000E03F0C1460300C1468380E1808E63F0E4C
:1014B000C0E7180E72170FF001800F701AFE80033C
:1014C00034F8011C800338041A7804127C1014804C
:1014D000C3FF0FF0CFFF0FF81FC3019803C70180B0
:1014E00003C6180EC0E7FF7FE0EFFF7FF033383C04
:1014F000BC2C1A9E241A8EA84938C90411031A015B
:10150000182AC0045A030419AB1AE00823E0062382
:10151000700C1A78381A3840231C70140EE001142D
:10152000EEC1031808C7C3078083871F2B33FF60F2
:101530001238120E240CF03F337F3C321C9A0E04FA
:101540001A07C9290499600121227C14E7FF011BB5
:101550003EF04369044AE0041A0C72238C631BFCBE
:10156000670C291059046920390422F61BFEFF0874
:1015700022F81A06B8116904012019E0111AF004C2
:101580001A783810161C06800F1E1EFC1F381E38D5
:10159000CE380738CEB9033886FB14388733100CA1
:1015A0003807307CF807F0FF38E07F3430FC3069D2
:1015B00004A96C6904194C3904323F323E02171CED
:1015C0009A0F0422072380FB14C0FF0113C070147C
:1015D00080673814FC0F1C101D1807EC031807FF58
:1015E0000738F387073873DE03F877CE017860CECB
:1015F000013060CE381F60FE7F80FF1F67190439FD
:101600006C1A73441AE34413E10114E0C00314702C
:10161000C01F04221C807F1A38AF22F013FF701BFA
:10162000E07BC01A38041A1C041A0E881A07081A1C
:101630006704143E7003141E730E18150E733E805B
:101640008F737CC0CD7378F0CC71707CCE71703CA0
:1016500028292C69041CC00F73381A7ED3327C32BF
:1016600078021630326019A749040A15010413F1F3
:10167000031CC0FF0303119B80CF181AE034390408
:1016800022061B700E041A1CB81A3C0419701A1C8E
:10169000CC10090EF0038003E00FC0031EC07F19B9
:1016A000A423F0FF337F381944230F1E2A3C504AED
:1016B0000760299C1AF00C1A78181A1C2C480C0F79
:1016C000F803C0C3E37F78C0C11F8C223F2AFC040B
:1016D000E9B82FFF07F0FFFF0F3F0122326013FE32
:1016E000011AFFE51A7E75140EE0011B1CE070293B
:1016F000044A70041ADCA41AF84D72184A0CAF118F
:101700001A3CEC1A1E301A0E38180807C00780035E
:10171000800F7F1A0F3A1A0FD22A0627011A1922B0
:101720001A03041B07DC04100AFE038003C60180B1
:101730000DE314C0BD7F14C01C38180CE00C9C03D2
:10174000700EFE07F0E70F28100E8F0180838703CD
:1017500080C1C101E0EFE314E0733F24E0801F2368
:10176000D87D10106FDE01E031BF07FC803B3F3CAD
:10177000E0307E3370302904195C11323F5A1EB1BB
:1017800001132A061F1380033C1EC007C4230E78D2
:101790001A0E301B063B0419401A36041A7704103F
:1017A0000B73F81FE03FFE01FCFB3F14803B181455
:1017B0008039381B801D041B1F7CEA1AFC4413CCA3
:1017C0000120113FCE03803B8707C0F1030FE0C02B
:1017D000013F70031DFE1819C01AF8DC1BC001047C
:1017E00013E1031FC0BF07C0FF813C169D0160DCF1
:1017F000011470D80E1B700742327E1A70281AF836
:10180000301A1C0823FE0313C3011B80F10C23783C
:101810003C180EDEF10380E7EE7FE0F83F07307CF6
:10182000101B701CFB19041A1CF423CE0E1B870F0F
:1018300063021F0719F423C03F1AFF401A0C3C1122
:1018400019041A07041A0E401A1C041A38041A70D4
:10185000442AE00419805AC00429101AF01C29886F
:10186000233C7C10090FF801C003F007601AE04D1B
:101870001A8004011829644A3E231AF0481BD80133
:101880000C290413F13F6EF8FF3FF89F101AFD0377
:1018900013E7011B87E10422E723F6F74B8E71045F
:1018A0001AEC3C6ABC28221F1AF804390C290413CC
:1018B000E1034EF0FF07E07F0F011132E039C41958
:1018C0001D7904192D23FC0F1BFE390C22791ACE29
:1018D0000823DE1D1ADCE414C0F10717E0FF0FF047
:1018E000FF011AC05B111AF0141AF82C2AF82029EB
:1018F0002C22F1280DC7E10380C3C11FE0C0017F86
:1019000030506AE058296C811BF010012AFF050253
:1019100015F01B0F04012AFF05195E01111809407B
:1019200040405F55555575041A5F0C091121080C8C
:1019300011200F094989790909090F201F112FFE6C
:1019400002424ACA4A0304134202FE000E14FF4038
:10195000504C4340404F50505C40FF1BF888012AD8
:10196000FF050215F81B1F08012A7F200B109F801E
:10197000E23B808201000916E2A2928A8682808080
:10198000041840807F172424A4FEA3221B22CCAA83
:10199000011415080601FF2B0104010511FF0202C5
:1019A000025808101010FF109008C3021108080F09
:1019B000140444827F01808040432C10284681A07B
:04000005080000ED02
:00000001FF
