:020000040800F2
:10000000C80600208D01000895010008970100082E
:10001000990100089B0100089D01000800000000F4
:100020000000000000000000000000009F01000828
:10003000A101000800000000A3010008A5010008BC
:10004000A7010008A7010008A7010008A7010008F0
:10005000A7010008A7010008A7010008A7010008E0
:10006000A7010008A7010008A7010008A7010008D0
:10007000A7010008A7010008A7010008A7010008C0
:10008000A7010008A7010008A7010008A7010008B0
:10009000A7010008A7010008A7010008A7010008A0
:1000A000A7010008A7010008A7010008A701000890
:1000B000A7010008A7010008A7010008A701000880
:1000C000A7010008A7010008A7010008A701000870
:1000D000A701000885080008A7010008A70100087B
:1000E000A7010008A7010008A7010008A701000850
:1000F00000F002F800F03AF80AA090E8000C824400
:100100008344AAF10107DA4501D100F02FF8AFF2DC
:10011000090EBAE80F0013F0010F18BFFB1A43F0E5
:1001200001031847F013000010140000103A24BF18
:1001300078C878C1FAD8520724BF30C830C144BF4C
:1001400004680C607047000000230024002500268E
:10015000103A28BF78C1FBD8520728BF30C148BF2A
:100160000B6070471FB51FBD10B510BD00F031F812
:100170001146FFF7F7FF00F00BFC00F04FF803B457
:10018000FFF7F2FF03BC00F057F800000948804772
:1001900009480047FEE7FEE7FEE7FEE7FEE7FEE769
:1001A000FEE7FEE7FEE7FEE704480549054A064B81
:1001B0007047000025080008F1000008C800002072
:1001C000C8060020C8020020C802002070477047FF
:1001D0007047754600F02CF8AE4605006946534658
:1001E00020F00700854618B020B5FFF7DDFFBDE819
:1001F00020404FF000064FF000074FF000084FF08E
:10020000000B21F00701AC46ACE8C009ACE8C0091E
:10021000ACE8C009ACE8C0098D46704710B504468B
:10022000AFF300802046BDE81040FFF7A8BF0000F4
:10023000004870476800002001491820ABBEFEE767
:100240002600020070472DE9F041024600250026F5
:10025000002000230024002791F803C00CF00F05B4
:1002600091F803C00CF0100CBCF1000F03D091F812
:1002700002C04CEA050591F800C0BCF1000F31D076
:10028000146800202BE04FF0010C0CFA00F3B1F8D9
:1002900000C00CEA03069E4220D183004FF00F0CF1
:1002A0000CFA03F7BC4305FA03FC4CEA040491F88A
:1002B00003C0BCF1280F06D14FF0010C0CFA00FC72
:1002C000C2F814C00AE091F803C0BCF1480F05D190
:1002D0004FF0010C0CFA00FCC2F810C0401C0828BA
:1002E000D1D31460B1F800C0BCF1FF0F34DD546805
:1002F00000202EE000F1080C4FF0010808FA0CF382
:10030000B1F800C00CEA03069E4221D183004FF0F1
:100310000F0C0CFA03F7BC4305FA03FC4CEA040487
:1003200091F803C0BCF1280F05D100F1080C08FAC0
:100330000CF8C2F8148091F803C0BCF1480F07D143
:1003400000F1080C4FF0010808FA0CF8C2F8108010
:10035000401C0828CED35460BDE8F081016170478D
:100360000AB1016100E041617047000008B5012158
:10037000102000F0D3F910208DF803004002ADF8F2
:10038000000003208DF8020069460448FFF75BFF78
:100390004FF400510148FFF7E1FF08BD0010014094
:1003A00070B500240EE00021204600F0E6F800259C
:1003B00004E0002000F0A1F9681CC5B2802DF8DB34
:1003C000601CC4B2082CEEDB70BD000008B5012132
:1003D000082000F0A3F914208DF8030003208DF805
:1003E00002004FF48070ADF8000069460A48FFF73C
:1003F0002AFF4FF40070ADF8000069460648FFF789
:1004000022FF012211020448FFF7AAFF0122510234
:100410000148FFF7A5FF08BD000C014070B5054677
:10042000002415E08020204100EA05024FF400710D
:100430000E48FFF795FF012211020C48FFF790FFCD
:1004400000224FF480710948FFF78AFF601CC4B294
:10045000082CE7DB012211020448FFF781FF00228C
:100460004FF480710148FFF77BFF70BD000C014025
:1004700010B5012251020A48FFF772FF0122110252
:100480000748FFF76DFF00224FF400710448FFF7A3
:1004900067FF00224FF480710148FFF761FF10BD34
:1004A000000C014010B500224FF400710648FFF720
:1004B00057FF012211020448FFF752FF01225102A7
:1004C0000148FFF74DFF10BD000C014070B500243E
:1004D00006E0002500E06D1CB5F57A7FFBD3641CB7
:1004E000B4F57A7FF5D3FFF771FFAE2000F0F5F891
:1004F000D52000F0F2F8802000F0EFF8A82000F0FE
:10050000ECF83F2000F0E9F8D32000F0E6F80020F6
:1005100000F0E3F8402000F0E0F8A12000F0DDF862
:10052000C82000F0DAF8DA2000F0D7F8122000F046
:10053000D4F8812000F0D1F8CF2000F0CEF8D920F7
:1005400000F0CBF8F12000F0C8F8DB2000F0C5F88F
:10055000302000F0C2F8A42000F0BFF8A62000F080
:10056000BCF88D2000F0B9F8142000F0B6F8AF20E8
:1005700000F0B3F8FFF714FF70BD70B505460C46E8
:1005800045F0B00000F0A9F8102141EA141000F085
:10059000A4F804F00F0000F0A0F870BD2DE9F041C0
:1005A00005460E461746721ED206110E6A1E5206E8
:1005B000100EFFF7E2FF002409E0A7F12001134A23
:1005C00002EB0111085D00F098F8601CC4B2082C21
:1005D000F3DB721ED206110E6A1E012303EB4202E8
:1005E000D0B2FFF7CAFF00240BE0A7F12001074AB1
:1005F00002EB011204F10801505C00F07EF8601C6F
:10060000C4B2082CF1DBBDE8F0810000240F000823
:100610002DE9F04105460E461746721E1207110ECF
:100620006A1E5206100EFFF7A8FF002407E0124AC8
:1006300002EB8711085D00F060F8601CC4B2102C5A
:10064000F5DB721E1207110E6A1E012303EB420234
:10065000D0B2FFF792FF002409E07900491C064A56
:1006600002EB4111085D00F048F8601CC4B2102C88
:10067000F3DBBDE8F0810000E40900082DE9F04754
:1006800080460E4614461F464FF0000925460BE0F3
:100690004846421C02F0FF093044C1B22A46404697
:1006A000FFF7B6FF681CC5B2E019A842F0DCBDE850
:1006B000F0872DE9F04107460E461546002407E075
:1006C0002A5D3019C1B23846FFF768FF601CC4B21A
:1006D000285D0028F4D1BDE8F08110B50446FFF78D
:1006E000C7FE7820FFF79AFE0020FFF797FE20460E
:1006F000FFF794FEFFF7D6FE10BD10B50446FFF7D6
:10070000B7FE7820FFF78AFE4020FFF787FE2046DD
:10071000FFF784FEFFF7C6FE10BD000029B1064AB0
:1007200092690243044B9A6104E0034A926982434E
:10073000014B9A61704700000010024010B500F0B4
:1007400001F810BD0CB500200190009033480068FE
:1007500040F480303149086000BF3048006800F440
:10076000003000900198401C0190009818B9019841
:10077000B0F5A06FF1D12948006800F4003010B145
:100780000120009001E0002000900098012843D152
:100790002348006840F010002149086008460068BE
:1007A00020F0030008600846006840F0020008607E
:1007B0001A48406819494860084640684860084639
:1007C000406840F4806048600846406820F47C102F
:1007D00048600846406840F4E810486008460068F1
:1007E00040F08070086000BF0C48006800F00070A6
:1007F0000028F9D00948406820F003000749486004
:100800000846406840F00200486000BF0348406866
:1008100000F00C000828F9D10CBD000000100240C7
:100820000020024010B51348006840F00100114953
:10083000086008464068104908400E49486008466C
:1008400000680E4908400B4908600846006820F41B
:10085000802008600846406820F4FE0048604FF49D
:100860001F008860FFF76AFF4FF0006004490860CE
:1008700010BD0000001002400000FFF8FFFFF6FE70
:1008800008ED00E010B540F22551214800F054F881
:1008900001283CD11E4800F075F8C4B21D4800780C
:1008A00058B9402C2DD11C48007850BB0120194963
:1008B000087000201949087023E0164800780128C4
:1008C0000FD10D2C03D102201249087019E01448F1
:1008D00012490978445411480078401C0F490870A7
:1008E0000FE00C48007802280BD10A2C09D1002017
:1008F000084908700A49094A1278885401200649B3
:10090000087040F22551024800F00CF800BF10BDFD
:1009100000380140010000200000002002000020FB
:100920000400002010B5002200230A120124944084
:10093000A3B2DC43048010BD70B502460B46002410
:10094000002100250020C3F3421503F01F010126FA
:1009500006FA01F1012D02D19689314006E0022DFF
:1009600002D1168A314001E0968A31401C120126DC
:1009700006FA04F41688344011B10CB1012000E0ED
:10098000002070BD01468888C0F308007047000051
:10099000FFF7ECFCFFF79AFD0FA201210846FFF7D5
:1009A00088FE0323002205210120FFF767FE0523AF
:1009B000032201210220FFF761FE05230822012105
:1009C0000320FFF75BFE04230D2201211846FFF7E9
:1009D00055FE00BFFEE700006C697578756E7A6998
:1009E00000000000000000C0242CA0600000E00017
:1009F000FC040000000000000000000000000000F7
:100A00000000000000202010090607180000032045
:100A10007F00000000000000000000000000000057
:100A2000000000000000404008C02090AEA0202040
:100A3000E0200000000000000000000000000000B6
:100A4000000000000000100E01000F0A080F2060D7
:100A50001F00000000000000000000000000000077
:100A60000000000000004040DA242000305014F064
:100A700080808000000000000000000000000000F6
:100A800000000000000804037E0101010505FF04C9
:100A90000400000000000000000000000000000052
:100AA000000000000000C0A0986020F00000E018E6
:100AB0000000000000000000000000000000000036
:100AC000000000000010141312180C23160807066B
:100AD000083020200000000000000000000000009E
:100AE00000000000000010101090F09E9250D008FE
:100AF00008080000000000000000000000000000E6
:100B0000000000000000040201300F0A02007F0014
:100B100000000000000000000000000000000000D5
:100B2000000000000000004000F02090F49490507D
:100B300000000000000000000000000000000000B5
:100B400000000000000444221E0304241C070A12B3
:100B50002222000000000000000000000000000051
:100B60000000000000000000F8088808F824F40CD9
:100B70000000000000000000000000000000000075
:100B8000000000000020100E11080403060C0718D6
:100B900030203800000000000000000000000000CD
:100BA000000000000000000040FCA0A080809070C9
:100BB0001000000000000000000000000000000025
:100BC0000000000000211907090F14102324686891
:100BD000642620000000000000000000000000006B
:100BE00000000000000000000000C0BC0800000081
:100BF00000000000000000000000000000000000F5
:100C000000000000000010080601000001020C189E
:100C100010100000000000000000000000000000B4
:100C2000000000000000008060904042FE40400054
:100C300000000000000000000000000000000000B4
:100C40000000000000202021202024221F2222104A
:100C50001010200000000000000000000000000054
:100C60000000000000000010100888E8381808088C
:100C70000808000000000000000000000000000064
:100C800000000000001010080402013F00000102F3
:100C9000060C000000000000000000000000000042
:100CA00000000000000020202020A0565C505010C2
:100CB0001010000000000000000000000000000014
:100CC000000000000000000000182A2925253D0032
:100CD0000000000000000000000000000000000014
:100CE000000000000000000848E8584E48A86400D2
:100CF00000000000000000000000000000000000F4
:100D00000000000002020242320F020202FF020152
:100D100001010100000000000000000000000000D0
:100D2000000000000000C048483808003828E828C3
:100D30009888000000000000000000000000000093
:100D400000000000000023427E02202325251F15FD
:100D50001A31000000000000000000000000000048
:100D60000000000000000000F8088808F824F40CD7
:100D70000000000000000000000000000000000073
:100D8000000000000020100E11080403060C0718D4
:100D900030203800000000000000000000000000CB
:100DA000000000000000C04040E040C03A4C20601D
:100DB00020200000000000000000000000000000F3
:100DC0000000000000000702232111080707081097
:100DD00020200000000000000000000000000000D3
:100DE00000000000000000407AA48080F8A0FE50BF
:100DF0007010000000000000000000000000000073
:100E000000000000000404223F0023120F02FF0133
:100E1000090D0300000000000000000000000000B9
:100E200000000000080808F8000000000000000FA3
:100E3000080808000000000000000000000000009A
:100E40000000000000202028E8000000000808083A
:100E50000F08080000000000000000000000000073
:100E60000000000000E0000000E0E00000070C08C7
:100E7000080F030000000000000000000000000058
:100E80000000000000206080806020000008060351
:100E9000030C08000000000000000000000000003B
:100EA0000000000000E0000000E0E00000070C0887
:100EB000080F030000000000000000000000000018
:100EC0000000000000E0402020E0C000000F000013
:100ED000000F0F00000000000000000000000000F4
:100EE0000000000000202020A060000000080E0B81
:100EF00009080800000000000000000000000000D9
:100F00000000000000202028E80000000008080879
:100F10000F080800000000000000000000000000B2
:100F200000000000000000000000000000000000C1
:100F300000000000000000F8000000000000003386
:100F40003000000000100C06100C0600000000002D
:100F50000000000040C07840C0784000043F040416
:100F60003F040400007088FC08300000001820FFD7
:100F7000211E0000F008F000E018000000211C0312
:100F80001E211E0000F00888700000001E2123248E
:100F90001927211010160E000000000000000000AC
:100FA00000000000000000E018040200000000073C
:100FB0001820400000020418E00000000040201843
:100FC00007000000404080F0804040000202010F16
:100FD00001020200000000F0000000000101011FFA
:100FE00001010100000000000000000080B070005E
:100FF00000000000000000000000000000010101EE
:10100000010101010000000000000000003030007C
:101010000000000000000000806018040060180656
:101020000100000000E010080810E000000F102090
:1010300020100F00001010F8000000000020203FDA
:101040002020000000700808088870000030282464
:101050002221300000300888884830000018202005
:1010600020110E000000C02010F80000000704242A
:10107000243F240000F8088888080800001921206F
:1010800020110E0000E0108888180000000F1120C9
:1010900020110E0000380808C83808000000003F82
:1010A000000000000070880808887000001C2221E1
:1010B00021221C0000E010080810E000000031228E
:1010C00022110F00000000C0C0000000000000302E
:1010D0003000000000000080000000000000806080
:1010E0000000000000008040201008000001020401
:1010F00008102000404040404040400004040404E8
:1011000004040400000810204080000000201008A3
:1011100004020100007048080808F00000000030D8
:1011200036010000C030C828E810E0000718272466
:1011300023140B000000C038E0000000203C230214
:101140000227382008F8888888700000203F202077
:1011500020110E00C03008080808380007182020A9
:101160002010080008F808080810E000203F2020A0
:1011700020100F0008F88888E8081000203F202081
:101180002320180008F88888E8081000203F200075
:1011900003000000C03008080838000007182020AD
:1011A000221E020008F808000008F808203F21016C
:1011B00001213F20000808F8080800000020203F17
:1011C0002020000000000808F8080800C080808087
:1011D0007F00000008F888C028180800203F200180
:1011E0002638200008F8080000000000203F2020DA
:1011F0002020300008F8F800F8F80800203F003FF1
:10120000003F200008F830C00008F808203F200008
:1012100007183F00E01008080810E0000F10202019
:1012200020100F0008F808080808F000203F2101EE
:1012300001010000E01008080810E0000F18242445
:1012400038504F0008F8888888887000203F2000B8
:10125000030C30200070880808083800003820216E
:1012600021221C00180808F8080818000000203F78
:101270002000000008F808000008F808001F2020DF
:1012800020201F000878880000C8380800000738B0
:101290000E010000F80800F80008F800033C070001
:1012A000073C0300081868808068180820302C0369
:1012B000032C30200838C800C83808000000203F40
:1012C0002000000010080808C8380800203826212F
:1012D00020201800000000FE020202000000007F33
:1012E00040404000000C30C0000000000000000141
:1012F0000638C00000020202FE000000004040402C
:101300007F00000000000402020204000000000050
:1013100000000000000000000000000080808080CD
:1013200080808080000202040000000000000000B5
:10133000000000000000808080800000001924224E
:1013400022223F2008F8008080000000003F11208A
:1013500020110E000000008080800000000E11208F
:1013600020201100000000808088F800000E11206D
:1013700020103F200000808080800000001F22227B
:1013800022221300008080F0888888180020203FE7
:10139000202000000000808080808000006B9494FA
:1013A0009493600008F8008080800000203F2100B6
:1013B00000203F2000809898000000000020203F7F
:1013C00020200000000000809898000000C080806D
:1013D000807F000008F8000080808000203F240209
:1013E0002D302000000808F8000000000020203FF9
:1013F000202000008080808080808000203F2000AE
:101400003F20003F8080008080800000203F21003E
:1014100000203F200000808080800000001F2020EE
:1014200020201F00808000808000000080FFA1201D
:1014300020110E000000008080808000000E11202E
:1014400020A0FF80808080008080800020203F21BD
:101450002000010000008080808080000033242470
:1014600024241900008080E0808000000000001F1C
:10147000202000008080000000808000001F2020CD
:1014800020103F20808080000080808000010E308E
:101490000806010080800080008080800F300C03EF
:1014A0000C300F0000808000808080000020312EF2
:1014B0000E312000808080000080808080818E70CE
:1014C0001806010000808080808080000021302C80
:1014D0002221300000000000807C02020000000099
:1014E000003F404000000000FF000000000000003E
:1014F000FF0000000002027C800000000040403F2E
:1015000000000000000601010202040400000000C7
:101510000000000034150008000000200400000056
:101520002C0100083815000804000020C406000043
:08153000480100080000000062
:04000005080000F1FE
:00000001FF
