:100000006F002063130000001300000013000000C5
:100010001300000013000000130000001300000094
:100020001300000013000000130000001300000084
:08003000130000007300100032
:1000380000000000000000006003000064030000EE
:10004800000000007805000000000000000000002B
:100058007A0500007C050000000000000000000098
:100068007E05000000000000800500000000000080
:100078008205000084050000860500008805000050
:100088008A0500008C0500008E0500009005000020
:1000980092050000940500009605000098050000F0
:1000A8009A0500009C0500009E050000A0050000C0
:1000B800A2050000A4050000A6050000A805000090
:1000C800AA050000AC050000AE050000B005000060
:1000D800B2050000B4050000B6050000B805000030
:1000E800BA050000BC050000BE050000C005000000
:1000F800C2050000C4050000C6050000C8050000D0
:10010800CA050000CC050000CE050000D00500009F
:10011800D2050000D4050000D6050000D80500006F
:10012800DA050000DC050000DE050000E00500003F
:10013800E2050000E4050000E6050000E80500000F
:10014800EA050000EC050000EE050000F0050000DF
:10015800F2050000F4050000F6050000F8050000AF
:10016800FA050000FC050000FE050000000600007E
:10017800020600000406000006060000080600004B
:100188000A0600000C0600000E060000100600001B
:1001980012060000140600001606000018060000EB
:1001A8001A0600001C0600001E06000020060000BB
:1001B800220600002406000026060000280600008B
:1001C8002A0600002C0600002E060000300600005B
:1001D8000000000000000000000000000000000017
:1001E8000000000000000000000000000000000007
:0801F8000000000000000000FF
:10020000397101436EC619A0397141536AC866CA73
:1002100062CC5ECE19A0397101535AD056D252D455
:100220004ED64AD826DA22DC06DE330161408282CD
:1002300041114AC026C222C406C68282B24D410183
:10024000024D924C224CB24B4101024B924A224A3F
:10025000B2494101024992442244B24041018280A4
:10026000EFF21FFD4111854511451523C147371494
:1002700001407C82C1473EC64C008D471305048077
:100280003EC42D29C14513050480F5294101D9B784
:10029000EFF21FFA797185450545092B8545114512
:1002A000FD21E1473ECE37150140BD474C08FC8299
:1002B000130505808D473ECC112137050040EF0026
:1002C00050059307F0082C003EC437050040930703
:1002D00030063EC623080100CD290810EF00C07F7C
:1002E000C167938707060C10370500403ED02314E2
:1002F000010223130102BD2B0C1037050040E52B32
:100300000C1037050040792D0C1037050040EF0028
:100310002074854537050040EF00207E45611DBFF4
:10032000EFF21FF1AA8537050040EF00807F1DB76F
:10033000EFF21FF0AA8537050040EF00C07E19BF1D
:10034000EFF21FEFAA8537050040EF00007E19B7D6
:10035000EFF21FEEAA8537050040EF00407DDDBDBE
:100360007300203001A0EFF2BFEC13140501AE843E
:1003700041806340050222856537014513940401DD
:10038000C137418063CE040022855D370145C937FE
:10039000D1B5014571373305804042054181F9BF30
:1003A000014579373305804042054181CDB7EFF2F1
:1003B0003FE8411185451145D92E930700027C8203
:1003C00037150140930780043EC64C008D47130546
:1003D00005803EC4E5244101B5BDEFF27FE5371449
:1003E00001409305000213050480492E814709ED61
:1003F0005145B52713040480930500022285BD2EC4
:1004000065DD5145A92F85473E85A9B5EFF2BFE0CF
:1004100037140140B135392F05499D3D493F13043B
:100420000480653F2384A180938491806317250114
:100430009C20FD17B337F0009CA09C2063982703F5
:10044000C145228599269305C0031305C003213FAA
:100450001305803E2927930540FC1305C00321376F
:100460001305007DED2D2380040065BF8145014506
:10047000DD3DC1452285012E6DB7B7170240984377
:10048000B706FFF841111367170098C3D843370622
:100490000200758FD8C39843B706F7FEFD16758F17
:1004A00098C39843B706FCFFFD16758F98C3D843D1
:1004B000B70681FFFD16758FD8C39843B70600ECC9
:1004C000FD16758F98C33707FF0098C723A607024C
:1004D00002C402C69843C166558F98C3B71602403E
:1004E00005679C42F18F3EC6A24785073EC4B247CE
:1004F00081E7A247E397E7FEB71702409C431397B3
:10050000E7006357070685473EC632478547631FA6
:10051000F704B7170240D843B706C1FFFD16D8C38A
:10052000D843D8C3D84313670740D8C3D843758F7F
:10053000D8C3D843B7062900558FD8C39843B70608
:100540000001558F98C3984393166700E3DD06FEBC
:10055000D843B7160240719BD8C3D843136727000E
:10056000D8C32147DC42B18BE39EE7FE4101828084
:1005700002C661BF01A001A001A001A001A001A0CD
:1005800001A001A001A001A001A001A001A001A063
:1005900001A001A001A001A001A001A001A001A053
:1005A00001A001A001A001A001A001A001A001A043
:1005B00001A001A001A001A001A001A001A001A033
:1005C00001A001A001A001A001A001A001A001A023
:1005D00001A001A001A001A001A001A001A001A013
:1005E00001A001A001A001A001A001A001A001A003
:1005F00001A001A001A001A001A001A001A001A0F3
:1006000001A001A001A001A001A001A001A001A0E2
:1006100001A001A001A001A001A001A001A001A0D2
:1006200001A001A001A001A001A001A001A001A0C2
:1006300001A0970100209381E11C17810020130184
:10064000619C17050000130525559705002093852B
:10065000659B1386818063FAC5008322050023A071
:10066000550011059105E3EAC5FE13858180938548
:1006700001816377B500232005001105E36DB5FE08
:10068000FD42739002BCAD4273904280B76200009D
:100690009382820873A00230970200009382029A2C
:1006A00093E2320073905230EFF03FDD970200008A
:1006B000938202D673901234730020309C4513F756
:1006C000070113F8F70001C7D8413368E8008E210D
:1006D00013F7F50F39C318418146854E3D4F930FEF
:1006E000800293028004214E3396DE00B3F8C500E9
:1006F000631116039398260033131F011343F3FF6E
:100700003377E300B318180133E7E800639FF70578
:1007100050C98506E39AC6FD18C11307F00F63752B
:10072000B70454412146854E3D4F930F80029302FA
:100730008004414EB398CE0033F715016392E8026E
:100740001317260001173313EF001343F3FFB3769B
:10075000D3003317E800D98E639DF701232A1501D2
:100760000506E319C6FD54C18280E39457FA10C907
:100770004DB7E39757FE23281501DDB708456D8D6A
:100780003335A00082800CC982804CC9828099C513
:10079000371702401C4F5D8D08CF8280B71702408B
:1007A000984F1345F5FF798D88CF828099C537170B
:1007B00002405C4F5D8D48CF8280B7170240D84F12
:1007C0001345F5FF798DC8CF82801E213737014050
:1007D000930607C0C207C1836300D504B706004073
:1007E000630CD502938606406308D502B716004015
:1007F000138606806302C502938606C0630ED50089
:1008000013070740630AE50037570140930607C006
:100810006304D5006316E500BA2193F7F7F8D98F82
:1008200037170040630CE500130707406308E50035
:1008300093F7F7CFFA21C207C183D98F1EA1DE211A
:100840005EB59E211EB5B7370140138707C0630E02
:10085000E50093870740630AF500B7570140138707
:1008600007C06304E5006314F5009C251EB98547A5
:100870005EA982801E31922103D82500C207C18360
:10088000F99BC207C1831EB11E3156211A2DC20722
:10089000C183420741831377C7F8518F9225F59B97
:1008A000C20633660601D18F37360140130806C0F1
:1008B000C182630E050113060640630AC500375660
:1008C0000140130806C0630405016310C502B22588
:1008D000DD9B03D8E500D18FD221ED9B93F6F6CFB7
:1008E000D18FD22533660601D18E56A11AADFA21D9
:1008F0005AB91EB182801E3165771307F7CFC20740
:10090000C183BD9BC207C1831EB11E31562103D8CE
:100910008500C20713960601162DC18393F7F7FDD4
:10092000758F96214182A206558FB62142074183D9
:10093000B3E606019206D58FB7360140C207138889
:1009400006C0C183630E050193860640630AD50085
:10095000B7560140138806C063040501631ED50223
:10096000B62593F7F7F703D8C5009206D58FD621A1
:10097000C207C183920693F7F7FBD58FFD76938666
:10098000F63FF18EF225C207C183336606010A06DF
:10099000D18E13960601418252A11AADFA211ABDD9
:1009A0001EB182801E3103D88500C207C18393F730
:1009B000F7EFC207C1831EB11E3156215A2DC2075F
:1009C000139606014207962141831377C7F8558F86
:1009D000B621C18393F7F7DFB3E60601A206D58FF0
:1009E000B7360140C207138806C04182C183630E37
:1009F000050193860640630AD500B7560140138867
:100A000006C063040501631FD502FD769386F67F59
:100A1000F58FB62503D8C500A206D58FD621C2070B
:100A2000C183A20693F7F7BFD58FF576FD16F18E39
:100A3000F225C207C183336606011206D18E1396D2
:100A40000601418252A15AADFA215ABD1EB18280DF
:100A50001A31FD77FD17F98F1EB103580502562193
:100A60005E2D65771396060196211307F7CF7D8FCC
:100A7000F977A206FD17558FB3F70701B62103D802
:100A8000850042074182B3E60601B206D58FB7362C
:100A90000140C207138806C04183C183630E05016C
:100AA00093860640630AD500B7560140138806C0F6
:100AB00063040501631BD500F176FD16F18ED22586
:100AC0001A06D18E13960601418252A15AADFA211F
:100AD0002310E5041EB182802310050023110500B8
:100AE0002312050023130500231405002315050018
:100AF000231605002317050082801E2189C593E770
:100B000017001EA18280C207C183F99BC207C1835F
:100B1000CDBF1E25C207C183E19BC207C1831EA5AD
:100B200082804EB982800EBD82804EBD82802310AD
:100B3000B5048280B707002083A7070037177A0023
:100B400013070720B3D7E70293F7F70F2386F18047
:100B50001307803EB387E7022395F1808280B7F7C1
:100B600000E0D8438146799BD8C303D7A1803306E0
:100B7000A70290CBD4CB98431367070198C398433F
:100B80001367170298C3D843058B75DF9843799B89
:040B900098C3828004
:080B940000D8B80500000000C4
:00000001FF
