:100AC3005254430032300020202D20202D002020BE
:050AD3003A20203A006A
:030B1E00012C00A7
:10075400120AED120B3F1203DC7BFF7A0A79C37D88
:10076400017F01120A4F7BFF7A0A79C77D077F0157
:10077400120A4F7BFF7A0A79CA7D097F01120A4F58
:100784007BFF7A0A79D17D097F02120A4F1208335E
:100794008F2AE52A600DFB7A00750C027D017F0229
:1007A400120A90E52AB4010CE52B7005752B018023
:1007B40003E4F52BE52B1460080470D11207CA80FA
:0607C400CC12000380C707
:1007CA0012054DE518FB3395E0FA750C027D097F99
:1007DA0001120A90E519FB3395E0FA750C027D0CBB
:1007EA007F01120A90E51AFB3395E0FA750C027D37
:1007FA000F7F01120A90E51BFB3395E0FA750C0294
:10080A007D097F02120A90E51CFB3395E0FA750C0C
:10081A00027D0C7F02120A90E51DFB3395E0FA7502
:09082A000C027D0F7F02020A900E
:10000300E52AB4020B052CE52C75F0068485F02C4B
:10001300E52A640360030200F77418252CF806D35D
:10002300E518648094E34003E4F518D3E51964808C
:10003300948C4003751901E51964016023E5196483
:1000430003601DE51964056017E51964076011E590
:10005300196408600BE519640A6005E519B40C1707
:10006300C3E51A648094805003751A1FD3E51A649C
:1000730080949F405B8056E5196402703BE51875D8
:10008300F004120612AFF0EF7017C3E51A64809400
:10009300815003751A1DD3E51A6480949D40318005
:1000A3002CC3E51A648094815003751A1CD3E51A96
:1000B3006480949C401A8015C3E51A64809481502F
:1000C30003751A1ED3E51A6480949E4003751A01C2
:1000D300D3E51B648094974003E4F51BD3E51C64CC
:1000E3008094BB4003E4F51CD3E51D648094BB40BE
:1000F30003E4F51DE52A640460030201DB7418259B
:100103002CF816C3E518648094805003751863C3F4
:10011300E51964809481500375190CE51964016035
:1001230023E5196403601DE51964056017E5196487
:10013300076011E5196408600BE519640A6005E5B9
:1001430019B40C17C3E51A648094805003751A1F01
:10015300D3E51A6480949F405B8056E5196402706E
:100163003BE51875F004120612AFF0EF7017C3E504
:100173001A648094815003751A1DD3E51A64809420
:100183009D4031802CC3E51A648094815003751A15
:100193001CD3E51A6480949C401A8015C3E51A6445
:1001A3008094815003751A1ED3E51A6480949E408F
:1001B30003751A01C3E51B648094805003751B17F4
:1001C300C3E51C648094805003751C3BC3E51D6428
:1001D3008094805003751D3BE52CFB7A00750C025F
:1001E3007D037F02120A90E518FB3395E0FA750C44
:1001F300027D097F01120A90E519FB3395E0FA7538
:100203000C027D0C7F01120A90E51AFB3395E0FA8C
:10021300750C027D0F7F01120A90E51BFB3395E0FD
:10022300FA750C027D097F02120A90E51CFB3395D7
:10023300E0FA750C027D0C7F02120A90E51DFB3378
:1002430095E0FA750C027D0F7F02120A900203DC1F
:0D0B1000007F047ECD7DBBDDFEDEFCDFFA44
:010B1D0022B5
:100AD800EF1FAC0670011E4C600A7D027CEFDCFE45
:040AE800DDFC80ECC5
:010AEC0022E7
:10025300E4F52D7590FFC2932097137F14FE120AC5
:10026300D83097FD7F147E00120AD8752D01209691
:10027300147F147E00120AD83096FD7F147E00127C
:100283000AD8752D052095147F147E00120AD830E4
:1002930095FD7F147E00120AD8752D092094147FD2
:1002A300147E00120AD83095FD7F147E00120AD8FE
:1002B300752D0D7590FFC2922097147F147E001246
:1002C3000AD83097FD7F147E00120AD8752D0220BC
:1002D30096147F147E00120AD83096FD7F147E0098
:1002E300120AD8752D062095147F147E00120AD8A1
:1002F3003095FD7F147E00120AD8752D0A209414C0
:100303007F147E00120AD83095FD7F147E00120AF6
:10031300D8752D0E7590FFC2912097147F147E001F
:10032300120AD83097FD7F147E00120AD8752D0368
:100333002096147F147E00120AD83096FD7F147E17
:1003430000120AD8752D072095147F147E00120A17
:10035300D83095FD7F147E00120AD8752D0B20949A
:10036300147F147E00120AD83095FD7F147E00128C
:100373000AD8752D0F7590FFC2902097147F147EB5
:1003830000120AD83097FD7F147E00120AD8752D0B
:10039300042096147F147E00120AD83096FD7F1431
:1003A3007E00120AD8752D082095147F147E001242
:1003B3000AD83095FD7F147E00120AD8752D0C20C3
:1003C30094147F147E00120AD83095FD7F147E00AA
:0803D300120AD8752D10AF2DA0
:0103DB0022FF
:1009E900E4F52E20B1137F14FE120AD830B1FD7F31
:1009F900147E00120AD8752E0120B0147F147E00CF
:100A0900120AD830B0FD7F147E00120AD8752E0262
:020A1900AF2EFE
:010A1B0022B8
:060B0100C2A58F80D2A7FF
:080B07007F027EEFDEFEDFFC41
:010B0F0022C3
:0A0B2B00C2A6120B01C2A7020B07BD
:100A7200CFCDCFCECCCE1206737C007D0A12067388
:040A8200ED2430FF30
:0A0A8600D2A6120B01C2A7020B0753
:100AAD00AE07BE0104ED148006BE0209ED243F44DD
:060ABD0080FF120B2B224A
:100AED007F38120B2B7F0C120B2B7F06120B2B7FDB
:040AFD0001020B2BBC
:0A0B3500AC03120AADAF04020A86F9
:060A4F008B088A09890AE8
:100A5500120AADE4FDAB08AA09A90A8D82758300C7
:0C0A6500120634FF6006120A860D80E9BC
:010A71002262
:0C0A1C007F0AEA24FFFDE434FFFC7E00AA
:080A28008E0D8F0E8C0F8D1056
:100A30007F017E00E4FBEBC39510E50F6480F87442
:0E0A40008098500AAC0DAD0E1206610B80E8D6
:010A4E002285
:040A90008A0A8B0B38
:100A9400120AADAA0CEAD39400400D120A1CAC0A47
:080AA400AD0B120A721A80ED7D
:010AAC002227
:10093E00120AADC3EA64809480400B7F2B120A86A4
:10094E008A168B17800E7F2D120A86C3E49BF5172D
:10095E00E49AF516AA15EAD39400400D120A1CACBF
:09096E0016AD17120A721A80ED91
:01097700225D
:040978008A218B2223
:10097C00120AADAA23EAD3940040297F10120A1E52
:10098C00AC21AD22CFCDCFCECCCE120673EF540F0F
:10099C00FEC3940AEE5004243080022437FF120A5E
:0409AC00861A80D156
:0109B0002224
:0409B1008A268B27E0
:1009B500120AADAA28EAD394004028EA24FFFDE4F0
:1009C50034FFFC7F027E00120A28AC26AD27CFCD6E
:1009D500CFCECCCE120673EF54012430FF120A8617
:0309E5001A80D2A3
:0109E80022EC
:090B2100071817051E122D3B02F6
:050B3F00C2B5C2B622A0
:050894002DFDEE3CFC0F
:060899008C088D09AB077D
:10089F00D2B5E4FD74017E00A805088005C333CEF0
:1008AF0033CED8F9FFEBF582EF558224FF92B4D205
:1008BF00B6C2B60DBD08DDE4FD74017E00A80508C3
:1008CF008005C333CE33CED8F9FFE5085EFEE509C8
:1008DF005F4E24FF92B4D2B6C2B60DBD08DBC2B5CF
:0108EF0022E6
:0208F000AD0752
:1008F200E4F9430501D2B5FB74017E00A803088028
:1009020005C333CE33CED8F9FFEDF582EF558224FD
:10091200FF92B4C2B6D2B60BBB08DDE4FBC2B6D2BC
:10092200B630B40D7401A803088002C333D8FC4268
:0B093200010BBB08E8C2B5C2B4AF0166
:01093D002297
:1003DC00E4FDFC7F8E120899E51875F00A120612DE
:1003EC00FF3395E0FEEFC4F8540FC868FFEEC45419
:1003FC00F048FEE51875F00A120612ADF0ED3395D3
:10040C00E0FCEF7F8C120894E51975F00A120612C5
:10041C00FF3395E0FEEFC4F8540FC868FFEEC454E8
:10042C00F048FEE51975F00A120612ADF0ED3395A1
:10043C00E0FCEF7F88120894E51A75F00A12061298
:10044C00FF3395E0FEEFC4F8540FC868FFEEC454B8
:10045C00F048FEE51A75F00A120612ADF0ED339570
:10046C00E0FCEF2DFDEE3CFC7F86120899E51B7538
:10047C00F00A120612FF3395E0FEEFC4F8540FC8D1
:10048C0068FFEEC454F048FEE51B75F00A12061224
:10049C00ADF0ED3395E0FCEF2DFDEE3CFC7F8412CE
:1004AC000899E51C75F00A120612FF3395E0FEEF71
:1004BC00C4F8540FC868FFEEC454F048FEE51C7530
:1004CC00F00A120612ADF0ED3395E0FCEF2DFDEEC7
:1004DC003CFC7F82120899E51D75F00A120612FF8A
:1004EC003395E0FEEFC4F8540FC868FFEEC454F027
:1004FC0048FEE51D75F00A120612ADF0ED3395E0DD
:10050C00FCEF2DFDEE3CFC7F80120899E51E75F08A
:10051C000A120612FF3395E0FEEFC4F8540FC868B8
:10052C00FFEEC454F048FEE51E75F00A120612AD3B
:10053C00F0ED3395E0FCEF2DFDEE3CFC7F8A0208DC
:01054C009915
:10054D007F8C1208F0AC07ECC4540F75F00AA4FFB1
:10055D00EC540F2FF5187F881208F0AC077F881226
:10056D0008F08F19ECC4540F75F00AA4FFEC540F6A
:10057D002FF5197F861208F0AC077F861208F08FD1
:10058D001AECC4540F75F00AA4FFEC540F2FF51A92
:10059D007F841208F0AC077F841208F08F1BECC427
:1005AD00540F75F00AA4FFEC540F2FF51B7F821228
:1005BD0008F0AC077F821208F08F1CECC4540F7545
:1005CD00F00AA4FFEC540F2FF51C7F801208F0AC3D
:1005DD00077F801208F08F1DECC4540F75F00AA42C
:1005ED00FFEC540F2FF51D7F8A1208F0AC077F8AA0
:1005FD001208F08F1EECC4540F75F00AA4FFEC54D2
:04060D000F2FF51E98
:0106110022C6
:10083300E4F50820B1137F14FE120AD830B1FD7F0E
:10084300147E00120AD875080120B0147F147E00AC
:10085300120AD830B0FD7F147E00120AD875080240
:1008630020B2147F147E00120AD830B2FD7F147EAA
:1008730000120AD875080320B3147F147E00120AED
:10088300D830B3FD7F147E00120AD8750804AF0870
:010893002242
:030000000206C82D
:0C06C800787FE4F6D8FD75812E02070F44
:10061200C2D530F707B2D563F0FF05F030E70CB270
:10062200D5F4048463F0FF05F080018430D502F430
:020632000422A0
:10063400BB010CE58229F582E5833AF583E022507B
:1006440006E92582F8E622BBFE06E92582F8E222C5
:0D065400E58229F582E5833AF583E49322DF
:10066100EF8DF0A4A8F0CF8CF0A428CE8DF0A42EAD
:02067100FE2267
:10067300BC000BBE0029EF8DF084FFADF022E4CC6B
:10068300F875F008EF2FFFEE33FEEC33FCEE9DEC34
:10069300984005FCEE9DFE0FD5F0E9E4CEFD22ED7A
:1006A300F8F5F0EE8420D21CFEADF075F008EF2FC4
:1006B300FFED33FD4007985006D5F0F222C398FDB5
:0506C3000FD5F0EA2252
:1006D400020754E493A3F8E493A34003F68001F2E1
:1006E40008DFF48029E493A3F85407240CC8C33327
:1006F400C4540F4420C8834004F456800146F6DFF6
:10070400E4800B0102040810204080900B1EE47E5C
:10071400019360BCA3FF543F30E509541FFEE493EA
:10072400A360010ECF54C025E060A840B8E493A3B1
:10073400FAE493A3F8E493A3C8C582C8CAC583CADC
:10074400F0A3C8C582C8CAC583CADFE9DEE780BE94
:010B2A0000CA
:00000001FF
