:070CD200434C4F434B3A0075
:0F0C9100010800020D0000020B0004020900011F
:100AA900120C7D7BFF7A0C79D27D017F01120BF448
:100AB9001208008F0FE50F6018B40B08050AE50A44
:100AC90070020509E50FB40C08E50A150A7002154C
:100AD90009E50A20E010E508D394005005750807D8
:100AE90080121508800EE508C394074005E4F5084F
:100AF90080020508AF087401A807088002C333D82B
:0D0B0900FCF4F5A07F2C7E01120C6880A387
:0D0CB000007F047ECD7DBBDDFEDEFCDFFAA3
:010CBD002214
:100C6800EF1FAC0670011E4C600A7D027CEFDCFEB3
:040C7800DDFC80EC33
:010C7C002255
:10080000E4F52A7590FFC2932097137F14FE120C13
:10081000683097FD7F147E00120C68752A012096BF
:10082000147F147E00120C683096FD7F147E001237
:100830000C68752A052095147F147E00120C683010
:1008400095FD7F147E00120C68752A092094147F90
:10085000147E00120C683095FD7F147E00120C6827
:10086000752A0D7590FFC2922097147F147E001296
:100870000C683097FD7F147E00120C68752A0220E8
:1008800096147F147E00120C683096FD7F147E0053
:10089000120C68752A062095147F147E00120C68CD
:1008A0003095FD7F147E00120C68752A0A2094147E
:1008B0007F147E00120C683095FD7F147E00120CB0
:1008C00068752A0E7590FFC2912097147F147E00E0
:1008D000120C683097FD7F147E00120C68752A0395
:1008E0002096147F147E00120C683096FD7F147ED3
:1008F00000120C68752A072095147F147E00120CD4
:10090000683095FD7F147E00120C68752A0B2094C8
:10091000147F147E00120C683095FD7F147E001247
:100920000C68752A0F7590FFC2902097147F147E73
:1009300000120C683097FD7F147E00120C68752A37
:10094000042096147F147E00120C683096FD7F14EC
:100950007E00120C68752A082095147F147E001200
:100960000C683095FD7F147E00120C68752A0C20EF
:1009700094147F147E00120C683095FD7F147E0065
:08098000120C68752A10AF2A61
:01098800224C
:060CA100C2A58F80D2A75E
:080CA7007F027EEFDEFEDFFCA0
:010CAF002222
:0A0CBE00C2A6120CA1C2A7020CA7E7
:100C1700CFCDCFCECCCE1209C87C007D0A1209C831
:040C2700ED2430FF89
:0A0C2B00D2A6120CA1C2A7020CA76A
:100C5200AE07BE0104ED148006BE0209ED243F4436
:060C620080FF120CBE220F
:100C7D007F38120CBE7F0C120CBE7F06120CBE7F8D
:040C8D0001020CBE96
:0A0CC800AC03120C52AF04020C2B17
:060BF4008B2A8A2B892CDC
:100BFA00120C52E4FDAB2AAA2BA92C8D8275830014
:0C0C0A00120989FF6006120C2B0D80E916
:010C160022BB
:0C0BC1007F0AEA24FFFDE434FFFC7E0004
:080BCD008E268F278C288D294C
:100BD5007F017E00E4FBEBC39529E5286480F8746A
:0E0BE5008098500AAC26AD271209B60B80E8A6
:010BF30022DF
:040C35008A198B1A73
:100C3900120C52AA1BEAD39400400D120BC1AC1935
:080C4900AD1A120C171A80ED20
:010C51002280
:100B1600120C52C3EA64809480400B7F2B120C2B7C
:100B26008A158B16800E7F2D120C2BC3E49BF516AF
:100B3600E49AF515AA14EAD39400400D120BC1AC41
:090B460015AD16120C171A80ED12
:010B4F002283
:040B50008A1E8B1F4F
:100B5400120C52AA20EAD3940040297F10120BC32E
:100B6400AC1EAD1FCFCDCFCECCCE1209C8EF540FE3
:100B7400FEC3940AEE5004243080022437FF120C82
:040B84002B1A80D1D7
:010B8800224A
:040B89008A238B240C
:100B8D00120C52AA25EAD394004028EA24FFFDE472
:100B9D0034FFFC7F027E00120BCDAC23AD24CFCDF4
:100BAD00CFCECCCE1209C8EF54012430FF120C2B3E
:030BBD001A80D2C9
:010BC0002212
:03000000020A1DD4
:0C0A1D00787FE4F6D8FD75812C020A6495
:10098900BB010CE58229F582E5833AF583E0225023
:1009990006E92582F8E622BBFE06E92582F8E2226D
:0D09A900E58229F582E5833AF583E4932287
:1009B600EF8DF0A4A8F0CF8CF0A428CE8DF0A42E55
:0209C600FE220F
:1009C800BC000BBE0029EF8DF084FFADF022E4CC13
:1009D800F875F008EF2FFFEE33FEEC33FCEE9DECDC
:1009E800984005FCEE9DFE0FD5F0E9E4CEFD22ED22
:1009F800F8F5F0EE8420D21CFEADF075F008EF2F6C
:100A0800FFED33FD4007985006D5F0F222C398FD5C
:050A18000FD5F0EA22F9
:100A2900020AA9E493A3F8E493A34003F68001F230
:100A390008DFF48029E493A3F85407240CC8C333CE
:100A4900C4540F4420C8834004F456800146F6DF9D
:100A5900E4800B0102040810204080900C91E47E90
:100A6900019360BCA3FF543F30E509541FFEE49392
:100A7900A360010ECF54C025E060A840B8E493A359
:100A8900FAE493A3F8E493A3C8C582C8CAC583CA84
:100A9900F0A3C8C582C8CAC583CADFE9DEE780BE3C
:010CA0000053
:00000001FF
