:100C930050617373776F72643A004F4B0045525241
:090CA3004F520020202020200007
:080D1C00021A00000218000495
:10098900120CD77BFF7A0C79937D017F01120C350C
:100999001208008F1CE51C60F7D3940A503FE51933
:1009A9009400E51894004035AE1AAF1B7C007D0A0F
:1009B900120A648E1A8F1BE51C75F00A84E5F0256E
:1009C9001BF51BE4351AF51A750C04AB1BFA7D01EE
:1009D9007F02120C76E519151970021518E51CB479
:1009E9000B1FE51BB4D20DE51AB404087BFF7A0C82
:1009F900799D80067BFF7A0C79A07D0A7F01120C14
:100A090035E51C640C7089F51AF51BF51875190480
:100A1900750C04AB1BAA1A7D017F02120C767BFFB1
:0E0A29007A0C79A67D0A7F01120C350209991C
:0D0CFA00007F047ECD7DBBDDFEDEFCDFFA59
:010D070022C9
:100CC200EF1FAC0670011E4C600A7D027CEFDCFE59
:040CD200DDFC80ECD9
:010CD60022FB
:10080000E4F5087590FFC2932097137F14FE120C35
:10081000C23097FD7F147E00120CC275080120962D
:10082000147F147E00120CC23096FD7F147E0012DD
:100830000CC27508052095147F147E00120CC2307E
:1008400095FD7F147E00120CC27508092094147F58
:10085000147E00120CC23095FD7F147E00120CC273
:1008600075080D7590FFC2922097147F147E0012B8
:100870000CC23097FD7F147E00120CC27508022056
:1008800096147F147E00120CC23096FD7F147E00F9
:10089000120CC27508062095147F147E00120CC23B
:1008A0003095FD7F147E00120CC275080A20941446
:1008B0007F147E00120CC23095FD7F147E00120C56
:1008C000C275080E7590FFC2912097147F147E00A8
:1008D000120CC23097FD7F147E00120CC275080303
:1008E0002096147F147E00120CC23096FD7F147E79
:1008F00000120CC27508072095147F147E00120C9C
:10090000C23095FD7F147E00120CC275080B209436
:10091000147F147E00120CC23095FD7F147E0012ED
:100920000CC275080F7590FFC2902097147F147E3B
:1009300000120CC23097FD7F147E00120CC27508A5
:10094000042096147F147E00120CC23096FD7F1492
:100950007E00120CC27508082095147F147E0012C8
:100960000CC23095FD7F147E00120CC275080C205D
:1009700094147F147E00120CC23095FD7F147E000B
:08098000120CC2750810AF084B
:01098800224C
:060CEB00C2A58F80D2A714
:080CF1007F027EEFDEFEDFFC56
:010CF90022D8
:0A0D0800C2A6120CEBC2A7020CF108
:100C5800CFCDCFCECCCE120A767C007D0A120A7692
:040C6800ED2430FF48
:0A0C6C00D2A6120CEBC2A7020CF195
:100CAC00AE07BE0104ED148006BE0209ED243F44DC
:060CBC0080FF120D08226A
:100CD7007F38120D087F0C120D087F06120D087F52
:040CE70001020D08F1
:0A0D1200AC03120CACAF04020C6C31
:060C35008B088A09890A00
:100C3B00120CACE4FDAB08AA09A90A8D82758300DE
:0C0C4B00120A37FF6006120C6C0D80E9E5
:010C5700227A
:0C0C02007F0AEA24FFFDE434FFFC7E00C2
:080C0E008E0D8F0E8C0F8D106E
:100C16007F017E00E4FBEBC39510E50F6480F8745A
:0E0C26008098500AAC0DAD0E120A640B80E8E7
:010C3400229D
:040C76008A0A8B0B50
:100C7A00120CACAA0CEAD39400400D120C02AC0A76
:080C8A00AD0B120C581A80EDAD
:010C9200223F
:100B5700120CACC3EA64809480400B7F2B120C6CA0
:100B67008A168B17800E7F2D120C6CC3E49BF5172A
:100B7700E49AF516AA15EAD39400400D120C02ACBC
:090B870016AD17120C581A80ED8E
:010B90002242
:040B91008A1F8B200C
:100B9500120CACAA21EAD3940040297F10120C0450
:100BA500AC1FAD20CFCDCFCECCCE120A76EF540FF1
:100BB500FEC3940AEE5004243080022437FF120C41
:040BC5006C1A80D155
:010BC9002209
:040BCA008A248B25C9
:100BCE00120CACAA26EAD394004028EA24FFFDE4D6
:100BDE0034FFFC7F027E00120C0EAC24AD25CFCD6F
:100BEE00CFCECCCE120A76EF54012430FF120C6C0D
:030BFE001A80D288
:010C010022D0
:03000000020ACB26
:0C0ACB00787FE4F6D8FD758126020B123E
:100A3700BB010CE58229F582E5833AF583E0225074
:100A470006E92582F8E622BBFE06E92582F8E222BE
:0D0A5700E58229F582E5833AF583E49322D8
:100A6400EF8DF0A4A8F0CF8CF0A428CE8DF0A42EA6
:020A7400FE2260
:100A7600BC000BBE0029EF8DF084FFADF022E4CC64
:100A8600F875F008EF2FFFEE33FEEC33FCEE9DEC2D
:100A9600984005FCEE9DFE0FD5F0E9E4CEFD22ED73
:100AA600F8F5F0EE8420D21CFEADF075F008EF2FBD
:100AB600FFED33FD4007985006D5F0F222C398FDAE
:050AC6000FD5F0EA224B
:100AD700020989E493A3F8E493A34003F68001F2A3
:100AE70008DFF48029E493A3F85407240CC8C33320
:100AF700C4540F4420C8834004F456800146F6DFEF
:100B0700E4800B0102040810204080900D1CE47E55
:100B1700019360BCA3FF543F30E509541FFEE493E3
:100B2700A360010ECF54C025E060A840B8E493A3AA
:100B3700FAE493A3F8E493A3C8C582C8CAC583CAD5
:100B4700F0A3C8C582C8CAC583CADFE9DEE780BE8D
:010D240000CE
:00000001FF
