:090A4400010A00010C00010E0082
:0606C3007D017C007E00B9
:0406C9008E308F31AF
:1006CD00AE04AF05EE3395E0FDFC7BA07A86790193
:1006DD0078001200FAC006C007AE30AF31AB07AAE2
:1006ED0006EA3395E0F9F8D007D0061207CD8E3221
:1006FD008F337C007D081200C48E328F33E53315A5
:10070D0033AE32700215324E600BB2A5AF31AE3042
:05071D00120A1C80E837
:0107220022B4
:1008BC001209DA75A0FE85A00B1206628F0DE50DEC
:1008CC00B401057FBF1206C3E50DB402057FAA1261
:1008DC0006C3E50DB403E27D017C007F977E001218
:0408EC0006C980D5E4
:03000B0002095691
:04095600C0E0C0D06D
:10095A00758A18758CFC0509E50970020508C394A7
:0D096A00F4E50894014006750800750900C9
:05097700D0D0D0E032F9
:0D0A6600007F047ECD7DBBDDFEDEFCDFFAEF
:010A73002260
:100A0700EF1FAC0670011E4C600A7D027CEFDCFE16
:040A1700DDFC80EC96
:010A1B0022B8
:100A1C00EF1FAA0670011E4A6009007D021DED60E1
:030A2C00EF80FA5E
:010A2F0022A4
:10021700E4F5397590FFC2932097137F14FE120AF5
:10022700073097FD7F147E00120A07753901209663
:10023700147F147E00120A073096FD7F147E001289
:100247000A077539052095147F147E00120A0730B6
:1002570095FD7F147E00120A077539092094147FD3
:10026700147E00120A073095FD7F147E00120A07DC
:1002770075390D7590FFC2922097147F147E001276
:100287000A073097FD7F147E00120A07753902208E
:1002970096147F147E00120A073096FD7F147E00A5
:1002A700120A077539062095147F147E00120A0773
:1002B7003095FD7F147E00120A0775390A209414C1
:1002C7007F147E00120A073095FD7F147E00120A04
:1002D7000775390E7590FFC2912097147F147E0021
:1002E700120A073097FD7F147E00120A077539033B
:1002F7002096147F147E00120A073096FD7F147E25
:1003070000120A077539072095147F147E00120A18
:10031700073095FD7F147E00120A0775390B20946C
:10032700147F147E00120A073095FD7F147E001299
:100337000A0775390F7590FFC2902097147F147EB6
:1003470000120A073097FD7F147E00120A077539DD
:10035700042096147F147E00120A073096FD7F143E
:100367007E00120A077539082095147F147E001243
:100377000A073095FD7F147E00120A0775390C2095
:1003870094147F147E00120A073095FD7F147E00B7
:08039700120A07753910AF3995
:01039F00223B
:1008F000E4F53A20B1137F14FE120A0730B1FD7FF0
:10090000147E00120A07753A0120B0147F147E008D
:10091000120A0730B0FD7F147E00120A07753A02F2
:02092000AF3AEC
:0109220022B2
:060A5700C2A58F80D2A7AA
:080A5D007F027EEFDEFEDFFCEC
:010A6500226E
:0A0A7400C2A6120A57C2A7020A5DCB
:10099F00CFCDCFCECCCE12006F7C007D0A12006F70
:0409AF00ED2430FF04
:0A09B300D2A6120A57C2A7020A5D7D
:1009F100AE07BE0104ED148006BE0209ED243F449A
:060A010080FF120A7422BE
:100A30007F38120A747F0C120A747F06120A747FC0
:040A400001020A7431
:0A0A7E00AC031209F1AF040209B342
:06097C008B348A35893638
:100982001209F1E4FDAB34AA35A9368D82758300D4
:0C099200120030FF60061209B30D80E96E
:01099E002236
:0C0923007F0AEA24FFFDE434FFFC7E00A4
:08092F008E2C8F2D8C2E8D2FD4
:100937007F017E00E4FBEBC3952FE52E6480F874FE
:0E0947008098500AAC2CAD2D12005D0B80E89C
:01095500227F
:0409BD008A1F8B20E2
:1009C1001209F1AA21EAD39400400D120923AC1FA8
:0809D100AD2012099F1A80ED10
:0109D90022FB
:100811001209F1C3EA64809480400B7F2B1209B363
:100821008A148B15800E7F2D1209B3C3E49BF51535
:10083100E49AF514AA13EAD39400400D120923ACEB
:0908410014AD1512099F1A80ED97
:01084A00228B
:04084B008A248B254B
:10084F001209F1AA26EAD3940040297F1012092534
:10085F00AC24AD25CFCDCFCECCCE12006FEF540F41
:10086F00FEC3940AEE5004243080022437FF12098D
:04087F00B31A80D157
:010883002252
:040884008A298B2A08
:100888001209F1AA2BEAD394004028EA24FFFDE4D8
:1008980034FFFC7F027E0012092FAC29AD2ACFCD90
:1008A800CFCECCCE12006FEF54012430FF1209B323
:0308B8001A80D2D1
:0108BB00221A
:090A4D00071617051E122D3B02CD
:05000300C2B5C2B622E7
:050723002DFDEE3CFC81
:060728008C378D38AB0791
:10072E00D2B5E4FD74017E00A805088005C333CE62
:10073E0033CED8F9FFEBF582EF558224FF92B4D277
:10074E00B6C2B60DBD08DDE4FD74017E00A8050835
:10075E008005C333CE33CED8F9FFE5375EFEE538DC
:10076E005F4E24FF92B4D2B6C2B60DBD08DBC2B541
:01077E002258
:02077F00AD07C4
:10078100E4F9430501D2B5FB74017E00A80308809A
:1007910005C333CE33CED8F9FFEDF582EF55822470
:1007A100FF92B4C2B6D2B60BBB08DDE4FBC2B6D22F
:1007B100B630B40D7401A803088002C333D8FC42DB
:0B07C100010BBB08E8C2B5C2B4AF01D9
:0107CC00220A
:1003A000E4FDFC7F8E120728E51675F00A12000E98
:1003B000FF3395E0FEEFC4F8540FC868FFEEC45455
:1003C000F048FEE51675F00A12000EADF0ED33951B
:1003D000E0FCEF7F8C120723E51775F00A12000E80
:1003E000FF3395E0FEEFC4F8540FC868FFEEC45425
:1003F000F048FEE51775F00A12000EADF0ED3395EA
:10040000E0FCEF7F88120723E51875F00A12000E52
:10041000FF3395E0FEEFC4F8540FC868FFEEC454F4
:10042000F048FEE51875F00A12000EADF0ED3395B8
:10043000E0FCEF2DFDEE3CFC7F86120728E51975E8
:10044000F00A12000EFF3395E0FEEFC4F8540FC817
:1004500068FFEEC454F048FEE51975F00A12000E6C
:10046000ADF0ED3395E0FCEF2DFDEE3CFC7F84120A
:100470000728E51A75F00A12000EFF3395E0FEEF2B
:10048000C4F8540FC868FFEEC454F048FEE51A756E
:10049000F00A12000EADF0ED3395E0FCEF2DFDEE0D
:1004A0003CFC7F82120728E51B75F00A12000EFF44
:1004B0003395E0FEEFC4F8540FC868FFEEC454F063
:1004C00048FEE51B75F00A12000EADF0ED3395E025
:1004D000FCEF2DFDEE3CFC7F80120728E51C75F03B
:1004E0000A12000EFF3395E0FEEFC4F8540FC868FF
:1004F000FFEEC454F048FEE51C75F00A12000EAD84
:10050000F0ED3395E0FCEF2DFDEE3CFC7F8A020719
:0105100028C2
:100511007F8C12077FAC07ECC4540F75F00AA4FF5F
:10052100EC540F2FF5167F8812077FAC077F8812D6
:10053100077F8F17ECC4540F75F00AA4FFEC540F1A
:100541002FF5177F8612077FAC077F8612077F8FF3
:1005510018ECC4540F75F00AA4FFEC540F2FF518D2
:100561007F8412077FAC077F8412077F8F19ECC449
:10057100540F75F00AA4FFEC540F2FF5197F821266
:10058100077FAC077F8212077F8F1AECC4540F7567
:10059100F00AA4FFEC540F2FF51A7F8012077FACED
:1005A100077F8012077F8F1BECC4540F75F00AA4DC
:1005B100FFEC540F2FF51B7F8A12077FAC077F8A50
:1005C10012077F8F1CECC4540F75F00AA4FFEC5482
:0405D1000F2FF51CD7
:0105D5002203
:10066200E4F53020B1137F14FE120A0730B1FD7F8A
:10067200147E00120A0775300120B0147F147E0028
:10068200120A0730B0FD7F147E00120A077530028D
:1006920020B2147F147E00120A0730B2FD7F147E4E
:1006A20000120A0775300320B3147F147E00120A69
:1006B2000730B3FD7F147E00120A07753004AF3095
:0106C2002215
:1009DA005389F0438901758A18758CFCC28DD28CB3
:0709EA00D2A9D2AFC2B9226D
:030000000205D620
:0C05D600787FE4F6D8FD75813A02061D1E
:10000E00C2D530F707B2D563F0FF05F030E70CB27A
:10001E00D5F4048463F0FF05F080018430D502F43A
:02002E000422AA
:10003000BB010CE58229F582E5833AF583E0225085
:1000400006E92582F8E622BBFE06E92582F8E222CF
:0D005000E58229F582E5833AF583E49322E9
:10005D00EF8DF0A4A8F0CF8CF0A428CE8DF0A42EB7
:02006D00FE2271
:10006F00BC000BBE0029EF8DF084FFADF022E4CC75
:10007F00F875F008EF2FFFEE33FEEC33FCEE9DEC3E
:10008F00984005FCEE9DFE0FD5F0E9E4CEFD22ED84
:10009F00F8F5F0EE8420D21CFEADF075F008EF2FCE
:1000AF00FFED33FD4007985006D5F0F222C398FDBF
:0500BF000FD5F0EA225C
:1000C400C2D5EC30E709B2D5E4C39DFDE49CFCEE57
:1000D40030E715B2D5E4C39FFFE49EFE12006FC360
:1000E400E49DFDE49CFC800312006F30D507C3E45B
:0600F4009FFFE49EFE22C6
:1000FA00E88FF0A4CC8BF0A42CFCE98EF0A42CFCA5
:10010A008AF0EDA42CFCEA8EF0A4CDA8F08BF0A422
:10011A002DCC3825F0FDE98FF0A42CCD35F0FCEB81
:10012A008EF0A4FEA9F0EB8FF0A4CFC5F02ECD3946
:0F013A00FEE43CFCEAA42DCE35F0FDE43CFC22B3
:1007CD00C2D5E830E70FB2D5E4C39BFBE49AFAE457
:1007DD0099F9E498F8EC30E717B2D5120803120135
:1007ED0085E4C39BFBE49AFAE499F9E498F8800355
:1007FD0012018530D50DE4C39FFFE49EFEE49DFDFF
:04080D00E49CFC2249
:1005E2000208BCE493A3F8E493A34003F68001F26B
:1005F20008DFF48029E493A3F85407240CC8C3331A
:10060200C4540F4420C8834004F456800146F6DFE8
:10061200E4800B0102040810204080900A44E47E2A
:10062200019360BCA3FF543F30E509541FFEE493DD
:10063200A360010ECF54C025E060A840B8E493A3A4
:10064200FAE493A3F8E493A3C8C582C8CAC583CACF
:10065200F0A3C8C582C8CAC583CADFE9DEE780BE87
:010A5600009F
:1001490075F008758200EF2FFFEE33FECD33CDCC6D
:1001590033CCC58233C5829BED9AEC99E5829840F0
:100169000CF582EE9BFEED9AFDEC99FC0FD5F0D6CD
:10017900E4CEFBE4CDFAE4CCF9A88222B800C1B9F7
:100189000059BA002DEC8BF084CFCECDFCE5F0CB35
:10019900F97818EF2FFFEE33FEED33FDEC33FCEB6E
:1001A90033FB10D703994004EB99FB0FD8E5E4F929
:1001B900FA227818EF2FFFEE33FEED33FDEC33FC16
:1001C900C933C910D7059BE99A4007EC9BFCE99A0A
:1001D900F90FD8E0E4C9FAE4CCFB2275F010EF2F4F
:1001E900FFEE33FEED33FDCC33CCC833C810D7074F
:1001F9009BEC9AE899400AED9BFDEC9AFCE899F88A
:0E0209000FD5F0DAE4CDFBE4CCFAE4C8F9221C
:00000001FF
