:030ADA0001080010
:050AD500120A8F80FEF3
:03002300020A15B9
:100A1500C0E0C0F0C083C082C0D075D000C000C0A7
:100A250001C002C003C004C005C006C00730980C51
:100A3500E599F4F5A0AF99120ACDC298D007D00672
:100A4500D005D004D003D002D001D000D0D0D082C0
:070A5500D083D0F0D0E032A5
:0D0ABF00007F047ECD7DBBDDFEDEFCDFFA96
:010ACC002207
:100AAA00EF1FAC0670011E4C600A7D027CEFDCFE73
:040ABA00DDFC80ECF3
:010ABE002215
:10080000E4F5097590FFC2932097137F14FE120A36
:10081000AA3097FD7F147E00120AAA75090120965E
:10082000147F147E00120AAA3096FD7F147E0012F7
:100830000AAA7509052095147F147E00120AAA30B1
:1008400095FD7F147E00120AAA7509092094147F71
:10085000147E00120AAA3095FD7F147E00120AAAA7
:1008600075090D7590FFC2922097147F147E0012B7
:100870000AAA3097FD7F147E00120AAA7509022089
:1008800096147F147E00120AAA3096FD7F147E0013
:10089000120AAA7509062095147F147E00120AAA6E
:1008A0003095FD7F147E00120AAA75090A2094145F
:1008B0007F147E00120AAA3095FD7F147E00120A72
:1008C000AA75090E7590FFC2912097147F147E00BF
:1008D000120AAA3097FD7F147E00120AAA75090336
:1008E0002096147F147E00120AAA3096FD7F147E93
:1008F00000120AAA7509072095147F147E00120AB7
:10090000AA3095FD7F147E00120AAA75090B209467
:10091000147F147E00120AAA3095FD7F147E001207
:100920000AAA75090F7590FFC2902097147F147E54
:1009300000120AAA3097FD7F147E00120AAA7509D8
:10094000042096147F147E00120AAA3096FD7F14AC
:100950007E00120AAA7509082095147F147E0012E1
:100960000AAA3095FD7F147E00120AAA75090C2090
:1009700094147F147E00120AAA3095FD7F147E0025
:08098000120AAA750910AF0963
:01098800224C
:100A5C00E4F50A20B1137F14FE120AAA30B1FD7F0F
:100A6C00147E00120AAA750A0120B0147F147E00AD
:100A7C00120AAA30B0FD7F147E00120AAA750A026F
:020A8C00AF0AAF
:010A8E002245
:100A8F0075985043878053890F438920758BF37571
:0B0A9F008DF3C2ABD28ED2AFD2AC22DE
:080ACD008F993099FDC29922B6
:0300000002098969
:0C098900787FE4F6D8FD75810A0209D0E1
:10099500020AD5E493A3F8E493A34003F68001F299
:1009A50008DFF48029E493A3F85407240CC8C33363
:1009B500C4540F4420C8834004F456800146F6DF32
:1009C500E4800B0102040810204080900ADAE47EDE
:1009D500019360BCA3FF543F30E509541FFEE49327
:1009E500A360010ECF54C025E060A840B8E493A3EE
:1009F500FAE493A3F8E493A3C8C582C8CAC583CA19
:100A0500F0A3C8C582C8CAC583CADFE9DEE780BED0
:010ADD000018
:00000001FF
