:030AA20001080048
:080A9A008F993099FDC29922E9
:100A4800120A607F11120A9AAF080508120A9A7FE3
:080A5800E87E03120A7780F02A
:0D0A8C00007F047ECD7DBBDDFEDEFCDFFAC9
:010A9900223A
:100A7700EF1FAC0670011E4C600A7D027CEFDCFEA6
:040A8700DDFC80EC26
:010A8B002248
:10080000E4F5097590FFC2932097137F14FE120A36
:10081000773097FD7F147E00120A777509012096C4
:10082000147F147E00120A773096FD7F147E00122A
:100830000A777509052095147F147E00120A773017
:1008400095FD7F147E00120A777509092094147FA4
:10085000147E00120A773095FD7F147E00120A770D
:1008600075090D7590FFC2922097147F147E0012B7
:100870000A773097FD7F147E00120A7775090220EF
:1008800096147F147E00120A773096FD7F147E0046
:10089000120A777509062095147F147E00120A77D4
:1008A0003095FD7F147E00120A7775090A20941492
:1008B0007F147E00120A773095FD7F147E00120AA5
:1008C0007775090E7590FFC2912097147F147E00F2
:1008D000120A773097FD7F147E00120A777509039C
:1008E0002096147F147E00120A773096FD7F147EC6
:1008F00000120A777509072095147F147E00120AEA
:10090000773095FD7F147E00120A7775090B2094CD
:10091000147F147E00120A773095FD7F147E00123A
:100920000A7775090F7590FFC2902097147F147E87
:1009300000120A773097FD7F147E00120A7775093E
:10094000042096147F147E00120A773096FD7F14DF
:100950007E00120A777509082095147F147E001214
:100960000A773095FD7F147E00120A7775090C20F6
:1009700094147F147E00120A773095FD7F147E0058
:08098000120A77750910AF0996
:01098800224C
:100A1500E4F50A20B1137F14FE120A7730B1FD7F89
:100A2500147E00120A77750A0120B0147F147E0027
:100A3500120A7730B0FD7F147E00120A77750A021C
:020A4500AF0AF6
:010A4700228C
:100A600075984043878053890F438920758BF375B0
:070A70008DF3C2ABD28E2210
:0300000002098969
:0C098900787FE4F6D8FD75810A0209D0E1
:10099500020A48E493A3F8E493A34003F68001F226
:1009A50008DFF48029E493A3F85407240CC8C33363
:1009B500C4540F4420C8834004F456800146F6DF32
:1009C500E4800B0102040810204080900AA2E47E16
:1009D500019360BCA3FF543F30E509541FFEE49327
:1009E500A360010ECF54C025E060A840B8E493A3EE
:1009F500FAE493A3F8E493A3C8C582C8CAC583CA19
:100A0500F0A3C8C582C8CAC583CADFE9DEE780BED0
:010AA5000050
:00000001FF
