:0E0B2200434C4F434B3A0020203A20203A002B
:100B110002080000020A0038020E003B020C001716
:100A7D001200007BFF7A0B79227D017F01120000AD
:100A8D007BFF7A0B79297D017F0212000012000095
:100A9D00750002AB0DAA0C7D017F021200007500DE
:100AAD0002AB0FAA0E7D047F02120000750002AB8F
:0C0ABD000BAA0A7D077F0212000080D403
:03000B00020A15D1
:100A1500C0E0C0D0758A18758CFC0509E50970021F
:100A25000508C394E8E50894034048050BE50B70F9
:100A350002050A943CE50A94004032050FE50F7063
:100A450002050E943CE50E9400401C050DE50D7065
:100A550002050C9418E50C94004006750C00750D04
:100A650000750E00750F00750A00750B00750800FE
:080A7500750900D0D0D0E03279
:0D0B3000007F047ECD7DBBDDFEDEFCDFFA24
:010B3D002295
:100AFC00EF1FAC0670011E4C600A7D027CEFDCFE21
:040B0C00DDFC80ECA0
:010B100022C2
:10080000E4F5107590FFC2932097137F14FE120A2F
:10081000FC3097FD7F147E00120AFC7510012096B3
:10082000147F147E00120AFC3096FD7F147E0012A5
:100830000AFC7510052095147F147E00120AFC3006
:1008400095FD7F147E00120AFC7510092094147F18
:10085000147E00120AFC3095FD7F147E00120AFC03
:1008600075100D7590FFC2922097147F147E0012B0
:100870000AFC3097FD7F147E00120AFC75100220DE
:1008800096147F147E00120AFC3096FD7F147E00C1
:10089000120AFC7510062095147F147E00120AFCC3
:1008A0003095FD7F147E00120AFC75100A20941406
:1008B0007F147E00120AFC3095FD7F147E00120A20
:1008C000FC75100E7590FFC2912097147F147E0066
:1008D000120AFC3097FD7F147E00120AFC7510038B
:1008E0002096147F147E00120AFC3096FD7F147E41
:1008F00000120AFC7510072095147F147E00120A5E
:10090000FC3095FD7F147E00120AFC75100B2094BC
:10091000147F147E00120AFC3095FD7F147E0012B5
:100920000AFC75100F7590FFC2902097147F147EFB
:1009300000120AFC3097FD7F147E00120AFC75102D
:10094000042096147F147E00120AFC3096FD7F145A
:100950007E00120AFC7510082095147F147E001288
:100960000AFC3095FD7F147E00120AFC75100C20E5
:1009700094147F147E00120AFC3095FD7F147E00D3
:08098000120AFC751010AF1003
:01098800224C
:100AC900E4F51120B1137F14FE120AFC30B1FD7F49
:100AD900147E00120AFC75110120B0147F147E00E7
:100AE900120AFC30B0FD7F147E00120AFC75110257
:020AF900AF113B
:010AFB0022D8
:0300000002098969
:0C098900787FE4F6D8FD7581110209D0DA
:10099500020A7DE493A3F8E493A34003F68001F2F1
:1009A50008DFF48029E493A3F85407240CC8C33363
:1009B500C4540F4420C8834004F456800146F6DF32
:1009C500E4800B0102040810204080900B11E47EA6
:1009D500019360BCA3FF543F30E509541FFEE49327
:1009E500A360010ECF54C025E060A840B8E493A3EE
:1009F500FAE493A3F8E493A3C8C582C8CAC583CA19
:100A0500F0A3C8C582C8CAC583CADFE9DEE780BED0
:010B210000D3
:00000001FF
