:020000040800F2
:10000000C8060020890100086102000859020008A2
:100010005D02000843020008D1040008000000004F
:100020000000000000000000000000006502000861
:1000300047020008000000006302000851030008A6
:10004000A3010008A3010008A3010008A301000800
:10005000A3010008A3010008A3010008A3010008F0
:10006000A3010008A3010008A3010008A3010008E0
:10007000A3010008A3010008A3010008A3010008D0
:10008000A3010008A3010008A3010008A3010008C0
:10009000A3010008A3010008A3010008A3010008B0
:1000A000A3010008A3010008A3010008A3010008A0
:1000B000A3010008A3010008A3010008A301000890
:1000C000A3010008A3010008A3010008A301000880
:1000D000A3010008B5030008A3010008A30100085C
:1000E000A3010008A3010008A301000800F002F822
:1000F00000F03AF80AA090E8000C82448344AAF188
:100100000107DA4501D100F02FF8AFF2090EBAE885
:100110000F0013F0010F18BFFB1A43F0010318473B
:100120000404000024040000103A24BF78C878C1F9
:10013000FAD8520724BF30C830C144BF04680C60ED
:10014000704700000023002400250026103A28BF35
:1001500078C1FBD8520728BF30C148BF0B60704739
:100160001FB51FBD10B510BD00F031F81146FFF7E7
:10017000F7FF00F0AFF900F04FF803B4FFF7F2FF1C
:1001800003BC00F057F800000948804709480047C1
:10019000FEE7FEE7FEE7FEE7FEE7FEE7FEE7FEE737
:1001A000FEE7FEE704480549054A064B7047000094
:1001B00055030008ED000008C8000020C806002014
:1001C000C8020020C802002070477047704775467B
:1001D00000F02CF8AE4605006946534620F00700B3
:1001E000854618B020B5FFF7DDFFBDE820404FF091
:1001F00000064FF000074FF000084FF0000B21F011
:100200000701AC46ACE8C009ACE8C009ACE8C009DD
:10021000ACE8C0098D46704710B50446AFF30080C6
:100220002046BDE81040FFF7A8BF00000048704717
:100230006800002001491820ABBEFEE7260002003E
:10024000704700BFFEE7704742690A43426170474A
:1002500002690A430261704700BFFEE700BFFEE784
:1002600070477047704710B500F002F810BD0000ED
:100270000CB50020019000903348006840F48030B5
:100280003149086000BF3048006800F40030009039
:100290000198401C0190009818B90198B0F5A06F22
:1002A000F1D12948006800F4003010B1012000901D
:1002B00001E0002000900098012843D12348006805
:1002C00040F01000214908600846006820F0030053
:1002D00008600846006840F0020008601A4840685C
:1002E000194948600846406848600846406840F43C
:1002F000806048600846406820F47C1048600846EA
:10030000406840F4E81048600846006840F080709B
:10031000086000BF0C48006800F000700028F9D0A9
:100320000948406820F003000749486008464068D3
:1003300040F00200486000BF0348406800F00C0035
:100340000828F9D10CBD0000001002400020024036
:100350007047000010B51348006840F001001149D3
:10036000086008464068104908400E494860084641
:1003700000680E4908400B4908600846006820F4F0
:10038000802008600846406820F4FE0048604FF472
:100390001F008860FFF767FF4FF0006004490860A6
:1003A00010BD0000001002400000FFF8FFFFF6FE45
:1003B00008ED00E010B540F22551214800F059F851
:1003C00001283CD11E4800F07EF8C4B21D480078D8
:1003D00058B9402C2DD11C48007850BB0120194938
:1003E000087000201949087023E016480078012899
:1003F0000FD10D2C03D102201249087019E01448C6
:1004000012490978445411480078401C0F4908707B
:100410000FE00C48007802280BD10A2C09D10020EB
:10042000084908700A49094A127888540120064987
:10043000087040F22551024800F00CF800BF10BDD2
:1004400000380140010000200000002002000020D0
:100450000400002010B50022002340F66A14A142D7
:1004600000D100BF0A1201249440A3B2DC430480EF
:1004700010BD70B50246002400230025002040F680
:100480006A16B14200D100BFC1F3421501F01F034B
:10049000012606FA03F3012D02D19689334006E0C6
:1004A000022D02D1168A334001E0968A33400C12A5
:1004B000012606FA04F41688344013B10CB1012069
:1004C00000E0002070BD01468888C0F30800704736
:1004D00000BFFEE71148806940F004000F498861C1
:1004E0000F48006820F00F000D49086008460068BA
:1004F00040F0010008600A480C30006820F001005C
:1005000007490C31086001210548FFF7A1FE0121D0
:100510000348FFF799FE00BFFEE70000001002400D
:10052000000801404405000800000020040000000D
:10053000280100084805000804000020C406000047
:08054000440100080000000066
:04000005080000ED02
:00000001FF
