:020000040800F2
:10000000984B0020990100089D0100089F010008FD
:10001000A1010008A3010008A501000800000000DC
:1000200000000000000000000000000001010008C6
:10003000A90100080000000045010008274B000846
:10004000AF010008AF010008AF010008AF010008D0
:10005000AF010008AF010008AF010008AF010008C0
:10006000AF010008AF010008AF010008AF010008B0
:10007000AF010008AF010008AF010008AF010008A0
:10008000AF010008AF010008AF010008AF01000890
:10009000AF010008AF010008AF010008AF01000880
:1000A000AF010008AF010008AF010008AF01000870
:1000B0009D1A0008AF010008AF010008AF01000859
:1000C000AF010008AF010008AF010008AF01000850
:1000D000AF01000800000000AF010008AF010008F8
:1000E000AF010008AF010008AF010008DFF80CD035
:1000F00004F01CFE00480047131C0008984B002029
:10010000224B19680868B0E8F00F80F30988BFF344
:100110006F8F4FF0000080F311884EF00D0E704786
:100120000000000006480068006880F3088862B696
:1001300061B6BFF34F8FBFF36F8F00DF00BF00BF0B
:1001400008ED00E0EFF30980BFF36F8F0F4B1A68E3
:1001500020E9F00F106008B54FF0BF0080F3118860
:10016000BFF34F8FBFF36F8F03F039F94FF00000EB
:1001700080F31188BDE8084019680868B0E8F00FFE
:1001800080F30988BFF36F8F704700BF980000208D
:10019000EFF305807047000005480047FEE7FEE7E3
:1001A000FEE7FEE7FEE7FEE7FEE7FEE7FEE7FEE727
:1001B000ED00000830BF704720BF704740BF704758
:1001C000BFF36F8F7047BFF34F8F7047BFF35F8FE1
:1001D000704701DF7047EFF31480704780F3148895
:1001E000BFF36F8F7047EFF30980704780F3098882
:1001F0007047EFF30880704780F30888704772B645
:10020000704762B6704771B6704761B6704780F349
:1002100011887047EFF31280704740BA704700BAF8
:100220007047000010B50446C548204478B1B0F5C9
:10023000806F16D0B0F5744F1DD10121880300F0F6
:100240003AFE00214FF4804000F035FE14E0012119
:10025000480400F03DFE00214FF4003000F038FE6D
:100260000AE00121880400F033FE00214FF48020D1
:1002700000F02EFE00E000BF00BF10BD2DE9F043EE
:1002800085B006460D460024A14600BF00BF348A53
:100290004CF2FF000440E888E9890843298A0843B2
:1002A000698A0843A98A0843044334820024B48934
:1002B0004EF6F3100440A88829890843A989084309
:1002C0000443B4810024B48A4FF6FF400440688997
:1002D0000443B48200BF684600F066FD9948864238
:1002E00002D1DDF80C9001E0DDF8089009EBC900BF
:1002F00000EB091029688900B0FBF1F76420B7FB17
:10030000F0F004012009642101FB1078322000EB99
:100310000810B0FBF1F000F00F000443348105B089
:10032000BDE8F0834FF41651016000218180C18047
:10033000018141810C2181810021C18101824182A1
:100340008182704721B1828942F40052828104E0A7
:1003500082894DF6FF731A4082817047F0B50346DB
:100360000024002600250020C1F3421401F01F06DE
:10037000012707FA06F51846012C01D10C3004E0DC
:10038000022C01D1103000E014301AB107682F435D
:10039000076002E00768AF430760F0BD1AB1838AC7
:1003A0000B43838202E0838A8B4383827047028AF5
:1003B0004FF6F0731A400282028A0A4302827047A3
:1003C00082894FF2FF731A40828182890A438281B7
:1003D000704721B1828942F00202828104E0828961
:1003E0004FF6FD731A4082817047028A4FF6DF7321
:1003F0001A400282028A0A430282704721B1028AAD
:1004000042F48042028204E0028A4BF6FF731A40F3
:1004100002827047C1F308028280704701468888D3
:10042000C0F308007047818941F001018181704764
:10043000028BD2B20283028B42EA0122028370470E
:10044000028B02F47F420283028B0A4302837047CD
:1004500021B1828A42F02002828204E0828A4FF631
:10046000DF731A408282704721B1828A42F0100203
:10047000828204E0828A4FF6EF731A4082827047CC
:1004800021B1828A42F00802828204E0828A4FF619
:10049000F7731A4082827047828A4FF6FB731A40C4
:1004A0008282828A0A438282704721B1828A42F024
:1004B0000202828204E0828A4FF6FD731A40828231
:1004C00070470246002013880B400BB1012000E06A
:1004D0000020704702888A430280704770B5024648
:1004E0000B460024002100250020C3F3421503F031
:1004F0001F01012606FA01F1012D02D19689314032
:1005000006E0022D02D1168A314001E0968A314080
:100510001C12012606FA04F41688344011B10CB1FD
:10052000012000E0002070BD10B5002200230A1257
:10053000012404FA02F304889C43048010BD0000E7
:1005400000BCFFBF0038014010B50446B249601A34
:100550008C4220D006DCB148204450B1B0F5806F09
:1005600034D10FE0B0F5806F1ED0B0F5006F2DD103
:1005700023E00121042000F09EFC0021042000F073
:100580009AFC24E00121082000F095FC00210820BD
:1005900000F091FC1BE00121102000F08CFC0021F8
:1005A000102000F088FC12E00121202000F083FCE4
:1005B0000021202000F07FFC09E00121402000F014
:1005C0007AFC0021402000F076FC00E000BF00BF74
:1005D00010BD10B50121084600F06DFC002101207E
:1005E00000F069FC10BD2DE9F0410246002500260F
:1005F000002000230024002791F803C00CF00F0511
:1006000091F803C00CF0100CBCF1000F03D091F86E
:1006100002C04CEA050591F800C0BCF1000F31D0D2
:10062000146800202AE04FF0010C0CFA00F3B1F836
:1006300000C00CEA03069E421FD183004FF00F0C4E
:100640000CFA03F7BC4305FA03FC4CEA040491F8E6
:1006500003C0BCF1280F05D14FF0010C0CFA00FCCF
:10066000C2F814C091F803C0BCF1480F05D14FF097
:10067000010C0CFA00FCC2F810C0401C0828D2D3B0
:1006800014600024B1F800C0BCF1FF0F34DD5468E1
:1006900000202EE000F1080C4FF0010808FA0CF3DE
:1006A000B1F800C00CEA03069E4221D183004FF04E
:1006B0000F0C0CFA03F7BC4305FA03FC4CEA0404E4
:1006C00091F803C0BCF1280F05D100F1080C08FA1D
:1006D0000CF8C2F8148091F803C0BCF1480F07D1A0
:1006E00000F1080C4FF0010808FA0CF8C2F810806D
:1006F000401C0828CED35460BDE8F0814FF6FF714E
:100700000180022181700421C170704702460020DF
:1007100093680B400BB1012000E0002070470146B8
:10072000886880B2704702460020D3680B400BB146
:10073000012000E0002070470146C86880B2704781
:100740000AB1016100E041617047C16070474FF438
:1007500080320A4382618161826182698269704765
:10076000024600202E4B18684FF68073184040EA6E
:10077000021008432A4B186070472A49C861704725
:1007800070B50B460022002400210025244E71681C
:10079000C0F3034582B200F40016B6F5001F02D183
:1007A00021F0E0610AE000F48016B6F5801F04D164
:1007B000032606FA05F4A14300E0914343B100F497
:1007C0000016B6F5001F02D141EA024100E01143D4
:1007D000134E716070BD30B500228B071C0F0F23C4
:1007E00003FA04F20E4B08338C1053F82430934371
:1007F0000B4C08348D1044F8253023468C1053F8E8
:1008000024308C07240F00FA04F42343044C0834EA
:100810008D1044F8253030BD0010014000F8FEBFB7
:1008200000000140000020420020411EEF4A1160FC
:100830004A0DEE498039C1F88420411E4FF0E02274
:10084000C2F880124A0DEA490A6000BF04E00022A3
:10085000E84941F82020401C0B28F8D370470020BD
:100860004FF02061E44A11600021121D1160E3493C
:10087000121D11600021121D1160121D116000BFB8
:1008800005E00022DC49143141F82020401C0328F7
:10089000F7D30021D84A20321160491E121D116081
:1008A000121D1160121D11607047D4490143D24AD4
:1008B000083211607047F0B50021002200230025A6
:1008C0000F24C678002E35D0CB4E0836366806F495
:1008D000E066C6F5E066310AC1F10405CC40467811
:1008E00006FA05F186782640314309010678B607F5
:1008F000F60EB140BF4E0778BF1056F82720067895
:10090000B607F70EFF2606FA07F39A4319400A4383
:10091000B84E0778BF1046F82720067806F01F0764
:100920000126BE4007787F11BF0007F1E027C7F816
:1009300000610BE0067806F01F070126BE40AB4FB2
:1009400090F800C04FEA6C1C47F82C60F0BD002105
:10095000017041708170C170704710B5FFF74FFC96
:1009600010BD10B5FFF74DFC10BD10B5FFF74BFCE7
:1009700010BD10B5FFF749FC10BD10B504462001AD
:10098000FFF745FC10BD10B5FFF744FC10BD9A48B9
:100990000068C0F30930704710B5014600200022FE
:1009A00001F01F04012303FA04F2904B80334C1131
:1009B00053F824301340934201D1012000E000207D
:1009C00010BD8F490860704700F01F02012191405F
:1009D000874A121F431142F8231070478648006867
:1009E000C0F30900704710B501460020002201F055
:1009F0001F04012303FA04F27D4B7C334C1153F89E
:100A000024301340934201D1012000E0002010BDAA
:100A10007948001F006870477A4A02EAC112764B93
:100A20001B1D1A601A46126802431A607047734809
:100A3000001D71490831086070477048401C6E49BC
:100A400008310860704739B16B4A0C3212680243B2
:100A5000694B0C331A6006E0674A0C321268824315
:100A6000654B0C331A60704710B5002200F01F046C
:100A7000012303FA04F239B15F4B20331B6813439F
:100A80005D4C2034236006E05B4B20331B689343AE
:100A9000594C2034236010BDF0B503460C46154672
:100AA0000020FF2200260021534F08373F6807F43B
:100AB000E067C7F5E067390AC1F10400CA4004FAEB
:100AC00000F105EA02073943090103F0C00080097B
:100AD000C3F30122D700B9404FEAC20CFF2707FA3F
:100AE0000CF6454F143757F82070B743DFF808C1AC
:100AF0000CF1140C4CF82070674657F820700F4327
:100B00004CF82070F0BD10B50246002000230021F3
:100B1000910A01F00F01012404FA01F1364C20344E
:100B2000246804EA01038B4201D1012000E0002087
:100B300010BD002100F01F012F4A126801238B40D5
:100B40001A432D4B1A60704710B5002100F01F01A9
:100B5000294A12684B1E01249C402243264B1A60EE
:100B600010BD10B50246002000230021C2F38331DE
:100B7000012404FA01F1204C2034246804EA010322
:100B80008B4201D1012000E0002010BD30B50146AC
:100B9000002000220023C1F38142C1F301531AB99E
:100BA000154C2834206811E0012A0CD1124C243451
:100BB0002468DD0024FA05F0022B02D000F00F00BB
:100BC00004E0C0B202E00C4C2C34206830BD014679
:100BD00000200022C1F380521AB9074B3033186845
:100BE00002E0054B343318687047000080E100E0F4
:100BF00084E200E000E400E004ED00E00000FA051B
:100C000000EF00E080FFFF1F0020D549C8600861A9
:100C10001420486100208861C8610846006840F0DF
:100C20000100086008464068CE490840CC49486049
:100C300008460068CC490840C94908600846006871
:100C400020F4802008600846406820F4FE004860D8
:100C5000002088607047C249096821F48031C04A89
:100C600011601146096821F480211160B0F5803FC0
:100C700003D0B0F5802F0ED106E0B949096841F4E0
:100C80008031B74A116007E0B549096841F4A021F5
:100C9000B34A116000E000BF00BF7047014600206A
:100CA000AF4A106820F0F80040EAC10010607047B9
:100CB000AE490860704702460020A94B586820F4EE
:100CC0007C1042EA01031843A54B58607047A749BE
:100CD0000866704701460020A14A506820F00300D2
:100CE0000843506070479E48406800F00C00704711
:100CF000014600209A4A506820F0F00008435060F6
:100D0000704701460020964A506820F4E06008438E
:100D10005060704701460020914A506820F46050AE
:100D200040EAC1005060704729B18D4A527A0243AF
:100D30008B4B5A7204E08A4A527A8243884B5A7229
:100D400070478A49D8310860704701460020844ABC
:100D5000506820F440400843506070470021804AAA
:100D6000203211707E4A82F82010012802D0042817
:100D70000AD104E001217A4A2032117005E00521F0
:100D8000774A2032117000E000BF00BF70477849F9
:100D9000086070477249096A0143714A11627047DD
:100DA000734944390860704730B50021002200249F
:100DB00000236B4D6D6805F00C0121B1042905D0AD
:100DC000082923D105E06B4D056022E0694D0560DF
:100DD0001FE0634D6D6805F47012022505EB924229
:100DE0005F4D6D6805F480341CB9634D5543056053
:100DF0000BE05B4D6D6805F400351DB15E4D55434C
:100E0000056002E05B4D5543056002E0594D056009
:100E100000BF00BF524D6D6805F0F0010909574D44
:100E20006B5C0568DD4045604D4D6D6805F4E06123
:100E3000090A524D6B5C4568DD408560484D6D6820
:100E400005F46051C90A4D4D6B5C4568DD40C560D5
:100E5000434D6D6805F44041890B494D6B5CC56895
:100E6000B5FBF3F5056130BD29B13D4A5269024336
:100E70003B4B5A6104E03A4A52698243384B5A610B
:100E8000704729B1364A92690243354B9A6104E0B2
:100E9000334A92698243324B9A61704729B1304A92
:100EA000D26902432E4BDA6104E02D4AD2698243B3
:100EB0002B4BDA61704729B1294AD2680243284B8B
:100EC000DA6004E0264AD2688243254BDA60704734
:100ED00029B1234A12690243214B1A6104E0204AD6
:100EE000126982431E4B1A617047214940390860DC
:100EF00070471E49C86470471949C871704710B5DA
:100F000001460022002300204A11012A02D1144C7C
:100F1000236806E0022A02D1114C236A01E0104C3A
:100F2000636A01F01F02012494401C400CB10120AF
:100F300000E0002010BD0A48406A40F08070084977
:100F40004862704701460020054A92680A400AB18B
:100F5000012000E0002070470149887270470000BE
:100F6000001002400000FFF8FFFFF6FE00004242C2
:100F70008004424200127A0000093D007A4F0008C6
:100F80008A4F0008042808D14FF0E021096941F098
:100F900004014FF0E022116107E04FF0E021096900
:100FA00021F004014FF0E022116170474FF0E02181
:100FB0004861704720B900214FF0E022916112E0B2
:100FC000012808D14FF0E021096941F001014FF0FB
:100FD000E022116107E04FF0E021096921F00101F1
:100FE0004FF0E0221161704740B14FF0E0210969F4
:100FF00041F002014FF0E022116107E04FF0E021E3
:10100000096921F002014FF0E022116170474FF0B1
:10101000E0208069704710B50146002200230020BF
:101020004A11012A03D14FF0E024236902E04FF076
:10103000E024E36901F01F02012494401C400CB13C
:10104000012000E0002010BD10B50446B4F1804F2F
:1010500006D0F648204460B1B0F5806F1BD111E096
:1010600001210846FFF734FF00210120FFF730FF80
:1010700012E001210220FFF72BFF00210220FFF7E1
:1010800027FF09E001210420FFF722FF00210420AF
:10109000FFF71EFF00E000BF00BF10BD0A88828579
:1010A0004A880285028802F09F0202808A88CB88E3
:1010B0001A4303881A430280704730B50023002288
:1010C000028C4C8814B14C88012C2BD1038B4C889A
:1010D000D74D35F8144023404C88D64D35F8144090
:1010E00022404C886CB9048C4FF6FE752C40048469
:1010F0000C8823438C88848642F00102CC882243EA
:101100000EE0048C4FF6EF752C4004840C8843EA03
:1011100004238C88048742F01002CC8842EA04122F
:10112000038333E04C88022C02D04C88032C2DD151
:10113000838B4C88BE4D35F8144023404C88BD4D00
:1011400035F8144022404C88022C0ED1048C4FF606
:10115000FF652C4004840C8823438C88848742F4E8
:101160008072CC8842EA04220FE0048C4EF6FF75B0
:101170002C4004840C8843EA04238C88A0F8404067
:1011800042F48052CC8842EA04328383028430BD28
:101190000A460021018B4FF6F37319401143018376
:1011A0007047F0B50C46154600210022018B028CD9
:1011B000068C4FF6FE773E40068447F60C763140AB
:1011C00045EA03163143BE1E324044F00106324365
:1011D0000026068301830284F0BD02460020108BA6
:1011E0004FF2FF3318404FF6FF7303EA0123184311
:1011F00010837047F0B50C461546002100220026EA
:10120000018B028C4FF6FF7707EA0416078C4FF626
:10121000EF7C07EA0C07078440F67F4739404FF61A
:10122000FF7707EA033739434FF6FF7707EA0527C9
:1012300039434FF6CF773A4046F010073A430183DF
:101240000284F0BD2DE9F04105460C460026012739
:10125000A08808B9022600E00026E088012801D114
:10126000022700E001276088A0B9A37AE288A1885C
:101270002846FFF796FF21892846FFF789FFA37AC2
:101280003A4631462846FFF7B5FF21892846FFF741
:10129000A4FF13E0A37AE288A1882846FFF7AAFFFB
:1012A00021892846FFF799FFA37A3A463146284616
:1012B000FFF777FF21892846FFF76AFFBDE8F08135
:1012C00002460020908B4FF2FF3318404FF6FF7319
:1012D00003EA0123184390837047F0B50C46154686
:1012E000002100220026818B028C4FF6FF7707EA4F
:1012F0000436078C4EF6FF7C07EA0C07078440F69D
:101300007F4739404FF6FF7707EA05274FF6FF7C06
:101310000CEA033C47EA0C0739434CF6FF773A40A6
:1013200046F480573A4381830284F0BD0A46002187
:10133000818B4FF6F3731940114381837047F0B5E9
:101340000C461546002200210026828B018C4FF6A8
:10135000FF7707EA0426078C4FF6FF6C07EA0C07B5
:10136000078447F60C773A4045EA03173A434FF6AD
:10137000FC77394046F48077394382830184F0BD9D
:1013800070B505460C462088072833D1608850B9CF
:10139000A37AE288A1882846FFF703FF218928461F
:1013A000FFF7F6FE2AE0608801280AD1A37AE288D6
:1013B000A1882846FFF71EFF21892846FFF70DFF69
:1013C0001CE0608802280AD1A37AE288A188284616
:1013D000FFF7B5FF21892846FFF7A8FF0EE0A37AA3
:1013E000E288A1882846FFF778FF21892846FFF781
:1013F00067FF03E021462846FFF724FF70BD002168
:10140000018041808180C18070470021018041803E
:101410008180C18070470721018000214180818047
:101420000121C180002101818172704700FCFFBF52
:101430008E4F0008964F000821B1028842F0010249
:10144000028004E0028840F2FE331A4002807047B6
:101450001AB183890B43838102E083898B438381A3
:10146000704710B50023B0F84830002341EA020469
:101470002343A0F8483010BD10B5134600228289DE
:101480000BB10A4302E0CC43A4B22240828110BDDA
:1014900001894FF6F0721140018170470A46002120
:1014A00001894FF68773194011430181704730B5A8
:1014B00004460D4629462046FFF7F0FF208940F0FC
:1014C0000700208130BD2DE9F04104460D46164647
:1014D0001F46602D06D13B46012231462046FFF7CC
:1014E00089FE05E03B46012231462046FFF759FEC2
:1014F00029462046FFF7D2FF208940F007002081CF
:10150000BDE8F08130B50C460021018901F0F701FA
:1015100044EA020545EA03252943018130BD2DE94E
:10152000F04104460D4616461F463B4632462946C4
:101530002046FFF7E7FF20894FF6F0710840208131
:10154000208940F00700208120894FF687710840EC
:101550002081208940F070002081BDE8F0812DE9D4
:10156000F04104460D4616461F463B463246294684
:101570002046FFF7C7FF208940F480402081BDE866
:10158000F0810185012A04D1838A43F0010383821B
:1015900003E0838A03F00103838270470A46002137
:1015A000018840F29F3319401143018070470A4679
:1015B0000021018B47F60F731940114301837047D7
:1015C00002460020108B40F67F7318404FF6FF73E1
:1015D00003EA01231843108370470A460021818BD8
:1015E00047F60F731940114381837047024600206C
:1015F000908B40F67F7318404FF6FF7303EA012388
:101600001843908370470A460021018812B141F0C7
:10161000800102E040F27F331940018070470A46A2
:101620000021818812B141F0080101E001F00701B9
:10163000818070470A460021018B47F67773194075
:1016400011430183704702460020108B47F27F73DD
:1016500018404FF6FF7303EA0123184310837047C5
:101660000A460021818B47F6777319401143818325
:10167000704702460020908B47F27F7318404FF668
:10168000FF7303EA01231843908370470A46002141
:10169000018B47F67B731940114301837047024663
:1016A0000020108B47F67F3318404FF6FF7303EA94
:1016B00001231843108370470A460021818B47F6A7
:1016C0007B73194011438183704702460020908B41
:1016D00047F67F3318404FF6FF7303EA01231843A0
:1016E000908370470A460021018812B141F002013F
:1016F00002E040F2FD33194001807047F0B50C461E
:1017000015461E460022002100230289018B038C0E
:101710004FF6F0773A40224347F67C47394040F293
:10172000011739434FF6DD773B404FF6FF7707EA65
:1017300006172F433B43028101830384F0BD828A55
:101740000A43828270470A460021018C4FF6FD73DE
:10175000194011430184704702460020108C4FF657
:10176000DF7318404FF6FF7303EA01131843108428
:10177000704702460020108C4FF6FF5318404FF67A
:10178000FF7303EA012318431084704702460020C8
:10179000108C4DF6FF7318404FF6FF7303EA0133C8
:1017A0001843108470470A4600210188012A02D19B
:1017B00041F0040102E040F2FB3319400180704720
:1017C00021B1828842F08002828004E082884FF654
:1017D00070731A40828070470A460021018840F2E7
:1017E000F73319401143018070470A460021818870
:1017F00001F080011143818070470A460021018970
:101800004FF6F07319401143018170470A460021D9
:1018100001894FF677731940114301817047818523
:101820007047818670470187704781877047A0F8AD
:10183000401070470A4600210188C9B21143018057
:1018400070470146888E70470146088F70470146F1
:10185000888F70470146B1F8400070470146888C78
:1018600070470146088D704702460020138A0B40DE
:101870000BB1012000E000207047028A8A430282F7
:10188000704730B50246002000230024158A05EA7F
:101890000103958905EA010413B10CB1012000E0B0
:1018A000002030BD028A8A430282704708B54FF497
:1018B0007070ADF8000010208DF8030003208DF843
:1018C000020069462248FEF78EFE08BD70B5054647
:1018D0000E4601F063FC042D16D24020A84084B2CD
:1018E00046B94FF6FF7044401A4800882040194915
:1018F000088004E0174800882043164908801548EE
:1019000001881348FEF721FF01F05BFB70BD70B545
:10191000054601F043FC042D16D24020A84084B2B5
:101920000C480088204028B10A480088A043094993
:10193000088004E0074800882043064908800548DD
:1019400001880348FEF701FF01F03BFB70BD00007A
:10195000001001400000002010B588B04FF416546C
:10196000012144F20400FFF78CFA4FF48060ADF8D7
:10197000040004208DF8070001A91F48FEF733FE7C
:101980004FF40070ADF8040003208DF80600182015
:101990008DF8070001A91848FEF725FE02940020E3
:1019A000ADF80C00ADF80E00ADF81000ADF8120067
:1019B0000C20ADF814000020ADF81600ADF81800AA
:1019C0004FF40070ADF81A000020ADF81C0002A919
:1019D0000A48FEF753FC01210848FEF7B3FC08B0A3
:1019E00010BD0A46054900BF0B8803F08003002B99
:1019F000FAD088807047000000080140003801409C
:101A00003EB501210846FFF749FA01210220FFF700
:101A100045FA4FF08040FFF717FB3248FFF714FB01
:101A200001A8FFF7ECFC4FF46164ADF8044000201E
:101A3000ADF80600ADF80800ADF80A0001A9A0064F
:101A4000FFF72CFB01218807FFF7DDFD4FF6FF7044
:101A5000ADF8040001A92348FFF720FB012121482C
:101A6000FFF7D1FD1C208DF8000000208DF802004A
:101A70008DF8010001208DF803006846FEF71BFF7A
:101A8000012211469007FFF7E3FC01218807FFF7C9
:101A9000D3FC01211348FFF7CFFC3EBD70B51148C0
:101AA000243005881048008805280FDB0F4800887F
:101AB000281A84B20E48008884420CDD0C48048049
:101AC0000088A0F561600B49088004E006480088A2
:101AD000401C054908800548058001218807FFF75B
:101AE000E1FE70BD0004004006000020040000205C
:101AF000080000200200002004460FE07F48006834
:101B000060B901207D49086021467DA003F020F9DD
:101B100000207A490860012001F07CFBEEE70446D2
:101B20000FE07648006860B90120744908602146DA
:101B300073A003F00DF9002070490860012001F046
:101B400069FBEEE711E070A003F002F94FF4C870F2
:101B500001F060FB6D48006801F005F96C48006811
:101B600001F001F9002001F0FEF8ECE7694B036099
:101B7000694B0B60642313607047704710B5FFF723
:101B800043F84FF48030FFF766F800BF3120FFF7CD
:101B9000B6F90028FAD00220604908600020FFF75B
:101BA000A7F80020FFF7B6F84FF48060FFF7A9F818
:101BB0004FF4E0114FF48030FFF77DF80120FFF77C
:101BC00086F800BF3920FFF79AF90028FAD00220E2
:101BD000FFF780F800BFFFF786F80828FBD1012146
:101BE0007D20FFF74EF901218803FFF757F9002107
:101BF0000846FEF711FF4FF44070FEF756FE042032
:101C0000FFF7C0F9FFF752FEFFF7A6FE03F04AF810
:101C100010BD1CB5FFF7B2FF41A003F099F83B4897
:101C2000002141A34FF48062CDE9001041A1AFF241
:101C3000371001F03EF83648002140A34FF480628F
:101C4000CDE9001042A1AFF2291001F032F842486C
:101C5000012100238A02CDE9001040A1AFF21B1040
:101C600001F027F801F038FD00201CBD0EB501F091
:101C7000A3FD02903B48019000BF41F2883102A8C9
:101C800001F092FA00F08DFA012802D036A00190FE
:101C9000F3E700F0FBFC012802D038A00190ECE74C
:101CA00000F075F9012802D03AA00190E5E700F0B4
:101CB000ECFE012802D03CA00190DEE700F0E3FD3D
:101CC000012802D03DA00190D7E700F052FE012884
:101CD00002D03FA00190D0E700F061FD012802D0C2
:101CE0003FA00190C9E74348008800EB800101EB69
:101CF000C00241A11B4803F03BF8BEE718000020DA
:101D000025730D0A00000000330000000C000020C5
:101D10001000002064040020D402002000200240B3
:101D2000626567696E210A0068656C6C6F2074617A
:101D3000736B31005461736B310000006D79206E5C
:101D4000616D65206973206C697578756E7A6900BC
:101D50005461736B32000000140000205461736BF7
:101D600033000000B00400204552524F5220494E2B
:101D700020424C4F434B20510A0000004552524F25
:101D80005220494E20424C4F434B2054494D450A66
:101D9000000000004552524F5220494E2053454DFD
:101DA0004150484F52450A004552524F5220494E29
:101DB00020504F4C4C20510A000000004552524F19
:101DC0005220494E204352454154450A000000002C
:101DD0004552524F5220494E204D4154480A00006E
:101DE0004552524F5220494E20434F4D20544553A7
:101DF000540A00000200002050415353205B257517
:101E00006E735D0A0000000008B505464FF000093A
:101E100002F06CFE6948B0F900800088401C00B2F6
:101E20006649088002F071FE2C466768A06818B108
:101E300040F6FF70009001E0FF20009000BFA16815
:101E4000206802F082FC012832D13868009988426B
:101E500001D04FF00109002606E03E603868B0422C
:101E600001D04FF00109761C00988642F5D9002375
:101E70001A461946206802F0B9FA08B94FF001096C
:101E8000B9F1000F0AD1B8F1040F07DA4C4830F865
:101E90001800401C00B24A4921F81800A068002828
:101EA000CDD0A16801EB8101480001F0B3F9C6E78C
:101EB000A0680028C3D14FF0805042490860BFF3AA
:101EC0004F8FBFF36F8FBAE72DE9FC4106466427B9
:101ED0000C2002F05EFE0546002D27D003220021D3
:101EE000012002F0D7F928602868F8B100231A46CB
:101EF0001946286802F07AFA042002F04AFE686067
:101F0000FF20696808600020A86000902B468022AE
:101F10002DA101902E4800F0CCFE002000902B4611
:101F200080222CA101902A4800F0C3FE0C2002F070
:101F300030FE04464CB303220021012002F0AAF92E
:101F40002060206808B300231A461946206802F072
:101F50004DFA042002F01DFE606040F6FF706168DB
:101F600008606420A0600020234680221BA1CDE9E8
:101F70000060174800F09DFE00202346802219A132
:101F8000CDE90060124800F094FEBDE8FC8101201C
:101F900000210FE0154A32F91120094B33F91130B5
:101FA0009A4200D10020064A32F811200F4B23F844
:101FB0001120491C0429EDDB70470000240000209B
:101FC0001C00002004ED00E0506F6C53454D3100C3
:101FD000091E0008506F6C53454D3200426C6B5324
:101FE000454D3100426C6B53454D320026000020B8
:101FF00008B50546002600272C4600BF6946D4E9EF
:10200000000202F022FB0128F8D1BDF80000B04226
:1020100003D0BDF800600127F0E72FB9A068008861
:10202000401C00B2A1680880701C86B2E6E708B5C3
:1020300005460020009000262C4600BF002369467C
:10204000D4E9000202F0D2F9012801D00126F5E717
:102050002EB9A0680088401C00B2A1680880BDF8B5
:102060000000401C80B20090E8E72DE9F04F85B0F9
:1020700082464FF0010B052004904FF47A700390D4
:10208000002002900C2002F084FD04460022022170
:10209000012002F0FFF820604FF47A70606053482E
:1020A000A0600C2002F075FD074620683860002013
:1020B00078604F48B8600020234680224DA1CDE9CA
:1020C00000A04E4800F0F5FD002000903B46802225
:1020D0004BA101904C4800F0ECFD0C2002F059FDA2
:1020E000054600220221012002F0D4F828600020D9
:1020F00068603F48801CA8600C2002F04AFD8046C2
:102100002868C8F800004FF47A70C8F8040037480F
:10211000801CC8F80800002000902B4680223BA1BC
:102120000190364800F0C5FD00204346802239A1C9
:10213000CDE900A0344800F0BCFD0C2002F029FDE0
:10214000064600220221052002F0A4F830604FF478
:102150007A7070602648001DB0600C2002F019FDF6
:1021600081463068C9F800004FF47A70C9F804005D
:102170001E48001DC9F80800002000903346802248
:1021800026A10190204800F094FD002000904B46CD
:10219000802224A10190194800F08BFD05B0BDE814
:1021A000F08F012000211EE0104A32F911201F4B50
:1021B00033F911309A4200D100200C4A32F8112034
:1021C0001A4B23F811200A4A32F91120184B33F91F
:1021D00011309A4200D10020054A32F81120144BE8
:1021E00023F81120491C0329DEDB70472E00002054
:1021F0003400002051436F6E73423100F11F00081C
:102200005150726F644232002F20000851436F6EAC
:10221000734233005150726F644234005150726FF8
:102220006442350051436F6E734236003A0000201D
:102230004000002008B500BF002001F0F6F801F0D2
:10224000BBFA0546002000905520FA49086000239B
:10225000AF226946F848006802F0C8F810B10120C2
:10226000F649086001F0A8FA441BAF2C02D2012005
:10227000F2490860BE2C02D90120F04908605520BF
:10228000EC490860002001F0D0F801F095FA05460D
:102290005520E8490860AF226946E748006802F027
:1022A000D4F910B10120E549086001F085FA441B1A
:1022B000AF2C02D20120E1490860BE2C02D90120D6
:1022C000DE4908605520DB490860DD480068401C95
:1022D000DB490860B0E72DE9FC5F4FF04B094FF098
:1022E000050A4FF0070B252000900321002000F085
:1022F000D1FF01F061FA8046AF2000F08BFF01F0C2
:102300005BFA0646A6EB0800B62802D90120CB49A5
:10231000086001F051FA06460196002516E0C5EB6B
:10232000051000EB800087194B2101A800F03CFF4D
:1023300001F042FAC01BB62802D90120BF4908604B
:10234000C0480068401CBF4908606D1C052DE6D3DD
:102350004B2101A800F028FF0446012C02D00120E7
:10236000B6490860252000F055FF4B2101A800F078
:102370001BFF0446012C02D00120B04908604B200D
:1023800000F048FF4B2101A800F00EFF044614B1F5
:102390000120AA4908604B2101A800F005FF04466E
:1023A000012C02D00120A5490860522000F032FF24
:1023B0004B2101A800F0F8FE044614B101209F490A
:1023C00008600221002000F065FFBDE8FC9F1CB5FD
:1023D00000BFFFF780FF0020019022E00A20019952
:1023E00000FA01F401F0E8F90646224669469248EF
:1023F000006802F02AF910B101209049086001F04C
:10240000DBF9851BA54202D201208C49086004F14A
:102410000F00854202D90120884908600198401CBC
:10242000019001980528D9DB002001900EE00023DF
:102430001A4601A98048006801F0D8FF012802D09F
:1024400001207E4908600198401C019001980528F0
:10245000EDDB0020019023E00A20019900FA01F44D
:1024600001F0AAF906460023224601A97248006835
:1024700001F0BCFF10B101207049086001F09CF927
:10248000851BA54202D201206C49086004F10F00AF
:10249000854202D90120694908600198401C0190D9
:1024A00001980528D8DB002062490860664800686A
:1024B00001F035F802E0142000F0ACFE5D48006841
:1024C0005528F8D1142000F0A5FE002059490860D5
:1024D000019031E0002269465748006802F0B5F8E3
:1024E000012802D001205549086000231A4601A99D
:1024F0005148006801F07AFF012802D001204F49BD
:1025000008604C480068552802D101204B490860FA
:1025100004214D48006800F0BDFE4648006855287B
:1025200002D101204549086001214748006800F0B8
:10253000B1FE0198401C019001980528CADB02E019
:10254000142000F067FE3B4800685528F8D114209D
:1025500000F060FE00203749086001900DE0002285
:1025600069463548006802F070F8012802D0012061
:10257000324908600198401C019001980528EEDB63
:102580003148006800F0CBFF02E0142000F042FE6A
:10259000284800685528F8D1142000F03BFE0020A0
:1025A00024490860019031E000231A4601A922481D
:1025B000006801F01BFF012802D001201F490860BC
:1025C000002269461C48006802F03FF8012802D04A
:1025D00001201A49086017480068552802D10120D7
:1025E0001649086004211848006800F053FE11489D
:1025F0000068552802D101201049086001211248C5
:10260000006800F047FE0198401C019001980528E1
:10261000CADB02E0142000F0FDFD064800685528E2
:10262000F8D1142000F0F6FD06480068401C05496A
:102630000860CEE65C000020480000205800002022
:1026400054000020500000204C0000201CB5002247
:102650000421052001F01EFE1B49086008460068A1
:1026600098B10020022103468022CDE9001017A175
:10267000184800F01EFB1848012100238022CDE9F4
:10268000001016A1174800F014FB1CBD01201649CC
:102690000968164A1268914200D10020144909685D
:1026A000144A1268914200D1002013490968012997
:1026B00000D100200E4909680E4A11600A490968D4
:1026C0000A4A1160704700004800002042546573B8
:1026D00074310000CF2300084C0000204254657381
:1026E00074320000352200085000002060000020F5
:1026F000540000206400002058000020002600251F
:1027000000BF412401E0601C44B2582CFBDD0021D5
:1027100028480068401CFFF7D9F8012E02D16D1C33
:102720000026EEE7022DECDA23480068401C22491F
:102730000860E6E700BF412501E0681CC5B2582DDE
:10274000FBDD00211B480068FFF7C0F801F034F8FA
:10275000C41C9620B4FBF0F100FB1144322C00D2D3
:102760003224204600F056FDE5E77CB504460E46CF
:102770001546104805600021601E0B468022CDE9F9
:1027800000010EA10F4800F094FA002003468022B9
:102790000DA1CDE900400E4800F08BFA7CBD064942
:1027A000096809B9002000E001200021024A1160F7
:1027B000704700006C00002070000020434F4D5413
:1027C0007800000035270008434F4D527800000084
:1027D000FD2600081CB5054600BF0DB12C6800E0C1
:1027E000002400BF0220019059200090DDE9000183
:1027F00048430090C82000F00DFD002CF2D00020CE
:1028000000F008FD204600F0AEFA002000F0ABFA20
:10281000E8E71CB500BF4FF47A7000F0FBFC00F055
:10282000D2FF2B490860002000F00BFD044600BFDA
:102830004FF47A7000F0EEFC00202649086008464C
:102840000023802224A1CDE90040254800F031FA80
:102850000020204B802223A1CDE90040204800F039
:1028600028FA22480088401C20490880E0E71CB56F
:10287000044600200346BC221DA1CDE900401E48AD
:1028800000F017FA1CBD10B501241C480088174938
:102890000988884201D1002403E0144800881749C0
:1028A000088000F090FF1649086008460068084953
:1028B0000968884201D2002407E0114800680449F1
:1028C0000968401A032800D90024204610BD0000E2
:1028D000780000207C0000205355494349443100D2
:1028E000D52700085355494349443200740000205D
:1028F00043524541544F52001328000880000020E5
:102900008400002008B504460025264600BF7B2031
:102910000090009800F56530473000900098A0EBDB
:10292000800000900721009890FBF1F00090194979
:102930000098884200D00125002DE8D102F0D6F899
:102940000120306002F0E1F8E1E77CB505460024A3
:102950000CE00020CDE900500F4800EB84038022FA
:102960000EA1104800F0A5F9601C04B2012CF0DBA8
:102970007CBD012000210AE0074A52F8212002B95B
:1029800000200022044B43F821204A1C11B20129E7
:10299000F2DB70471B77FEFF88000020496E744D04
:1029A000617468000529000808B5044600200090FD
:1029B000002600BF002519E000231A46694620685A
:1029C00001F014FD012801D001260EE046B902F005
:1029D0008DF835480068401C3349086002F095F8CE
:1029E000BDF80000401C80B200906D1C032DE3DB9D
:1029F000C82000F00FFCDDE708B5044600250026DE
:102A000000BF1AE000226946206801F01EFE01287E
:102A100013D1BDF80000A84203D00126BDF8005034
:102A200009E046B902F062F820480068401C1F49DE
:102A3000086002F06AF8681C85B2206801F0E3FFC4
:102A40000028DFD1B42000F0E5FBDAE71CB504462E
:102A5000002202210A2001F01DFC154908600846E9
:102A6000006888B100200B46802212A1CDE9004009
:102A7000124800F01EF900200D4B802210A1CDE974
:102A80000040114800F015F91CBD0849096811B152
:102A90000549096809B9002000E001200021034A26
:102AA0001160014A11607047900000208C000020E6
:102AB0009400002051436F6E734E4200F9290008C4
:102AC0005150726F644E4200A929000810B50024CD
:102AD00007E004EB8401FD4A02EB810001F010FBEA
:102AE000641C052CF5D3FA4801F00AFBF94801F003
:102AF00007FBF94801F004FBF84801F001FBF84836
:102B000001F0FEFAF248F7490860F248F649086019
:102B100010BD10B5044601F0E9FFF4480068401C00
:102B2000F2490860F248006840B9F148046008467C
:102B3000006801280DD1FFF7C9FF0AE0ED480068E1
:102B400038B9EB480068C06AE16A884201D8E848B1
:102B50000460E9480068401CE749086094F82C10BC
:102B600001208840E54909680843E4490860E16AB2
:102B700001EB8101D54A02EB81014868A0608268BF
:102B8000E260211D826851608160E16A01EB810190
:102B9000CE4A02EB81026261E16A01EB8101CB4A1C
:102BA00052F82110491CE26A02EB8202C74B43F83B
:102BB000221001F0AAFFCF48006868B1CC48006835
:102BC000C06AE16A884207D24FF08050CC49086061
:102BD000BFF34F8FBFF36F8F10BD2DE9FF5F8046AE
:102BE0000E469146DDE90E7A109CA9F10100216B99
:102BF00001EB800B2BF0070B86B1002507E0715D20
:102C000004F134004155705D00B902E06D1C102DD7
:102C1000F5D300BF00214320015502E0002084F8D5
:102C20003400052F00D30427E762201D01F075FA58
:102C300004F1180001F071FA2461C7F10500A061E8
:102C400064620020606484F8480041465846039A54
:102C500001F01DFF2060BAF1000F01D0CAF800405A
:102C6000BDE8FF9F2DE9F04F85B0074688469146A5
:102C70009A46DDE90EB6109CACB1A6B125462E638E
:102C8000022085F84900002004A953464A46CDE9B0
:102C900000B1CDE9025041463846FFF79EFF284675
:102CA000FFF737FF01E000200490049805B0BDE86D
:102CB000F08F2DE9FF4F85B0804689461746DDE944
:102CC00012ABB80001F065FF064656B14C2001F08A
:102CD00060FF04460CB1266304E0304601F0B8FF03
:102CE00000E000248CB1002084F84900CDE900AB5D
:102CF000CDE902403A4649464046089BFFF76DFF42
:102D00002046FFF706FF012501E04FF0FF3528467A
:102D100009B0BDE8F08F73480068006808B9012069
:102D200000E0002020B14FF0FF307649086005E058
:102D30006C480068C068006872490860704710B548
:102D4000044694F8490030B9206B01F081FF204619
:102D500001F07EFF06E094F84900012802D12046E8
:102D600001F076FF10BD70B5054601F0BFFE15B944
:102D70005F48006800E028460446201D01F0F6F98F
:102D800078B9E06A00EB8000504951F8200040B962
:102D900094F82C100120884058490968814357480D
:102DA0000160A06A18B104F1180001F0DFF952487F
:102DB0000068401C504908604D480068844209D1B1
:102DC000211D464801F0ACF94F480068401C4E49AF
:102DD000086009E045480068401E444908602046F4
:102DE000FFF7ADFFFFF797FF01F08FFE4148006846
:102DF00058B13F480068844207D14FF080504049A5
:102E00000860BFF34F8FBFF36F8F70BD2DE9F041A6
:102E100000273E48006800287ED13D480068451CD8
:102E20003B4805608DB92F48D0F800802E480068D7
:102E30002C4908602C48C0F8008036480068401CC7
:102E400034490860FFF767FF00BF2E4800688542DD
:102E50007ED300BF23480068006808B9012000E065
:102E6000002020B14FF0FF302649086090E01D4857
:102E70000068C068C4686668B54202D2214806602E
:102E800086E06069D4E902128A60D4E902214A60CE
:102E9000211D42688A4201D1E168416000226261DD
:102EA0000168491E0160A06AB8B3A06AD4E907129C
:102EB0008A60D4E907214A6004F1180142688A4215
:102EC00001D1216A41600022A26227E0CC040020E7
:102ED0003005002044050020580500206C05002026
:102EE000800500209C000020A0000020A8000020F9
:102EF00098000020B4000020C4000020B000002092
:102F000004ED00E0C8000020A4000020D400002050
:102F1000AC000020C00000204BE003E00168491E27
:102F2000016000BF94F82C1001208840F84909681E
:102F30000843F7490860E16A01EB8101F54A02EBB9
:102F400081014868A0608268E260211D826800E01B
:102F50001FE051608160E16A01EB8101ED4A02EB03
:102F600081026261E16A01EB8101EA4A52F82110B3
:102F7000491CE26A02EB8202E64B43F82210E64962
:102F8000E06A0968C96A8842FFF464AF012761E713
:102F900000BFE1480068C06A00EB8000DD4951F8DD
:102FA0002000012800D90127DC48006800B1012772
:102FB00004E0DB480068401CD94908603846BDE899
:102FC000F08170B50024002601F090FDD54800681E
:102FD000401ED44908600846006800287ED1D248C7
:102FE000006800287AD05BE0D048C068C468A06A56
:102FF000D4E907128A60D4E907214A6004F1180174
:1030000042688A4201D1216A41600022A2620168BD
:10301000491E01606069D4E902128A60D4E9022184
:103020004A60211D42688A4201D1E1684160002264
:1030300062610168491E016094F82C1001208840EB
:10304000B34909680843B2490860E16A01EB8101AC
:10305000B04A02EB81014868A0608268E260211DED
:10306000826851608160E16A01EB8101A94A02EB4B
:1030700081026261E16A01EB8101A64A52F82110E6
:10308000491CE26A02EB8202A24B43F82210A249D9
:10309000E06A0968C96A884202D301209F49086032
:1030A000A248006808B9012000E0002000289BD059
:1030B0000CB1FFF730FE9A48056865B100BFFFF715
:1030C000A5FE10B10120954908606D1E002DF6D1B6
:1030D0000020934908609148006800E008E038B19A
:1030E0000126300792490860BFF34F8FBFF36F8FFF
:1030F00001F00BFD304670BD2DE9F04105460E464E
:103100008C48076884480068001D01F02FF850B90A
:103110008148006890F82C10012088407C4909689B
:1031200081437B480160681CD8B9D6B182494868A0
:10313000794909688860784982680968CA6076496F
:103140000968091D8268516073490968091D816019
:10315000794A714909684A6111460968491C116038
:103160001AE07C196C4800684460BC4207D26A4887
:103170000168091D7148006800F0DEFF0CE0664838
:103180000168091D6E48006800F0D6FF6D480068B0
:10319000844201D26B480460BDE8F0816148006858
:1031A000401C6049086070472DE9F0470446884696
:1031B0004FF00009FFF7F2FF5E480668206800EB59
:1031C00008052068B04207D92068A8420BD9B5424B
:1031D00009D94FF0010906E02068A84201D8B5429C
:1031E00001D94FF001092560B9F1000F03D0A81BE8
:1031F0000021FFF781FFFFF7E4FE07463FB94FF0DC
:1032000080504B490860BFF34F8FBFF36F8F484624
:10321000BDE8F08770B50446002544B1FFF7BEFF56
:1032200000212046FFF768FFFFF7CBFE05463DB9BA
:103230004FF080503E490860BFF34F8FBFF36F8F50
:1032400070BD70B5044601F051FC14B932480068F5
:1032500000E020460646F56A01F057FC284670BD9E
:1032600070B5024600BFBF25EFF3118485F31188C6
:10327000BFF34F8FBFF36F8F00BF214612B9264CAB
:10328000246800E014462346D86A00BF81F3118801
:1032900000BF70BD2DE9F04780460D464FF0000994
:1032A000052D00D3042501F021FCB8F1000F02D157
:1032B0001948006800E040460446E66AAE427DD008
:1032C000B5420BD91448006884420DD012480068FA
:1032D000C06AA84208D84FF0010905E00E4800680E
:1032E000844201D14FF00109E76AE562A06900F06C
:1032F000004010B9C5F10500A06107EB8701054A40
:1033000002EB8101606988421ED101201DE00000AE
:10331000B0000020CC04002098000020BC00002059
:10332000B8000020D4000020A8000020580500208C
:1033300004ED00E0AC00002080050020A00000208B
:103340009C000020C80000200020B0B3201D00F029
:103350000DFF30B90120B840FC4909688143FB48A2
:10336000016094F82C1001208840F849096808434E
:10337000F6490860E16A01EB8101F54A02EB81013F
:103380004868A0608268E260211D826851608160A7
:10339000E16A01EB8101EE4A02EB81026261E16ABE
:1033A00001EB8101EA4A52F82110491CE26A02EB62
:1033B0008202E74B43F8221000BF00E00BE0B9F1B6
:1033C000000F07D04FF08050E2490860BFF34F8FE5
:1033D000BFF36F8F00BF01F098FBBDE8F087DE48B8
:1033E000006818B10120DD4908601DE00020DB49BC
:1033F0000860D6480068B0FA80F0C0F11F0101EB08
:103400008102D34B03EB820042685268426000F1B4
:1034100008024368934202D142685268426042689F
:10342000D268CF4B1A6000BF704770B5054601F0F7
:103430005DFB15B9CA48006800E028460446201D17
:1034400000F094FE78B9E06A00EB8000C04951F8C2
:10345000200040B994F82C1001208840BB4909682D
:103460008143BA480160A06A18B104F1180000F065
:103470007DFE211DBB4800F053FE002009E004F151
:103480004801095C012903D1002204F148010A54D2
:10349000401C0128F3DB01F038FBB348006828B179
:1034A00001F024FBFFF737FC01F02FFBAC4800686C
:1034B000844217D1AC48006840B14FF08050A54914
:1034C0000860BFF34F8FBFF36F8F0BE0A548006814
:1034D000A6490968884203D10020A149086001E09B
:1034E000FFF77DFF70BD10B5014600200A469D4CD8
:1034F0005369A34201D1012300E0002373B19C4C26
:10350000936AA34201D1012300E0002333B9936AF7
:103510000BB9012300E0002303B1012010BD70B5F9
:1035200005462C468E480068844245D0002C43D086
:1035300001F0DCFA2046FFF7D6FFD8B3201D00F0DB
:1035400015FE94F82C100120884080490968084332
:103550007E490860E16A01EB81017D4A02EB81014D
:103560004868A0608268E260211D826851608160C5
:10357000E16A01EB8101764A02EB81026261E16A54
:1035800001EB8101724A52F82110491CE26A02EBF8
:1035900082026F4B43F822107149E06A0968C96AD8
:1035A000884207D34FF080506A490860BFF34F8FBD
:1035B000BFF36F8F01F0A9FA70BD2DE9F041064607
:1035C0000027344600BFBF21EFF3118081F311883B
:1035D000BFF34F8FBFF36F8F00BF05462046FFF745
:1035E00082FF002841D05C480068002838D15C493F
:1035F000E06A0968C96A884203D301270120574954
:103600000860201D00F0B2FD94F82C1001208840C5
:103610004E49096808434D490860E16A01EB8101A0
:103620004B4A02EB81014868A0608268E260211D7C
:10363000826851608160E16A01EB8101444A02EBDA
:1036400081026261E16A01EB8101414A52F8211075
:10365000491CE26A02EB82023D4B43F8221004E06F
:1036600004F11801424800F05BFD00BF85F31188AA
:1036700000BF3846BDE8F08110B516E001F036FA1B
:103680003C48C068C468201D00F070FD37480068E1
:10369000401E3649086038480068401E36490860B8
:1036A00001F033FA2046FFF74AFB33480068002850
:1036B000E4D110BD00BFFFF7DFFF254800680128F7
:1036C00007D94FF0805023490860BFF34F8FBFF3F5
:1036D0006F8FFEF752FAEEE710B586B00020059026
:1036E000049003AA04A905A8FEF740FA0022DDE928
:1036F00004101346CDE90021029020A12148039A2D
:10370000FFF7B0FA204908600846006808B10124B4
:1037100000E00024012C14D100BFBF2080F31188E9
:10372000BFF34F8FBFF36F8F00BF4FF0FF301749CC
:10373000086001200C49086000201549086001F06C
:10374000BFF91448006806B010BD0000B0000020AA
:10375000CC04002004ED00E0D4000020BC000020D8
:103760009800002080050020B4000020A800002060
:10377000580500206C050020A400002049444C4559
:1037800000000000B5360008CC000020C800002072
:10379000AC000020D000002010B500BFBF2080F397
:1037A0001188BFF34F8FBFF36F8F00BF0020FE491A
:1037B000086001F09AF910BDFC49086870470021C3
:1037C000FA4A10687047FA4800687047014611B914
:1037D000F848006800E00846024602F134007047ED
:1037E00070B50446FFF7DAFCF34800682044F2495C
:1037F0000860FFF7E6FB0546284670BD70B5054634
:103800000C46EC4801681831284600F095FC01216F
:103810002046FFF771FC70BD70B504460D46164694
:1038200045F00040E349096888616068E14909683A
:10383000C861E049826809680A62DE49096818318E
:1038400082685160DB49096818318160D94909688B
:103850008C622168491C216001213046FFF74CFC35
:1038600070BD70B50346D868C168886AD1E907455C
:10387000A560D1E90754656001F118044568A542C7
:1038800001D10C6A446000258D620468641E0460E6
:10389000CA48006800283DD14869D1E90245A560C1
:1038A000D1E9025465600C1D4568A54201D1CC6880
:1038B000446000254D610468641E046091F82C404A
:1038C0000120A040BE4C24682043BD4C2060CC6A3F
:1038D00004EB8404BB4D05EB840460688860856854
:1038E000CD600C1D85686C608460CC6A04EB840438
:1038F000B44D05EB84054D61CC6A04EB8404B14DF5
:1039000055F82440641CCD6A05EB8505AD4E46F89C
:10391000254010E0AC4C6068C86185680D6201F11B
:10392000180485686C608460A74D8D622C462468FD
:10393000641C2C6000BF9F4CC86A2468E46AA042E3
:1039400004D901220120A14C206000E00022104691
:1039500070BD70B502460B4643F000411160D0685F
:103960001169D2E90154AC60D2E901456C604C6840
:10397000944201D194684C60002414610C68641E68
:103980000C604169D0E90245A560D0E90254656048
:10399000041D4D68A54201D1C4684C6000254561F5
:1039A0000C68641E0C6090F82C400121A140844CEE
:1039B00024682143824C2160C46A04EB8404814D55
:1039C00005EB8404616881608D68C560041D8D68A5
:1039D0006C608C60C46A04EB84047A4D05EB84054A
:1039E0004561C46A04EB8404764D55F82440641C98
:1039F000C56A05EB8505734E46F825406D4CC16AD6
:103A00002468E46AA14202D90121704C216070BD92
:103A100010B5044601F06AF86D48006820606348FC
:103A20000068606001F071F810BD694909680160C3
:103A30005E4909684160704770B506460C4601F062
:103A400055F85A4802687068131A2068401C08B973
:103A5000002519E05E4930680968884206D0706820
:103A6000904203D80125002020600DE02068984294
:103A700007D92068C01A20603046FFF7D6FF00251E
:103A800002E000202060012501F03FF8284670BDCB
:103A900001204E49086070474649096888694549D0
:103AA0000968C96AC1F10501424A1268916170470B
:103AB0002DE9F04104460F46164601F017F83D483F
:103AC0000068443050F8240080B90121394800686A
:103AD0004830015556B13046FFF70EFB4FF080508D
:103AE0003C490860BFF34F8FBFF36F8F01F00DF8B3
:103AF00000F0FCFF2F480068443050F824506DB1AE
:103B000037B100212B480068443040F8241005E00C
:103B1000681E28490968443141F8240000212548DD
:103B200000684830015500F0F0FF2846BDE8F081FC
:103B30002DE9F04704460F4690461D46DDF82090DB
:103B400000F0D4FF1B4800684830005D02281AD0FE
:103B500018490968443101EB84000168B9430160E8
:103B600001211448006848300155B9F1000F0AD00E
:103B70004846FFF7C1FA4FF0805016490860BFF37E
:103B80004F8FBFF36F8F00F0C0FF00F0AFFF2DB17C
:103B900008480068443050F8240028600548006850
:103BA0004830005D022817E0B4000020AC0000207F
:103BB000A800002098000020B8000020D4000020B9
:103BC000B0000020CC04002058050020BC000020DC
:103BD000C000002004ED00E001D0002609E0FE490D
:103BE0000968443101EB8400016821EA08010160A1
:103BF00001260021F84800684830015500F085FF93
:103C00003046BDE8F0872DE9F05F81460D46164647
:103C10001F46DDF828A04FF0010B4C4600F066FF70
:103C2000BAF1000F05D004F1440050F82500CAF89D
:103C3000000004F1480010F8058002214155052FCD
:103C400029D2DFE807F027030D171C0004F1440018
:103C500050F82500304304F1440141F825001BE0F1
:103C600004F1440050F82500401C04F1440141F8DF
:103C7000250011E004F1440040F825600CE0B8F1A3
:103C8000020F04D004F1440040F8256001E04FF039
:103C9000000B01E000E000BF00BFB8F1010F4AD106
:103CA0006069D4E902128A60D4E902214A60211DC8
:103CB00042688A4201D1E168416000226261016884
:103CC000491E016094F82C1001208840C3490968FE
:103CD0000843C2490860E16A01EB8101C04A02EB76
:103CE00081014868A0608268E260211D826851609D
:103CF0008160E16A01EB8101B94A02EB81026261F4
:103D0000E16A01EB8101B64A52F82110491CE26ACE
:103D100002EB8202B24B43F82210AF49E06A096815
:103D2000C96A884207D94FF08050AE490860BFF396
:103D30004F8FBFF36F8F00F0E8FE5846BDE8F09F4D
:103D40002DE9F04F05460C46DDE909674FF0010902
:103D5000294600BF4FF0BF0AEFF311808AF31188A4
:103D6000BFF34F8FBFF36F8F00BF804626B101F1C5
:103D7000440050F82400306001F1480010F804C0FD
:103D80004FF0020A00F804A0052B29D2DFE803F067
:103D900027030D171C0001F1440050F824001043C4
:103DA00001F1440A4AF824001BE001F1440050F8F4
:103DB0002400401C01F1440A4AF8240011E001F1FA
:103DC000440040F824200CE0BCF1020F04D001F1C3
:103DD000440040F8242001E04FF0000901E000E039
:103DE00000BF00BFBCF1010F7ED17F4800680028F2
:103DF0005FD14869D1E902ABCAF808B0D1E902BA8B
:103E0000CAF804B001F1040AD0F804B0D34503D1D4
:103E1000D1F80CA0C0F804A04FF0000BC1F814B00A
:103E2000D0F800A0AAF1010AC0F800A091F82CA0D7
:103E3000012000FA0AF0DFF8A4A1DAF800A040EAB5
:103E40000A00DFF898A1CAF80000D1F82CA00AEB0C
:103E50008A0ADFF88CB10BEB8A0ADAF80400886072
:103E6000D0F808B0C1F80CB001F1040AD0F808B0DD
:103E7000CBF804A0C0F808A0D1F82CA00AEB8A0A5D
:103E8000DFF85CB10BEB8A0BC1F814B0D1F82CA0B1
:103E90000AEB8A0ADFF848B15BF82AA00AF1010AA6
:103EA000D1F82CB00BEB8B0BDFF834E14EF82BA0E4
:103EB0001EE0DFF838A1DAF80400C861D0F808B0D5
:103EC000C1F820B001F1180AD0F808B0CBF804A06E
:103ED000C0F808A0DFF814B1C1F828B0DA46DAF863
:103EE00000A00AF1010A00E013E0CBF800A000BF37
:103EF000DFF8E4A0C86ADAF800A0DAF82CA0504590
:103F000007D90FB1012038600120DFF8E4A0CAF81A
:103F1000000000BF88F3118800BF4846BDE8F08F5D
:103F20002DE9F04103461446184600BFBF27EFF3C2
:103F3000118287F31188BFF34F8FBFF36F8F00BFDC
:103F4000154600F14802565C02275754121F52F8DA
:103F50002120521C00F1440747F82120012E7DD179
:103F6000214A1268002A5CD14269D0E9027CC7F874
:103F700008C0D0E902C7C7F804C0071DD2F804C0C2
:103F8000BC4501D1C76857604FF0000CC0F814C0A1
:103F900017687F1E176090F82C700122BA400F4FEF
:103FA0003F683A430D4F3A60C76A07EB8707DFF86F
:103FB00030C00CEB87077A688260D2F808C0C0F87E
:103FC0000CC0071DD2F808C0CCF804709760C76A0F
:103FD00007EB87070EE0000098000020B0000020EB
:103FE000CC04002004ED00E0D4000020580500209F
:103FF000BC000020DFF8F8C00CEB870CC0F814C040
:10400000C76A07EB8707DFF8E8C05CF827707F1CFA
:10401000D0F82CC00CEB8C0CDFF8D48048F82C7056
:1040200017E0344F7A68C261D2F808C0C0F820C0E7
:1040300000F11807D2F808C0CCF804709760DFF8D8
:10404000B4C0C0F828C067463F687F1CCCF8007039
:1040500000BF294FC26A3F68FF6A00E007E0BA422A
:1040600005D90CB1012222600122244F3A6000BF21
:1040700085F3118800BFBDE8F0812DE9F0410646C7
:104080000C4616B91C48006800E03046074600F0B0
:104090002DFD07F14800005D022805D1002107F140
:1040A00048000155012500E0002500F02EFD2846BE
:1040B000BDE8F0812DE9F04106460C46174616B9D9
:1040C0000D48006800E03046054600F00FFD05F1A0
:1040D000440050F8248050F82400B84305F144010E
:1040E00041F8240000F011FD4046BDE8F0810000D9
:1040F000CC0400205805002098000020BC000020BF
:1041000000F1080141604FF0FF31816000F10801CA
:10411000C1600161002101607047002101617047A9
:1041200042684A6093688B60936859609160086147
:1041300003685B1C0360704710B502460B685C1C8B
:104140000CB9106907E002F1080000E0406844681B
:1041500024689C42FAD944684C604C68A16088602D
:1041600041600A611468641C146010BD01460A694C
:10417000D1E901309860D1E9010358605068884264
:1041800001D188685060002008611068401E1060EE
:10419000106870472DE9F04105460E4601272C4670
:1041A000002C41D0E06B00283ED0B91EE06BB1FB83
:1041B000F0F0216C884237D300F098FCD4E90F125C
:1041C000206801FB0200A0600020A06320686060FE
:1041D000E06B401E226C216800FB0211E160FF20B1
:1041E00084F8440084F845009EB9206908B901208C
:1041F00000E00020A8B904F11000FFF732FB80B105
:104200004FF08050F7490860BFF34F8FBFF36F8FB7
:1042100007E004F11000FFF773FF04F12400FFF73B
:104220006FFF00F072FC00E000273846BDE8F08127
:104230002DE9F04106460D4617469846069C0DB9F5
:10424000246000E02760E663256401212046FFF733
:10425000A1FFBDE8F0812DE9F84380460D461646E2
:104260001C46DDF820900027B8F1000F0FD074B184
:1042700006B165B106B955B92746012087F8460051
:104280004B463246294640460097FFF7D1FF384655
:10429000BDE8F8832DE9F84305460E46174600248D
:1042A000F5B1601EB0FBF5F0B04219D305FB06F086
:1042B00010F1490F14D805FB06F909F1480000F088
:1042C00068FC044664B1A04608F14808002084F860
:1042D00046003B464246314628460094FFF7A8FF79
:1042E0002046BDE8F88370B5044600F0FFFB94F962
:1042F000455010E0606A08B9012000E0002038B99C
:1043000004F12400FFF7ADFA18B1FFF7C1FB00E09C
:1043100003E0681E45B2002DECDC00BFFF2084F8EE
:10432000450000F0F2FB00F0E1FB94F9445010E08E
:10433000206908B9012000E0002048B904F110000C
:10434000FFF78FFA08B1FFF7A3FB681E45B200E044
:1043500001E0002DECDC00BFFF2084F8440000F0F9
:10436000D4FB70BD70B5054600F0C0FBA86BE96BCF
:10437000884201D1012400E0002400F0C6FB204661
:1043800070BD2DE9F04104460F4615464FF0000878
:10439000A66B206C28B37DB93946226C606800F0AA
:1043A0009DFC216C606808446060D4E9010188428A
:1043B00017D32068606014E03946226CE06800F092
:1043C0008DFC216CE068411AE1602168E068884258
:1043D00003D2216CA068411AE160022D01D106B11F
:1043E000761E701CA0634046BDE8F0812DE9FF43B6
:1043F00083B0074688461D464FF000093C4600BF83
:1044000000F074FBA06BE16B884201D3022D28D130
:104410002A4641462046FFF7B4FF0646606A08B9BF
:10442000012000E0002068B904F12400FFF719FA28
:1044300088B14FF080506B490860BFF34F8FBFF3D6
:104440006F8F08E03EB14FF0805066490860BFF3BF
:104450004F8FBFF36F8F00F058FB012007B0BDE80E
:10446000F083059818B900F050FB0020F6E7B9F189
:10447000000F04D101A8FFF7D8FA4FF0010900F0AE
:1044800044FBFEF78BFE00F031FB94F94400401C26
:1044900010B9002084F8440094F94500401C10B97C
:1044A000002084F8450000F030FB05A901A8FFF7C3
:1044B000C3FAF0B92046FFF755FFA0B104F1100090
:1044C0000599FFF79BF92046FFF70DFFFEF779FDF1
:1044D000002895D14FF0805042490860BFF34F8FBC
:1044E000BFF36F8F8CE72046FFF7FDFEFEF769FDF7
:1044F00086E72046FFF7F7FEFEF763FD0020ADE7F5
:104500002DE9F84F05468A4616461F462C4600BF41
:10451000BF21EFF3118081F31188BFF34F8FBFF3F9
:104520006F8F00BF8146A06BE16B884201D3022FE1
:1045300022D194F945B0A06B00903A4651462046EE
:10454000FFF71FFF0BF1010070B9606A08B9012085
:1045500000E0002038B904F12400FFF782F910B11F
:104560000EB10120306004E00BF1010040B284F88C
:1045700045004FF0010801E04FF0000800BF89F34B
:10458000118800BF4046BDE8F88F2DE9F047054689
:104590000E462C4600BFBF21EFF3118081F3118836
:1045A000BFF34F8FBFF36F8F00BF8046D4F83890B2
:1045B000E06B48451FD994F945A009F10100A063BB
:1045C0000AF1010080B9606A08B9012000E000200A
:1045D00078B904F12400FFF744F950B14EB101203D
:1045E000306006E004ED00E00AF1010040B284F81A
:1045F0004500012700E0002700BF88F3118800BFB5
:104600003846BDE8F08770B5054600F06FFAA86B34
:1046100008B9012400E0002400F077FA204670BDBC
:1046200070B504460D46206C70B1216CE068014401
:10463000E160D4E90210884201D32168E160284694
:10464000226CE16800F04AFB70BD2DE9F74183B0B0
:1046500005460F464FF000082C4600BF00F046FA12
:10466000A66BF6B139462046FFF7DAFF701EA0634D
:10467000206908B9012000E0002060B904F11000B1
:10468000FFF7EFF838B14FF08050F9490860BFF3F9
:104690004F8FBFF36F8F00F038FA012006B0BDE8EE
:1046A000F081059818B900F030FA0020F6E7B8F16B
:1046B000000F04D101A8FFF7B8F94FF0010800F08E
:1046C00024FAFEF76BFD00F011FA94F94400401C47
:1046D00010B9002084F8440094F94500401C10B93A
:1046E000002084F8450000F010FA05A901A8FFF7A2
:1046F000A3F9F0B92046FFF786FFA0B104F124002A
:104700000599FFF77BF82046FFF7EDFDFEF759FC12
:104710000028A3D14FF08050D5490860BFF34F8FD8
:10472000BFF36F8F9AE72046FFF7DDFDFEF749FCE8
:1047300094E72046FFF7D7FDFEF743FC2046FFF73E
:1047400062FF00288AD00020A8E7F3B583B00546B1
:1047500000272C4600BF00F0C9F9A66BCEB1701E31
:10476000A063206908B9012000E0002060B904F1CD
:104770001000FFF776F838B14FF08050BC49086060
:10478000BFF34F8FBFF36F8F00F0BFF9012005B06B
:10479000F0BD049818B900F0B8F90020F7E71FB988
:1047A00001A8FFF742F9012700F0AFF9FEF7F6FC88
:1047B00000F09CF994F94400401C10B9002084F8E2
:1047C000440094F94500401C10B9002084F84500CD
:1047D00000F09BF904A901A8FFF72EF9F0B92046D3
:1047E000FFF711FFA0B104F124000499FFF706F8C8
:1047F0002046FFF778FDFEF7E4FB0028ABD14FF031
:1048000080509B490860BFF34F8FBFF36F8FA2E7C3
:104810002046FFF768FDFEF7D4FB9CE72046FFF734
:1048200062FDFEF7CEFB2046FFF7EDFE002892D09A
:104830000020ACE72DE9F74382B005460F464FF064
:1048400000082C4600BF00F051F9D4F83890B9F1B7
:10485000000F1ED0E66839462046FFF7E1FEE6600D
:10486000606A08B9012000E0002060B904F124006A
:10487000FEF7F7FF38B14FF080507D490860BFF375
:104880004F8FBFF36F8F00F040F9012005B0BDE8F6
:10489000F083049818B900F038F90020F6E7B8F171
:1048A000000F04D16846FFF7C0F84FF0010800F090
:1048B0002CF9FEF773FC00F019F994F94400401C40
:1048C00010B9002084F8440094F94500401C10B948
:1048D000002084F8450000F018F904A96846FFF7A5
:1048E000ABF8F0B92046FFF78EFEA0B104F124002A
:1048F0000499FEF783FF2046FFF7F5FCFEF761FB06
:104900000028A0D14FF0805059490860BFF34F8F65
:10491000BFF36F8F97E72046FFF7E5FCFEF751FBEB
:1049200091E72046FFF7DFFCFEF74BFB2046FFF741
:104930006AFE002887D00020A8E72DE9F05F054631
:104940008A4616462C4600BFBF21EFF3118081F343
:104950001188BFF34F8FBFF36F8F00BF8046D4F82D
:104960003890B9F1000F21D094F944B05146204657
:10497000FFF756FEA9F10100A0630BF1010070B929
:10498000206908B9012000E0002068B904F1100096
:10499000FEF767FF40B13EB10120306004E00BF14B
:1049A000010040B284F84400012700E0002700BF66
:1049B00088F3118800BF3846BDE8F09F2DE9F04725
:1049C000054689462C4600BFBF21EFF3118081F3D5
:1049D0001188BFF34F8FBFF36F8F00BF0746A06BE7
:1049E00048B1D4F80C8049462046FFF719FEC4F8B8
:1049F0000C80012600E0002600BF87F3118800BF6D
:104A00003046BDE8F08770B5044600F06FF8A56B3E
:104A100000F07BF8284670BD70B50446254600F0CE
:104A200065F8D5E90E10461A00F06FF8304670BDF3
:104A300001460A46906B704770B50446254695F8C6
:104A4000460010B9284600F003F970BD01460A4639
:104A5000936B0BB9012000E00020704710B50146B0
:104A60000A46936BD46BA34204D1012003E00000FB
:104A700004ED00E0002010BD00BFBF2080F31188CE
:104A8000BFF34F8FBFF36F8F00BF00BFFEE7001F64
:104A90004FF080730360001F21F001030360001FCB
:104AA0002D4B0360143802602038704700204FF00F
:104AB000E021086188612948486107200861704742
:104AC00010B52748006840F47F0025490860084673
:104AD000006840F07F400860FFF7E8FF00202149B0
:104AE0000860FBF71FFB002010BD704700BFBF2010
:104AF00080F31188BFF34F8FBFF36F8F00BF19484A
:104B00000068401C17490860704716480068401E3E
:104B1000144908600846006820B9002080F3118815
:104B200000BF00BF704710B500BFBF2080F31188E1
:104B3000BFF34F8FBFF36F8F00BFFEF767F920B150
:104B40004FF0805006491C39086000BF002080F3F8
:104B5000118800BF10BD0000794A00083F1901000C
:104B600020ED00E0D8000020494A22F00700494A21
:104B700010600022474B5A6044F2F832464B5A60AC
:104B800000221A60014644F2F8324A601A460A606E
:104B900070472DE9F04104464FF00008FEF7FEFA99
:104BA0003E48006820B9FFF7DFFF01203B4908605D
:104BB0009CB104F10800A0420FD9083404F00700AA
:104BC000C0F108002044A04205D904F00700C0F15C
:104BD0000800044402E0002400E00024002C32D04D
:104BE0002F48006884422ED82A4F3846056801E0D5
:104BF0002F462D686868A04202D228680028F7D1A5
:104C0000254885421FD0386800F1080828683860B8
:104C10006868001B102810D92E196868001B706086
:104C20006C6071681B4800E00068026852688A4244
:104C3000FAD302683260066000BF194968680968E3
:104C4000081A17490860FEF7BCF94046BDE8F08134
:104C500070B506463546B6B1083D2C46FEF79EFABD
:104C600061680C4800E00068026852688A42FAD322
:104C70000268226004600A496068096808440849BB
:104C80000860FEF79EF970BD0548006870477047E0
:104C90009C050020DC000020E4000020F000002043
:104CA000EC00002008B501211020FCF7EAF84FF4D1
:104CB0000050ADF8000003208DF8020010208DF8A0
:104CC000030069460448FBF78EFC012251030248A9
:104CD000FBF736FD08BD00000010014040EA01036B
:104CE0009B0703D009E008C9121F08C0042AFAD2A2
:104CF00003E011F8013B00F8013B521EF9D2704766
:104D000030B50B46014600202022012409E021FA9B
:104D100002F59D4205D303FA02F5491B04FA02F598
:104D20002844151EA2F10102F1DC30BD064C074DEE
:104D300006E0E06840F0010394E80700984710346B
:104D4000AC42F6D3FBF7D6F9A04F0008C04F0008DD
:104D50000FB4054B10B503A9044A029800F02CF8D3
:104D600010BC5DF814FB0000E3190008F4000020FB
:104D70000FB4084B10B504A902AA039800F01CF860
:104D8000044602A9002000F0F3F8204610BC5DF8AC
:104D900014FB0000714F000802E008C8121F08C190
:104DA000002AFAD170477047002001E001C1121FAC
:104DB000002AFBD1704700002DE9FF4F8BB09A46C7
:104DC0000F460546002606E025280BD052460D99D1
:104DD00090476D1C761C28780028F5D10FB030461E
:104DE000BDE8F08F0024A0460122604900E00443A2
:104DF00015F8013F203B02FA03F00842F7D128786A
:104E00002E2817D115F8010F44F004042A280ED0DB
:104E10006FF02F022878A0F1300109290AD808EB99
:104E2000880102EB410100EB01086D1CF2E757F825
:104E3000048B6D1C287869283ED006DC0028CDD074
:104E400063280BD0642804D136E0732810D075286D
:104E50004BD052460D999047761C85E017F8040B0D
:104E60008DF8000000208DF80100E946012003E0E4
:104E700057F8049B4FF0FF3061074FF0000401D456
:104E80000AE0641C44450DDA8442FADB19F8041088
:104E90000029F6D106E0641C8442FCDB19F80410FA
:104EA0000029F8D1264404E019F8010B52460D9967
:104EB0009047641EF8D257E001CF4FF00A0B00284C
:104EC00002DA40422D2102E0210504D52B218DF884
:104ED0002410012103E0E10705D02021F7E70DF1BF
:104EE000200908910CE00021F9E701CF4FF00A0BEF
:104EF000F9E75946FFF704FF01F1300209F8012DE7
:104F00000028F6D1ADEB090000F1200B600701D4B9
:104F10004FF00108D84502DDA8EB0B0000E00020AF
:104F20008046002406E009A85246005D0D9990478E
:104F3000641C761C08988442F5DB04E0302052465D
:104F40000D999047761CB8F10001A8F10108F5DC35
:104F500005E019F8010B52460D999047761CBBF1FC
:104F60000001ABF1010BF4DC6D1C34E709280100F2
:104F70000A68531C0B6010707047000000000102AB
:104F8000030401020304060708090204060800FFDF
:104F9000FF0000FFFF00FDFFDFFFFFFDFFDF000060
:104FA000C04F000800000020F8000000984D0008E5
:104FB000B8500008F8000020A04A0000A84D0008E2
:104FC00000000000000000000000000000000000E1
:104FD00000000000000000000000000000000000D1
:104FE00000000000000000000000000000000000C1
:104FF00000000000000000000000000000000000B1
:1050000000000000000000000000000000000000A0
:105010000000000000000000000000000000000090
:105020000000000000000000000000000000000080
:105030000000000000000000000000000000000070
:10504000FF0F000000000000000000000000000052
:105050000000000000000000000000000000000050
:105060000000000000000000000000000000000040
:105070000000000000000000000000000000000030
:105080000000000000000000000000000000000020
:105090000400000000000000AAAAAAAA0000000064
:1050A000000000000000000000000000F8430000C5
:0850B0000000000000000000F8
:04000005080000ED02
:00000001FF
